{
  "contractName": "NFTERC721",
  "abi": [
    {
      "inputs": [
        {
          "internalType": "string",
          "name": "_name",
          "type": "string"
        },
        {
          "internalType": "string",
          "name": "_symbol",
          "type": "string"
        }
      ],
      "stateMutability": "nonpayable",
      "type": "constructor"
    },
    {
      "anonymous": false,
      "inputs": [
        {
          "indexed": true,
          "internalType": "address",
          "name": "owner",
          "type": "address"
        },
        {
          "indexed": true,
          "internalType": "address",
          "name": "approved",
          "type": "address"
        },
        {
          "indexed": true,
          "internalType": "uint256",
          "name": "tokenId",
          "type": "uint256"
        }
      ],
      "name": "Approval",
      "type": "event"
    },
    {
      "anonymous": false,
      "inputs": [
        {
          "indexed": true,
          "internalType": "address",
          "name": "owner",
          "type": "address"
        },
        {
          "indexed": true,
          "internalType": "address",
          "name": "operator",
          "type": "address"
        },
        {
          "indexed": false,
          "internalType": "bool",
          "name": "approved",
          "type": "bool"
        }
      ],
      "name": "ApprovalForAll",
      "type": "event"
    },
    {
      "anonymous": false,
      "inputs": [
        {
          "indexed": true,
          "internalType": "address",
          "name": "previousOwner",
          "type": "address"
        },
        {
          "indexed": true,
          "internalType": "address",
          "name": "newOwner",
          "type": "address"
        }
      ],
      "name": "OwnershipTransferred",
      "type": "event"
    },
    {
      "anonymous": false,
      "inputs": [],
      "name": "Pause",
      "type": "event"
    },
    {
      "anonymous": false,
      "inputs": [
        {
          "indexed": true,
          "internalType": "address",
          "name": "from",
          "type": "address"
        },
        {
          "indexed": true,
          "internalType": "address",
          "name": "to",
          "type": "address"
        },
        {
          "indexed": true,
          "internalType": "uint256",
          "name": "tokenId",
          "type": "uint256"
        }
      ],
      "name": "Transfer",
      "type": "event"
    },
    {
      "anonymous": false,
      "inputs": [],
      "name": "Unpause",
      "type": "event"
    },
    {
      "inputs": [],
      "name": "MAX_SUPPLY",
      "outputs": [
        {
          "internalType": "uint256",
          "name": "",
          "type": "uint256"
        }
      ],
      "stateMutability": "view",
      "type": "function"
    },
    {
      "inputs": [],
      "name": "MAX_SUPPLY_BALANCE",
      "outputs": [
        {
          "internalType": "uint256",
          "name": "",
          "type": "uint256"
        }
      ],
      "stateMutability": "view",
      "type": "function"
    },
    {
      "inputs": [],
      "name": "PRICE",
      "outputs": [
        {
          "internalType": "uint256",
          "name": "",
          "type": "uint256"
        }
      ],
      "stateMutability": "view",
      "type": "function"
    },
    {
      "inputs": [],
      "name": "PRICE1",
      "outputs": [
        {
          "internalType": "uint256",
          "name": "",
          "type": "uint256"
        }
      ],
      "stateMutability": "view",
      "type": "function"
    },
    {
      "inputs": [],
      "name": "PRICE2",
      "outputs": [
        {
          "internalType": "uint256",
          "name": "",
          "type": "uint256"
        }
      ],
      "stateMutability": "view",
      "type": "function"
    },
    {
      "inputs": [],
      "name": "PRICE3",
      "outputs": [
        {
          "internalType": "uint256",
          "name": "",
          "type": "uint256"
        }
      ],
      "stateMutability": "view",
      "type": "function"
    },
    {
      "inputs": [
        {
          "internalType": "address",
          "name": "to",
          "type": "address"
        },
        {
          "internalType": "uint256",
          "name": "tokenId",
          "type": "uint256"
        }
      ],
      "name": "approve",
      "outputs": [],
      "stateMutability": "nonpayable",
      "type": "function"
    },
    {
      "inputs": [
        {
          "internalType": "address",
          "name": "owner",
          "type": "address"
        }
      ],
      "name": "balanceOf",
      "outputs": [
        {
          "internalType": "uint256",
          "name": "",
          "type": "uint256"
        }
      ],
      "stateMutability": "view",
      "type": "function"
    },
    {
      "inputs": [
        {
          "internalType": "address",
          "name": "_to",
          "type": "address"
        }
      ],
      "name": "balanceToken",
      "outputs": [
        {
          "internalType": "uint256",
          "name": "",
          "type": "uint256"
        }
      ],
      "stateMutability": "view",
      "type": "function"
    },
    {
      "inputs": [],
      "name": "baseURI",
      "outputs": [
        {
          "internalType": "string",
          "name": "",
          "type": "string"
        }
      ],
      "stateMutability": "view",
      "type": "function"
    },
    {
      "inputs": [
        {
          "internalType": "uint256",
          "name": "tokenId",
          "type": "uint256"
        }
      ],
      "name": "getApproved",
      "outputs": [
        {
          "internalType": "address",
          "name": "",
          "type": "address"
        }
      ],
      "stateMutability": "view",
      "type": "function"
    },
    {
      "inputs": [
        {
          "internalType": "address",
          "name": "owner",
          "type": "address"
        },
        {
          "internalType": "address",
          "name": "operator",
          "type": "address"
        }
      ],
      "name": "isApprovedForAll",
      "outputs": [
        {
          "internalType": "bool",
          "name": "",
          "type": "bool"
        }
      ],
      "stateMutability": "view",
      "type": "function"
    },
    {
      "inputs": [],
      "name": "maxBalance",
      "outputs": [
        {
          "internalType": "uint256",
          "name": "",
          "type": "uint256"
        }
      ],
      "stateMutability": "view",
      "type": "function"
    },
    {
      "inputs": [],
      "name": "maxNumero",
      "outputs": [
        {
          "internalType": "uint256",
          "name": "",
          "type": "uint256"
        }
      ],
      "stateMutability": "view",
      "type": "function"
    },
    {
      "inputs": [],
      "name": "maxNumeros",
      "outputs": [
        {
          "internalType": "uint256",
          "name": "",
          "type": "uint256"
        }
      ],
      "stateMutability": "view",
      "type": "function"
    },
    {
      "inputs": [],
      "name": "maxSupply",
      "outputs": [
        {
          "internalType": "uint256",
          "name": "",
          "type": "uint256"
        }
      ],
      "stateMutability": "view",
      "type": "function"
    },
    {
      "inputs": [
        {
          "internalType": "address",
          "name": "_to",
          "type": "address"
        },
        {
          "internalType": "uint256",
          "name": "_numero",
          "type": "uint256"
        },
        {
          "internalType": "uint256",
          "name": "_pool",
          "type": "uint256"
        }
      ],
      "name": "mint",
      "outputs": [],
      "stateMutability": "nonpayable",
      "type": "function"
    },
    {
      "inputs": [
        {
          "internalType": "address",
          "name": "_to",
          "type": "address"
        },
        {
          "internalType": "uint256",
          "name": "_numero",
          "type": "uint256"
        },
        {
          "internalType": "uint256",
          "name": "_pool",
          "type": "uint256"
        }
      ],
      "name": "mint2",
      "outputs": [],
      "stateMutability": "payable",
      "type": "function"
    },
    {
      "inputs": [],
      "name": "name",
      "outputs": [
        {
          "internalType": "string",
          "name": "",
          "type": "string"
        }
      ],
      "stateMutability": "view",
      "type": "function"
    },
    {
      "inputs": [
        {
          "internalType": "uint256",
          "name": "",
          "type": "uint256"
        }
      ],
      "name": "nftID",
      "outputs": [
        {
          "internalType": "uint256",
          "name": "id",
          "type": "uint256"
        },
        {
          "internalType": "uint256",
          "name": "numero",
          "type": "uint256"
        },
        {
          "internalType": "uint256",
          "name": "pool",
          "type": "uint256"
        }
      ],
      "stateMutability": "view",
      "type": "function"
    },
    {
      "inputs": [],
      "name": "owner",
      "outputs": [
        {
          "internalType": "address",
          "name": "",
          "type": "address"
        }
      ],
      "stateMutability": "view",
      "type": "function"
    },
    {
      "inputs": [
        {
          "internalType": "uint256",
          "name": "tokenId",
          "type": "uint256"
        }
      ],
      "name": "ownerOf",
      "outputs": [
        {
          "internalType": "address",
          "name": "",
          "type": "address"
        }
      ],
      "stateMutability": "view",
      "type": "function"
    },
    {
      "inputs": [],
      "name": "pause",
      "outputs": [
        {
          "internalType": "bool",
          "name": "",
          "type": "bool"
        }
      ],
      "stateMutability": "nonpayable",
      "type": "function"
    },
    {
      "inputs": [],
      "name": "pauseStake",
      "outputs": [
        {
          "internalType": "bool",
          "name": "",
          "type": "bool"
        }
      ],
      "stateMutability": "nonpayable",
      "type": "function"
    },
    {
      "inputs": [],
      "name": "paused",
      "outputs": [
        {
          "internalType": "bool",
          "name": "",
          "type": "bool"
        }
      ],
      "stateMutability": "view",
      "type": "function"
    },
    {
      "inputs": [],
      "name": "renounceOwnership",
      "outputs": [],
      "stateMutability": "nonpayable",
      "type": "function"
    },
    {
      "inputs": [],
      "name": "returnRobot0",
      "outputs": [
        {
          "internalType": "uint256",
          "name": "",
          "type": "uint256"
        }
      ],
      "stateMutability": "view",
      "type": "function"
    },
    {
      "inputs": [],
      "name": "returnRobot1",
      "outputs": [
        {
          "internalType": "uint256",
          "name": "",
          "type": "uint256"
        }
      ],
      "stateMutability": "view",
      "type": "function"
    },
    {
      "inputs": [],
      "name": "returnRobot2",
      "outputs": [
        {
          "internalType": "uint256",
          "name": "",
          "type": "uint256"
        }
      ],
      "stateMutability": "view",
      "type": "function"
    },
    {
      "inputs": [],
      "name": "returnRobot3",
      "outputs": [
        {
          "internalType": "uint256",
          "name": "",
          "type": "uint256"
        }
      ],
      "stateMutability": "view",
      "type": "function"
    },
    {
      "inputs": [],
      "name": "robot0Max",
      "outputs": [
        {
          "internalType": "uint256",
          "name": "",
          "type": "uint256"
        }
      ],
      "stateMutability": "view",
      "type": "function"
    },
    {
      "inputs": [],
      "name": "robot0Supply",
      "outputs": [
        {
          "internalType": "uint256",
          "name": "",
          "type": "uint256"
        }
      ],
      "stateMutability": "view",
      "type": "function"
    },
    {
      "inputs": [],
      "name": "robot1Max",
      "outputs": [
        {
          "internalType": "uint256",
          "name": "",
          "type": "uint256"
        }
      ],
      "stateMutability": "view",
      "type": "function"
    },
    {
      "inputs": [],
      "name": "robot1Supply",
      "outputs": [
        {
          "internalType": "uint256",
          "name": "",
          "type": "uint256"
        }
      ],
      "stateMutability": "view",
      "type": "function"
    },
    {
      "inputs": [],
      "name": "robot2Max",
      "outputs": [
        {
          "internalType": "uint256",
          "name": "",
          "type": "uint256"
        }
      ],
      "stateMutability": "view",
      "type": "function"
    },
    {
      "inputs": [],
      "name": "robot2Supply",
      "outputs": [
        {
          "internalType": "uint256",
          "name": "",
          "type": "uint256"
        }
      ],
      "stateMutability": "view",
      "type": "function"
    },
    {
      "inputs": [],
      "name": "robot3Max",
      "outputs": [
        {
          "internalType": "uint256",
          "name": "",
          "type": "uint256"
        }
      ],
      "stateMutability": "view",
      "type": "function"
    },
    {
      "inputs": [],
      "name": "robot3Supply",
      "outputs": [
        {
          "internalType": "uint256",
          "name": "",
          "type": "uint256"
        }
      ],
      "stateMutability": "view",
      "type": "function"
    },
    {
      "inputs": [
        {
          "internalType": "address",
          "name": "from",
          "type": "address"
        },
        {
          "internalType": "address",
          "name": "to",
          "type": "address"
        },
        {
          "internalType": "uint256",
          "name": "tokenId",
          "type": "uint256"
        }
      ],
      "name": "safeTransferFrom",
      "outputs": [],
      "stateMutability": "nonpayable",
      "type": "function"
    },
    {
      "inputs": [
        {
          "internalType": "address",
          "name": "from",
          "type": "address"
        },
        {
          "internalType": "address",
          "name": "to",
          "type": "address"
        },
        {
          "internalType": "uint256",
          "name": "tokenId",
          "type": "uint256"
        },
        {
          "internalType": "bytes",
          "name": "_data",
          "type": "bytes"
        }
      ],
      "name": "safeTransferFrom",
      "outputs": [],
      "stateMutability": "nonpayable",
      "type": "function"
    },
    {
      "inputs": [
        {
          "internalType": "address",
          "name": "operator",
          "type": "address"
        },
        {
          "internalType": "bool",
          "name": "approved",
          "type": "bool"
        }
      ],
      "name": "setApprovalForAll",
      "outputs": [],
      "stateMutability": "nonpayable",
      "type": "function"
    },
    {
      "inputs": [
        {
          "internalType": "string",
          "name": "_newBaseURI",
          "type": "string"
        }
      ],
      "name": "setBaseURI",
      "outputs": [],
      "stateMutability": "nonpayable",
      "type": "function"
    },
    {
      "inputs": [
        {
          "internalType": "uint256",
          "name": "numero",
          "type": "uint256"
        }
      ],
      "name": "setNumero",
      "outputs": [],
      "stateMutability": "nonpayable",
      "type": "function"
    },
    {
      "inputs": [
        {
          "internalType": "uint256",
          "name": "_precio",
          "type": "uint256"
        }
      ],
      "name": "setPrice",
      "outputs": [],
      "stateMutability": "nonpayable",
      "type": "function"
    },
    {
      "inputs": [
        {
          "internalType": "uint256",
          "name": "_robot",
          "type": "uint256"
        }
      ],
      "name": "setRobot0",
      "outputs": [],
      "stateMutability": "nonpayable",
      "type": "function"
    },
    {
      "inputs": [
        {
          "internalType": "uint256",
          "name": "_robot",
          "type": "uint256"
        }
      ],
      "name": "setRobot1",
      "outputs": [],
      "stateMutability": "nonpayable",
      "type": "function"
    },
    {
      "inputs": [
        {
          "internalType": "uint256",
          "name": "_robot",
          "type": "uint256"
        }
      ],
      "name": "setRobot2",
      "outputs": [],
      "stateMutability": "nonpayable",
      "type": "function"
    },
    {
      "inputs": [
        {
          "internalType": "uint256",
          "name": "_robot",
          "type": "uint256"
        }
      ],
      "name": "setRobot3",
      "outputs": [],
      "stateMutability": "nonpayable",
      "type": "function"
    },
    {
      "inputs": [
        {
          "internalType": "uint256",
          "name": "_supply",
          "type": "uint256"
        }
      ],
      "name": "setSupply",
      "outputs": [],
      "stateMutability": "nonpayable",
      "type": "function"
    },
    {
      "inputs": [
        {
          "internalType": "uint256",
          "name": "_supply",
          "type": "uint256"
        }
      ],
      "name": "setSupplyBalance",
      "outputs": [],
      "stateMutability": "nonpayable",
      "type": "function"
    },
    {
      "inputs": [
        {
          "internalType": "bytes4",
          "name": "interfaceId",
          "type": "bytes4"
        }
      ],
      "name": "supportsInterface",
      "outputs": [
        {
          "internalType": "bool",
          "name": "",
          "type": "bool"
        }
      ],
      "stateMutability": "view",
      "type": "function"
    },
    {
      "inputs": [],
      "name": "symbol",
      "outputs": [
        {
          "internalType": "string",
          "name": "",
          "type": "string"
        }
      ],
      "stateMutability": "view",
      "type": "function"
    },
    {
      "inputs": [
        {
          "internalType": "address",
          "name": "owner",
          "type": "address"
        }
      ],
      "name": "tokenOfOwner",
      "outputs": [
        {
          "internalType": "uint256[]",
          "name": "",
          "type": "uint256[]"
        }
      ],
      "stateMutability": "view",
      "type": "function"
    },
    {
      "inputs": [
        {
          "internalType": "address",
          "name": "owner",
          "type": "address"
        },
        {
          "internalType": "uint256",
          "name": "index",
          "type": "uint256"
        }
      ],
      "name": "tokenOfOwnerByIndex",
      "outputs": [
        {
          "internalType": "uint256",
          "name": "",
          "type": "uint256"
        }
      ],
      "stateMutability": "view",
      "type": "function"
    },
    {
      "inputs": [],
      "name": "tokenReward",
      "outputs": [
        {
          "internalType": "address",
          "name": "",
          "type": "address"
        }
      ],
      "stateMutability": "view",
      "type": "function"
    },
    {
      "inputs": [
        {
          "internalType": "uint256",
          "name": "tokenId",
          "type": "uint256"
        }
      ],
      "name": "tokenURI",
      "outputs": [
        {
          "internalType": "string",
          "name": "",
          "type": "string"
        }
      ],
      "stateMutability": "view",
      "type": "function"
    },
    {
      "inputs": [],
      "name": "totalMint",
      "outputs": [
        {
          "internalType": "uint256",
          "name": "",
          "type": "uint256"
        }
      ],
      "stateMutability": "view",
      "type": "function"
    },
    {
      "inputs": [
        {
          "internalType": "address",
          "name": "from",
          "type": "address"
        },
        {
          "internalType": "address",
          "name": "to",
          "type": "address"
        },
        {
          "internalType": "uint256",
          "name": "tokenId",
          "type": "uint256"
        }
      ],
      "name": "transferFrom",
      "outputs": [],
      "stateMutability": "nonpayable",
      "type": "function"
    },
    {
      "inputs": [
        {
          "internalType": "address",
          "name": "newOwner",
          "type": "address"
        }
      ],
      "name": "transferOwnership",
      "outputs": [],
      "stateMutability": "nonpayable",
      "type": "function"
    },
    {
      "inputs": [],
      "name": "unpause",
      "outputs": [
        {
          "internalType": "bool",
          "name": "",
          "type": "bool"
        }
      ],
      "stateMutability": "nonpayable",
      "type": "function"
    },
    {
      "inputs": [],
      "name": "unpauseStake",
      "outputs": [
        {
          "internalType": "bool",
          "name": "",
          "type": "bool"
        }
      ],
      "stateMutability": "nonpayable",
      "type": "function"
    },
    {
      "inputs": [],
      "name": "withdrawAll",
      "outputs": [],
      "stateMutability": "nonpayable",
      "type": "function"
    },
    {
      "inputs": [],
      "name": "withdrawAllBNB",
      "outputs": [],
      "stateMutability": "nonpayable",
      "type": "function"
    }
  ],
  "bytecode": "0x60806040526006805460ff60a01b1916905561018f600a8190556003600b819055600c5560006012819055601381905560145560155566470de4df820000601655668e1bc9bf04000060175566d529ae9e8600006018556701aa535d3d0c00006019553480156200006f57600080fd5b50604051620037af380380620037af8339810160408190526200009291620002e9565b825183908390620000ab90600090602085019062000198565b508051620000c190600190602084019062000198565b5050506000620000d66200019460201b60201c565b600680546001600160a01b0319166001600160a01b038316908117909155604051919250906000907f8be0079c531659141344cd1fd0a4f28419497f9722a3daafe3b4186f6b6457e0908290a3506040805180820190915260158082527f68747470733a2f2f697066732e696f2f697066732f000000000000000000000060209092019182526200016a9160079162000198565b50601180546001600160a01b0319166001600160a01b039290921691909117905550620003c59050565b3390565b828054620001a69062000372565b90600052602060002090601f016020900481019282620001ca576000855562000215565b82601f10620001e557805160ff191683800117855562000215565b8280016001018555821562000215579182015b8281111562000215578251825591602001919060010190620001f8565b506200022392915062000227565b5090565b5b8082111562000223576000815560010162000228565b600082601f8301126200024f578081fd5b81516001600160401b03808211156200026c576200026c620003af565b6040516020601f8401601f1916820181018381118382101715620002945762000294620003af565b6040528382528584018101871015620002ab578485fd5b8492505b83831015620002ce5785830181015182840182015291820191620002af565b83831115620002df57848185840101525b5095945050505050565b600080600060608486031215620002fe578283fd5b83516001600160401b038082111562000315578485fd5b62000323878388016200023e565b9450602086015191508082111562000339578384fd5b5062000348868287016200023e565b604086015190935090506001600160a01b038116811462000367578182fd5b809150509250925092565b6002810460018216806200038757607f821691505b60208210811415620003a957634e487b7160e01b600052602260045260246000fd5b50919050565b634e487b7160e01b600052604160045260246000fd5b6133da80620003d56000396000f3fe6080604052600436106103b85760003560e01c80636e66f6e9116101f2578063a2554daa1161010d578063e3c986ac116100a0578063f2fde38b1161006f578063f2fde38b146109d6578063f4bdb0bd146109f6578063f91ccd7f14610a0b578063fe3b08e214610a20576103b8565b8063e3c986ac1461096c578063e985e9c514610981578063e9c0e870146109a1578063ed66dec0146109c1576103b8565b8063c99aeb87116100dc578063c99aeb8714610918578063d5abeb011461092d578063e1b2155f14610942578063e27ae90714610957576103b8565b8063a2554daa146108a3578063a8510ccf146108c3578063b88d4fde146108d8578063c87b56dd146108f8576103b8565b80638d859f3e1161018557806395d89b411161015457806395d89b4114610846578063985965e71461085b578063a1542bd21461086e578063a22cb46514610883576103b8565b80638d859f3e146107e75780638da5cb5b146107fc57806390e2b9f31461081157806391b7f5ed14610826576103b8565b80638456cb59116101c15780638456cb591461060b57806384d6719e14610792578063853828b6146107b2578063866a1421146107c7576103b8565b80636e66f6e91461073357806370a0823114610748578063715018a61461076857806373ad468a1461077d576103b8565b806337a5d9ee116102e257806355f804b3116102755780635c975abb116102445780635c975abb146106d45780636308c6e0146106e95780636352211e146106fe5780636c0360eb1461071e576103b8565b806355f804b31461066a57806356e7fedc1461068a57806359a7715a146106aa5780635af3adf9146106bf576103b8565b806342842e0e116102b157806342842e0e146106205780634c524dcf146105f65780634c87d39e14610640578063519e24b814610655576103b8565b806337a5d9ee146105a75780633b4c4b25146105d65780633f4ba83a146105f6578063428109671461060b576103b8565b8063156e29f61161035a57806327595a801161032957806327595a8014610530578063294cdf0d146105455780632f745c591461057257806332cb6b0c14610592576103b8565b8063156e29f6146104c657806321353c69146104e657806322759488146104fb57806323b872dd14610510576103b8565b80630459901211610396578063045990121461043757806306fdde0314610457578063081812fc14610479578063095ea7b3146104a6576103b8565b806301d862bb146103bd57806301ffc9a7146103e85780630277e39e14610415575b600080fd5b3480156103c957600080fd5b506103d2610a35565b6040516103df9190613246565b60405180910390f35b3480156103f457600080fd5b506104086104033660046129cc565b610a3b565b6040516103df9190612bab565b34801561042157600080fd5b50610435610430366004612a4a565b610a83565b005b34801561044357600080fd5b506103d261045236600461281f565b610ad0565b34801561046357600080fd5b5061046c610b5c565b6040516103df9190612bb6565b34801561048557600080fd5b50610499610494366004612a4a565b610bee565b6040516103df9190612ad8565b3480156104b257600080fd5b506104356104c1366004612955565b610c31565b3480156104d257600080fd5b506104356104e136600461297e565b610cc9565b3480156104f257600080fd5b506103d2610e76565b34801561050757600080fd5b506103d2610e7c565b34801561051c57600080fd5b5061043561052b36600461286b565b610e82565b34801561053c57600080fd5b506103d2610eba565b34801561055157600080fd5b5061056561056036600461281f565b610ec0565b6040516103df9190612b67565b34801561057e57600080fd5b506103d261058d366004612955565b610fc8565b34801561059e57600080fd5b506103d2610ff3565b3480156105b357600080fd5b506105c76105c2366004612a4a565b610ff9565b6040516103df9392919061324f565b3480156105e257600080fd5b506104356105f1366004612a4a565b61101a565b34801561060257600080fd5b5061040861105e565b34801561061757600080fd5b506104086110f1565b34801561062c57600080fd5b5061043561063b36600461286b565b61118b565b34801561064c57600080fd5b506103d26111a6565b34801561066157600080fd5b506103d26111ac565b34801561067657600080fd5b50610435610685366004612a04565b6111b2565b34801561069657600080fd5b506104356106a5366004612a4a565b611208565b3480156106b657600080fd5b506103d261124c565b3480156106cb57600080fd5b5061043561125b565b3480156106e057600080fd5b50610408611319565b3480156106f557600080fd5b506103d2611329565b34801561070a57600080fd5b50610499610719366004612a4a565b61132f565b34801561072a57600080fd5b5061046c611364565b34801561073f57600080fd5b506104996113f2565b34801561075457600080fd5b506103d261076336600461281f565b611401565b34801561077457600080fd5b5061043561144a565b34801561078957600080fd5b506103d26114d3565b34801561079e57600080fd5b506104356107ad366004612a4a565b6114d9565b3480156107be57600080fd5b5061043561151d565b3480156107d357600080fd5b506104356107e2366004612a4a565b611664565b3480156107f357600080fd5b506103d26116a8565b34801561080857600080fd5b506104996116ae565b34801561081d57600080fd5b506103d26116bd565b34801561083257600080fd5b50610435610841366004612a4a565b6116c3565b34801561085257600080fd5b5061046c611707565b61043561086936600461297e565b611716565b34801561087a57600080fd5b506103d261185e565b34801561088f57600080fd5b5061043561089e36600461291f565b611864565b3480156108af57600080fd5b506104356108be366004612a4a565b611876565b3480156108cf57600080fd5b506103d26118ba565b3480156108e457600080fd5b506104356108f33660046128a6565b6118c0565b34801561090457600080fd5b5061046c610913366004612a4a565b6118ff565b34801561092457600080fd5b506103d26119a4565b34801561093957600080fd5b506103d26119aa565b34801561094e57600080fd5b506103d26119b0565b34801561096357600080fd5b506103d26119b6565b34801561097857600080fd5b506103d26119bc565b34801561098d57600080fd5b5061040861099c366004612839565b6119c2565b3480156109ad57600080fd5b506104356109bc366004612a4a565b6119f0565b3480156109cd57600080fd5b506103d2611a34565b3480156109e257600080fd5b506104356109f136600461281f565b611a3a565b348015610a0257600080fd5b506103d2611afb565b348015610a1757600080fd5b506103d2611b01565b348015610a2c57600080fd5b506103d2611b07565b60155481565b60006001600160e01b031982166380ac58cd60e01b1480610a6c57506001600160e01b03198216635b5e139f60e01b145b80610a7b5750610a7b82611b0d565b90505b919050565b610a8b611b26565b6001600160a01b0316610a9c6116ae565b6001600160a01b031614610acb5760405162461bcd60e51b8152600401610ac290613044565b60405180910390fd5b601455565b6011546040516370a0823160e01b815260009182916001600160a01b03909116906370a0823190610b05908690600401612ad8565b60206040518083038186803b158015610b1d57600080fd5b505afa158015610b31573d6000803e3d6000fd5b505050506040513d601f19601f82011682018060405250810190610b559190612a62565b9392505050565b606060008054610b6b906132d4565b80601f0160208091040260200160405190810160405280929190818152602001828054610b97906132d4565b8015610be45780601f10610bb957610100808354040283529160200191610be4565b820191906000526020600020905b815481529060010190602001808311610bc757829003601f168201915b5050505050905090565b6000610bf982611b2a565b610c155760405162461bcd60e51b8152600401610ac290612ff8565b506000908152600460205260409020546001600160a01b031690565b6000610c3c8261132f565b9050806001600160a01b0316836001600160a01b03161415610c705760405162461bcd60e51b8152600401610ac290613135565b806001600160a01b0316610c82611b26565b6001600160a01b03161480610c9e5750610c9e8161099c611b26565b610cba5760405162461bcd60e51b8152600401610ac290612e9c565b610cc48383611b47565b505050565b600654600160a01b900460ff1615610ce057600080fd5b610ceb601654611bb5565b6000610cf684611401565b90506000610d02611d00565b9050600a54811115610d265760405162461bcd60e51b8152600401610ac29061321c565b600b54821115610d485760405162461bcd60e51b8152600401610ac290612def565b600c54841115610d6a5760405162461bcd60e51b8152600401610ac2906131f1565b601254600d541115610d8e5760405162461bcd60e51b8152600401610ac290612c1b565b601354600e541115610db25760405162461bcd60e51b8152600401610ac290612e5a565b601454600f541115610dd65760405162461bcd60e51b8152600401610ac290612ce7565b6015546010541115610dfa5760405162461bcd60e51b8152600401610ac290613079565b610e0384611d0c565b6001600160a01b0385166000908152600960205260409020610e259082611e0f565b50604080516060810182528281526020808201878152828401878152600086815260089093529390912082518155905160018201559151600290920191909155610e6e86611e1b565b505050505050565b60195481565b600b5481565b610e93610e8d611b26565b82611e3b565b610eaf5760405162461bcd60e51b8152600401610ac2906131a0565b610cc4838383611eb8565b60175481565b6001600160a01b038116600090815260096020526040812060609190610ee590611fc4565b67ffffffffffffffff811115610f0b57634e487b7160e01b600052604160045260246000fd5b604051908082528060200260200182016040528015610f34578160200160208202803683370190505b50905060005b6001600160a01b0384166000908152600960205260409020610f5b90611fc4565b811015610fc1576001600160a01b0384166000908152600960205260409020610f849082611fcf565b828281518110610fa457634e487b7160e01b600052603260045260246000fd5b602090810291909101015280610fb98161330f565b915050610f3a565b5092915050565b6001600160a01b0382166000908152600960205260408120610fea9083611fcf565b90505b92915050565b600a5481565b60086020526000908152604090208054600182015460029092015490919083565b611022611b26565b6001600160a01b03166110336116ae565b6001600160a01b0316146110595760405162461bcd60e51b8152600401610ac290613044565b600a55565b6000611068611b26565b6001600160a01b03166110796116ae565b6001600160a01b03161461109f5760405162461bcd60e51b8152600401610ac290613044565b600654600160a01b900460ff166110b557600080fd5b6006805460ff60a01b191690556040517f7805862f689e2f13df9f062ff482ad3ad112aca9e0847911ed832e158c525b3390600090a150600190565b60006110fb611b26565b6001600160a01b031661110c6116ae565b6001600160a01b0316146111325760405162461bcd60e51b8152600401610ac290613044565b600654600160a01b900460ff161561114957600080fd5b6006805460ff60a01b1916600160a01b1790556040517f6985a02210a168e66602d3235cb6db0e70f92b3ba4d376a33c0f3d9434bff62590600090a150600190565b610cc4838383604051806020016040528060008152506118c0565b60105490565b60145490565b6111ba611b26565b6001600160a01b03166111cb6116ae565b6001600160a01b0316146111f15760405162461bcd60e51b8152600401610ac290613044565b80516112049060079060208401906126ff565b5050565b611210611b26565b6001600160a01b03166112216116ae565b6001600160a01b0316146112475760405162461bcd60e51b8152600401610ac290613044565b600c55565b6000611256611d00565b905090565b611263611b26565b6001600160a01b03166112746116ae565b6001600160a01b03161461129a5760405162461bcd60e51b8152600401610ac290613044565b6000336001600160a01b0316476040516112b390612ad5565b60006040518083038185875af1925050503d80600081146112f0576040519150601f19603f3d011682016040523d82523d6000602084013e6112f5565b606091505b50509050806113165760405162461bcd60e51b8152600401610ac290613176565b50565b600654600160a01b900460ff1681565b60125490565b6000818152600260205260408120546001600160a01b031680610a7b5760405162461bcd60e51b8152600401610ac290612f7a565b60078054611371906132d4565b80601f016020809104026020016040519081016040528092919081815260200182805461139d906132d4565b80156113ea5780601f106113bf576101008083540402835291602001916113ea565b820191906000526020600020905b8154815290600101906020018083116113cd57829003601f168201915b505050505081565b6011546001600160a01b031681565b60006001600160a01b0382166114295760405162461bcd60e51b8152600401610ac290612f30565b6001600160a01b0382166000908152600960205260409020610a7b90611fc4565b611452611b26565b6001600160a01b03166114636116ae565b6001600160a01b0316146114895760405162461bcd60e51b8152600401610ac290613044565b6006546040516000916001600160a01b0316907f8be0079c531659141344cd1fd0a4f28419497f9722a3daafe3b4186f6b6457e0908390a3600680546001600160a01b0319169055565b600b5490565b6114e1611b26565b6001600160a01b03166114f26116ae565b6001600160a01b0316146115185760405162461bcd60e51b8152600401610ac290613044565b600b55565b611525611b26565b6001600160a01b03166115366116ae565b6001600160a01b03161461155c5760405162461bcd60e51b8152600401610ac290613044565b6011546040516370a0823160e01b81526000916001600160a01b0316906370a082319061158d903090600401612ad8565b60206040518083038186803b1580156115a557600080fd5b505afa1580156115b9573d6000803e3d6000fd5b505050506040513d601f19601f820116820180604052508101906115dd9190612a62565b6011546040516323b872dd60e01b81529192506001600160a01b0316906323b872dd9061161290339030908690600401612b06565b602060405180830381600087803b15801561162c57600080fd5b505af1158015611640573d6000803e3d6000fd5b505050506040513d601f19601f8201168201806040525081019061120491906129b0565b61166c611b26565b6001600160a01b031661167d6116ae565b6001600160a01b0316146116a35760405162461bcd60e51b8152600401610ac290613044565b601555565b60165481565b6006546001600160a01b031690565b60125481565b6116cb611b26565b6001600160a01b03166116dc6116ae565b6001600160a01b0316146117025760405162461bcd60e51b8152600401610ac290613044565b601655565b606060018054610b6b906132d4565b600654600160a01b900460ff161561172d57600080fd5b600061173884611401565b90506000611744611d00565b9050600a548111156117685760405162461bcd60e51b8152600401610ac29061321c565b600b5482111561178a5760405162461bcd60e51b8152600401610ac290612def565b600c548411156117ac5760405162461bcd60e51b8152600401610ac2906131f1565b601254600d5411156117d05760405162461bcd60e51b8152600401610ac290612c1b565b601354600e5411156117f45760405162461bcd60e51b8152600401610ac290612e5a565b601454600f5411156118185760405162461bcd60e51b8152600401610ac290612ce7565b601554601054111561183c5760405162461bcd60e51b8152600401610ac290613079565b601654341015610dfa5760405162461bcd60e51b8152600401610ac29061310a565b60185481565b61120461186f611b26565b8383611fdb565b61187e611b26565b6001600160a01b031661188f6116ae565b6001600160a01b0316146118b55760405162461bcd60e51b8152600401610ac290613044565b601255565b600f5490565b6118d16118cb611b26565b83611e3b565b6118ed5760405162461bcd60e51b8152600401610ac2906131a0565b6118f98484848461207e565b50505050565b606061190a82611b2a565b6119265760405162461bcd60e51b8152600401610ac2906130bb565b60006119306120b1565b6000848152600860205260408120549192509061194c906120c0565b905060008251118015611960575060008151115b611979576040518060200160405280600081525061199c565b818160405160200161198c929190612aa6565b6040516020818303038152906040525b949350505050565b60145481565b600a5490565b600c5481565b600d5490565b600e5490565b6001600160a01b03918216600090815260056020908152604080832093909416825291909152205460ff1690565b6119f8611b26565b6001600160a01b0316611a096116ae565b6001600160a01b031614611a2f5760405162461bcd60e51b8152600401610ac290613044565b601355565b60135481565b611a42611b26565b6001600160a01b0316611a536116ae565b6001600160a01b031614611a795760405162461bcd60e51b8152600401610ac290613044565b6001600160a01b038116611a9f5760405162461bcd60e51b8152600401610ac290612c5c565b6006546040516001600160a01b038084169216907f8be0079c531659141344cd1fd0a4f28419497f9722a3daafe3b4186f6b6457e090600090a3600680546001600160a01b0319166001600160a01b0392909216919091179055565b60155490565b60135490565b600c5490565b6001600160e01b031981166301ffc9a760e01b14919050565b3390565b6000908152600260205260409020546001600160a01b0316151590565b600081815260046020526040902080546001600160a01b0319166001600160a01b0384169081179091558190611b7c8261132f565b6001600160a01b03167f8c5be1e5ebec7d5bd14f71427d1e84f3dd0314c0f7b2291e5b200ac8c7c3b92560405160405180910390a45050565b601154604051636eb1769f60e11b81526000916001600160a01b03169063dd62ed3e90611be89033903090600401612aec565b60206040518083038186803b158015611c0057600080fd5b505afa158015611c14573d6000803e3d6000fd5b505050506040513d601f19601f82011682018060405250810190611c389190612a62565b905060008211611c5a5760405162461bcd60e51b8152600401610ac290612e15565b81811015611c7a5760405162461bcd60e51b8152600401610ac290612ef9565b6011546040516323b872dd60e01b81526001600160a01b03909116906323b872dd90611cae90339030908790600401612b06565b602060405180830381600087803b158015611cc857600080fd5b505af1158015611cdc573d6000803e3d6000fd5b505050506040513d601f19601f82011682018060405250810190610cc491906129b0565b6000611256601a6121db565b80611d4b57600d80546001810182556000919091527fd7b6990105719101dabeb77144f2a3385c8033acd3af97e9423a695e81ad1eb501819055611316565b8060011415611d8e57600e80546001810182556000919091527fbb7b4a454dc3493923482f07822329ed19e8244eff582cc204f8554c3620c3fd01819055611316565b8060021415611dd157600f80546001810182556000919091527f8d1108e10bcb7c27dddfc02ed9d693a074039d026cf4ea4240b40f7d581ac80201819055611316565b806003141561131657601080546001810182556000919091527f1b6847dc741a1b0cd08d278845f9d819d87b734759afb55fe2de5cb82a9ae6720155565b6000610fea83836121df565b6000611e25611d00565b9050611e31601a612229565b6112048282612232565b6000611e4682611b2a565b611e625760405162461bcd60e51b8152600401610ac290612da3565b6000611e6d8361132f565b9050806001600160a01b0316846001600160a01b03161480611ea85750836001600160a01b0316611e9d84610bee565b6001600160a01b0316145b8061199c575061199c81856119c2565b826001600160a01b0316611ecb8261132f565b6001600160a01b031614611ef15760405162461bcd60e51b8152600401610ac290612ca2565b6001600160a01b038216611f175760405162461bcd60e51b8152600401610ac290612d28565b611f22838383610cc4565b611f2d600082611b47565b6001600160a01b0383166000908152600960205260409020611f4f908261224c565b506001600160a01b0382166000908152600960205260409020611f729082611e0f565b50611f7e838383612258565b80826001600160a01b0316846001600160a01b03167fddf252ad1be2c89b69c2b068fc378daa952ba7f163c4a11628f55a4df523b3ef60405160405180910390a4505050565b6000610a7b826121db565b6000610fea8383612385565b816001600160a01b0316836001600160a01b0316141561200d5760405162461bcd60e51b8152600401610ac290612d6c565b6001600160a01b0383811660008181526005602090815260408083209487168084529490915290819020805460ff1916851515179055517f17307eab39ab6107e8899845ad3d59bd9653f200f220920489ca2b5937696c3190612071908590612bab565b60405180910390a3505050565b612089848484611eb8565b612095848484846123bd565b6118f95760405162461bcd60e51b8152600401610ac290612bc9565b606060078054610b6b906132d4565b6060816120e557506040805180820190915260018152600360fc1b6020820152610a7e565b8160005b811561210f57806120f98161330f565b91506121089050600a8361327d565b91506120e9565b60008167ffffffffffffffff81111561213857634e487b7160e01b600052604160045260246000fd5b6040519080825280601f01601f191660200182016040528015612162576020820181803683370190505b5090505b841561199c57612177600183613291565b9150612184600a8661332a565b61218f906030613265565b60f81b8183815181106121b257634e487b7160e01b600052603260045260246000fd5b60200101906001600160f81b031916908160001a9053506121d4600a8661327d565b9450612166565b5490565b60006121eb83836124d8565b61222157508154600181810184556000848152602080822090930184905584548482528286019093526040902091909155610fed565b506000610fed565b80546001019055565b6112048282604051806020016040528060008152506124f0565b6000610fea8383612523565b826001600160a01b031661226b8261132f565b6001600160a01b0316146122915760405162461bcd60e51b8152600401610ac290612ca2565b6001600160a01b0382166122b75760405162461bcd60e51b8152600401610ac290612d28565b6122c2838383610cc4565b6122cd600082611b47565b6001600160a01b03831660009081526003602052604081208054600192906122f6908490613291565b90915550506001600160a01b0382166000908152600360205260408120805460019290612324908490613265565b909155505060008181526002602052604080822080546001600160a01b0319166001600160a01b0386811691821790925591518493918716917fddf252ad1be2c89b69c2b068fc378daa952ba7f163c4a11628f55a4df523b3ef91a4505050565b60008260000182815481106123aa57634e487b7160e01b600052603260045260246000fd5b9060005260206000200154905092915050565b60006123d1846001600160a01b0316612640565b156124cd57836001600160a01b031663150b7a026123ed611b26565b8786866040518563ffffffff1660e01b815260040161240f9493929190612b2a565b602060405180830381600087803b15801561242957600080fd5b505af1925050508015612459575060408051601f3d908101601f19168201909252612456918101906129e8565b60015b6124b3573d808015612487576040519150601f19603f3d011682016040523d82523d6000602084013e61248c565b606091505b5080516124ab5760405162461bcd60e51b8152600401610ac290612bc9565b805181602001fd5b6001600160e01b031916630a85bd0160e11b14905061199c565b506001949350505050565b60009081526001919091016020526040902054151590565b6124fa8383612646565b61250760008484846123bd565b610cc45760405162461bcd60e51b8152600401610ac290612bc9565b60008181526001830160205260408120548015612636576000612547600183613291565b855490915060009061255b90600190613291565b90508181146125dc57600086600001828154811061258957634e487b7160e01b600052603260045260246000fd5b90600052602060002001549050808760000184815481106125ba57634e487b7160e01b600052603260045260246000fd5b6000918252602080832090910192909255918252600188019052604090208390555b85548690806125fb57634e487b7160e01b600052603160045260246000fd5b600190038181906000526020600020016000905590558560010160008681526020019081526020016000206000905560019350505050610fed565b6000915050610fed565b3b151590565b6001600160a01b03821661266c5760405162461bcd60e51b8152600401610ac290612fc3565b61267860008383610cc4565b6001600160a01b03821660009081526003602052604081208054600192906126a1908490613265565b909155505060008181526002602052604080822080546001600160a01b0319166001600160a01b03861690811790915590518392907fddf252ad1be2c89b69c2b068fc378daa952ba7f163c4a11628f55a4df523b3ef908290a45050565b82805461270b906132d4565b90600052602060002090601f01602090048101928261272d5760008555612773565b82601f1061274657805160ff1916838001178555612773565b82800160010185558215612773579182015b82811115612773578251825591602001919060010190612758565b5061277f929150612783565b5090565b5b8082111561277f5760008155600101612784565b600067ffffffffffffffff808411156127b3576127b361336a565b604051601f8501601f1916810160200182811182821017156127d7576127d761336a565b6040528481529150818385018610156127ef57600080fd5b8484602083013760006020868301015250509392505050565b80356001600160a01b0381168114610a7e57600080fd5b600060208284031215612830578081fd5b610fea82612808565b6000806040838503121561284b578081fd5b61285483612808565b915061286260208401612808565b90509250929050565b60008060006060848603121561287f578081fd5b61288884612808565b925061289660208501612808565b9150604084013590509250925092565b600080600080608085870312156128bb578081fd5b6128c485612808565b93506128d260208601612808565b925060408501359150606085013567ffffffffffffffff8111156128f4578182fd5b8501601f81018713612904578182fd5b61291387823560208401612798565b91505092959194509250565b60008060408385031215612931578182fd5b61293a83612808565b9150602083013561294a81613380565b809150509250929050565b60008060408385031215612967578182fd5b61297083612808565b946020939093013593505050565b600080600060608486031215612992578283fd5b61299b84612808565b95602085013595506040909401359392505050565b6000602082840312156129c1578081fd5b8151610b5581613380565b6000602082840312156129dd578081fd5b8135610b558161338e565b6000602082840312156129f9578081fd5b8151610b558161338e565b600060208284031215612a15578081fd5b813567ffffffffffffffff811115612a2b578182fd5b8201601f81018413612a3b578182fd5b61199c84823560208401612798565b600060208284031215612a5b578081fd5b5035919050565b600060208284031215612a73578081fd5b5051919050565b60008151808452612a928160208601602086016132a8565b601f01601f19169290920160200192915050565b60008351612ab88184602088016132a8565b835190830190612acc8183602088016132a8565b01949350505050565b90565b6001600160a01b0391909116815260200190565b6001600160a01b0392831681529116602082015260400190565b6001600160a01b039384168152919092166020820152604081019190915260600190565b6001600160a01b0385811682528416602082015260408101839052608060608201819052600090612b5d90830184612a7a565b9695505050505050565b6020808252825182820181905260009190848201906040850190845b81811015612b9f57835183529284019291840191600101612b83565b50909695505050505050565b901515815260200190565b600060208252610fea6020830184612a7a565b60208082526032908201527f4552433732313a207472616e7366657220746f206e6f6e20455243373231526560408201527131b2b4bb32b91034b6b83632b6b2b73a32b960711b606082015260800190565b60208082526021908201527f7961206e6f73656565207075656465206d696e7465617220726f626f743021216040820152602160f81b606082015260800190565b60208082526026908201527f4f776e61626c653a206e6577206f776e657220697320746865207a65726f206160408201526564647265737360d01b606082015260800190565b60208082526025908201527f4552433732313a207472616e736665722066726f6d20696e636f72726563742060408201526437bbb732b960d91b606082015260800190565b60208082526021908201527f7961206e6f73656565207075656465206d696e7465617220726f626f743032216040820152602160f81b606082015260800190565b60208082526024908201527f4552433732313a207472616e7366657220746f20746865207a65726f206164646040820152637265737360e01b606082015260800190565b60208082526019908201527f4552433732313a20617070726f766520746f2063616c6c657200000000000000604082015260600190565b6020808252602c908201527f4552433732313a206f70657261746f7220717565727920666f72206e6f6e657860408201526b34b9ba32b73a103a37b5b2b760a11b606082015260800190565b6020808252600c908201526b686179206d6173206465203560a01b604082015260600190565b60208082526025908201527f596f75206e65656420746f2073656c6c206174206c6561737420736f6d6520746040820152646f6b656e7360d81b606082015260800190565b60208082526022908201527f7961206e6f73656565207075656465206d696e7465617220726f626f74303121604082015261212160f01b606082015260800190565b60208082526038908201527f4552433732313a20617070726f76652063616c6c6572206973206e6f74206f7760408201527f6e6572206e6f7220617070726f76656420666f7220616c6c0000000000000000606082015260800190565b60208082526019908201527f436865636b2074686520746f6b656e20616c6c6f77616e636500000000000000604082015260600190565b6020808252602a908201527f4552433732313a2062616c616e636520717565727920666f7220746865207a65604082015269726f206164647265737360b01b606082015260800190565b60208082526029908201527f4552433732313a206f776e657220717565727920666f72206e6f6e657869737460408201526832b73a103a37b5b2b760b91b606082015260800190565b6020808252818101527f4552433732313a206d696e7420746f20746865207a65726f2061646472657373604082015260600190565b6020808252602c908201527f4552433732313a20617070726f76656420717565727920666f72206e6f6e657860408201526b34b9ba32b73a103a37b5b2b760a11b606082015260800190565b6020808252818101527f4f776e61626c653a2063616c6c6572206973206e6f7420746865206f776e6572604082015260600190565b60208082526022908201527f7961206e6f73656565207075656465206d696e7465617220726f626f74303321604082015261212160f01b606082015260800190565b6020808252602f908201527f4552433732314d657461646174613a2055524920717565727920666f72206e6f60408201526e3732bc34b9ba32b73a103a37b5b2b760891b606082015260800190565b60208082526011908201527056616c75652062656c6f7720707269636560781b604082015260600190565b60208082526021908201527f4552433732313a20617070726f76616c20746f2063757272656e74206f776e656040820152603960f91b606082015260800190565b60208082526010908201526f2a3930b739b332b9103330b4b632b21760811b604082015260600190565b60208082526031908201527f4552433732313a207472616e736665722063616c6c6572206973206e6f74206f6040820152701ddb995c881b9bdc88185c1c1c9bdd9959607a1b606082015260800190565b6020808252601190820152701b9bc81cd9481c1d595919481b5a5b9d1d607a1b604082015260600190565b60208082526010908201526f0686179206d61732064652031303030360841b604082015260600190565b90815260200190565b9283526020830191909152604082015260600190565b600082198211156132785761327861333e565b500190565b60008261328c5761328c613354565b500490565b6000828210156132a3576132a361333e565b500390565b60005b838110156132c35781810151838201526020016132ab565b838111156118f95750506000910152565b6002810460018216806132e857607f821691505b6020821081141561330957634e487b7160e01b600052602260045260246000fd5b50919050565b60006000198214156133235761332361333e565b5060010190565b60008261333957613339613354565b500690565b634e487b7160e01b600052601160045260246000fd5b634e487b7160e01b600052601260045260246000fd5b634e487b7160e01b600052604160045260246000fd5b801515811461131657600080fd5b6001600160e01b03198116811461131657600080fdfea2646970667358221220716a295e2fad131cbe5d8bab026f6b5b5c2302eec192122812e46c686e01dad764736f6c63430008000033",
  "immutableReferences": {},
  "source": "// SPDX-License-Identifier: MIT\r\npragma solidity ^0.8.0;\r\npragma experimental ABIEncoderV2;\r\n\r\nimport \"../lib/@openzeppelin/contracts/token/ERC721/ERC721.sol\";\r\nimport \"../lib/@openzeppelin/contracts/access/Ownable.sol\";\r\nimport \"../lib/@openzeppelin/contracts/access/Pausable.sol\";\r\nimport \"../lib/@openzeppelin/contracts/utils/Counters.sol\";\r\nimport \"../lib/@openzeppelin/contracts/utils/Context.sol\";\r\nimport \"../lib/@openzeppelin/contracts/utils/Address.sol\";\r\nimport \"../lib/@openzeppelin/contracts/utils/EnumerableSet.sol\";\r\nimport \"../lib/@openzeppelin/contracts/utils/Strings.sol\";\r\n\r\ninterface IERC20 {\r\n    function balanceOf(address owner) external view returns (uint);\r\n    function allowance(address owner, address spender) external view returns (uint);\r\n\r\n    function approve(address spender, uint value) external returns (bool);\r\n    function transfer(address to, uint value) external returns (bool);\r\n    function transferFrom(address from, address to, uint value) external returns (bool);\r\n}\r\n\r\n\r\ncontract NFTERC721 is ERC721, Ownable, Pausable {\r\n\r\n    using EnumerableSet for EnumerableSet.UintSet;\r\n    using Strings for uint256;\r\n\r\n\r\n    string public baseURI;\r\n\r\n    mapping(uint256 => NFTId) public nftID;\r\n\r\n    mapping(address => EnumerableSet.UintSet) private _tokenId;\r\n    \r\n    \r\n    uint256 public MAX_SUPPLY = 399;\r\n    uint256 public MAX_SUPPLY_BALANCE = 3;\r\n    uint256 public maxNumero = 3;\r\n\r\n\r\n    \r\n    uint256 []  robot0;\r\n    uint256 []  robot1;\r\n    uint256 []  robot2;\r\n    uint256 []  robot3;\r\n\r\n    address public tokenReward;\r\n\r\n    uint256  public robot0Max = 0;\r\n    uint256  public robot1Max = 0;\r\n    uint256  public robot2Max = 0;\r\n    uint256  public robot3Max = 399;\r\n\r\n\r\n    struct NFTId {\r\n        uint256 id;\r\n        uint256 numero;\r\n        uint256 pool;\r\n    }\r\n\r\n    uint256 public PRICE = 0.02 ether ;\r\n\r\n    uint256 public PRICE1 = 0.04 ether;\r\n\r\n    uint256 public PRICE2 = 0.06 ether;\r\n\r\n    uint256 public PRICE3 = 0.12 ether;\r\n\r\n    using Counters for Counters.Counter;\r\n    Counters.Counter private _tokenIdTracker;\r\n\r\n\r\n\r\n\r\n  \r\n\r\n    constructor(string memory _name, string memory _symbol, address _tokenReward)\r\n        ERC721(_name, _symbol)  {  \r\n             baseURI = \"https://ipfs.io/ipfs/\";\r\n             tokenReward = _tokenReward;\r\n    }\r\n\r\n\r\n\r\n  \r\n//BALANCE \r\n    function balanceOf(address owner) public view virtual override returns (uint256) {\r\n        require(owner != address(0), \"ERC721: balance query for the zero address\");\r\n        return _tokenId[owner].length();\r\n    }\r\n\r\n//ID NFT\r\n    function tokenOfOwner(address owner) public view  returns (uint256[] memory) {\r\n        uint256[] memory tokens = new uint256[](_tokenId[owner].length());\r\n        for(uint i=0; i<_tokenId[owner].length(); i++) {\r\n            tokens[i] = _tokenId[owner].at(i);\r\n        }\r\n        return tokens;\r\n    }\r\n\r\n//ID NFT\r\n   function tokenOfOwnerByIndex(address owner, uint256 index) public view  returns (uint256) {\r\n        return _tokenId[owner].at(index);\r\n    }\r\n\r\n    \r\n\r\n\r\n//PAGO TOKEN\r\n    function _pagoTOken (uint256 amount ) internal  {\r\n        uint256 allowance = IERC20(tokenReward).allowance(msg.sender, address(this));\r\n        require(amount > 0, \"You need to sell at least some tokens\");\r\n        require(allowance >= amount, \"Check the token allowance\");\r\n        IERC20(tokenReward).transferFrom(msg.sender, address(this), amount);\r\n    }\r\n\r\n\r\n\r\n\r\n//GUARDAR ROBOTS!!!\r\n    function _guardarRobots(uint256 _numero) internal {\r\n        if(_numero == 0){\r\n            robot0.push(_numero);\r\n        }else if(_numero == 1){\r\n            robot1.push(_numero);\r\n        }else if(_numero == 2){\r\n            robot2.push(_numero);\r\n        }else if(_numero == 3){\r\n            robot3.push(_numero);\r\n        }\r\n\r\n    }\r\n\r\n//MINT PAGO EN BNB\r\n    function mint2(address _to,  uint256 _numero, uint256 _pool) public whenNotPaused payable {\r\n        uint balance = balanceOf(_to);\r\n        uint256 id = _totalSupply();\r\n        require(id <= MAX_SUPPLY, \"hay mas de 10000\");\r\n        require(balance <= MAX_SUPPLY_BALANCE, \"hay mas de 5\");\r\n        require(_numero <= maxNumero, \"no se puede mintt\");\r\n        require(robot0.length <= robot0Max ,\"ya noseee puede mintear robot0!!!\");\r\n        require(robot1.length <= robot1Max ,\"ya noseee puede mintear robot01!!!\");\r\n        require(robot2.length <= robot2Max ,\"ya noseee puede mintear robot02!!\");\r\n        require(robot3.length <= robot3Max ,\"ya noseee puede mintear robot03!!!\");\r\n        require(msg.value >= PRICE, \"Value below price\");\r\n\r\n        _guardarRobots(_numero);\r\n        \r\n       \r\n\r\n            //se guardan los ID\r\n            _tokenId[_to].add(id);\r\n\r\n            //se guardan los numeros\r\n\r\n            NFTId memory newNFT = NFTId(\r\n                id,\r\n                _numero,\r\n                _pool\r\n            );\r\n\r\n            nftID[id] = newNFT;\r\n \r\n\r\n         _mintAnElement(_to);\r\n    }\r\n\r\n    function balanceToken (address _to) public view returns(uint256) {\r\n        uint balanceTokenErc = IERC20(tokenReward).balanceOf(_to);\r\n        return balanceTokenErc;\r\n    }\r\n\r\n //MINT       \r\n    function mint(address _to,  uint256 _numero, uint256 _pool ) public whenNotPaused  {\r\n        _pagoTOken(PRICE);\r\n        uint balance = balanceOf(_to);\r\n        uint256 id = _totalSupply();\r\n        require(id <= MAX_SUPPLY, \"hay mas de 10000\");\r\n        require(balance <= MAX_SUPPLY_BALANCE, \"hay mas de 5\");\r\n        require(_numero <= maxNumero, \"no se puede mintt\");\r\n        require(robot0.length <= robot0Max ,\"ya noseee puede mintear robot0!!!\");\r\n        require(robot1.length <= robot1Max ,\"ya noseee puede mintear robot01!!!\");\r\n        require(robot2.length <= robot2Max ,\"ya noseee puede mintear robot02!!\");\r\n        require(robot3.length <= robot3Max ,\"ya noseee puede mintear robot03!!!\");\r\n       // uint256 balanceToken = IERC20(tokenReward).balanceOf(_to);\r\n        //require(balanceToken <= PRICE, \"no te alcanzaaaaa rataaaa!!!\");\r\n       // require(IERC20(tokenReward).transferFrom(msg.sender, address(this), PRICE));\r\n\r\n        _guardarRobots(_numero);\r\n        \r\n       \r\n\r\n            //se guardan los ID\r\n            _tokenId[_to].add(id);\r\n\r\n            //se guardan los numeros\r\n\r\n            NFTId memory newNFT = NFTId(\r\n                id,\r\n                _numero,\r\n                _pool\r\n            );\r\n\r\n            nftID[id] = newNFT;\r\n \r\n\r\n         _mintAnElement(_to);\r\n    }\r\n\r\n\r\n\r\n//URL COMPLETA DEL API DEL NFT\r\n        function tokenURI(uint256 tokenId) public view virtual override  returns (string memory) {\r\n        require(_exists(tokenId), \"ERC721Metadata: URI query for nonexistent token\");\r\n        string memory currentBaseURI = _baseURI();\r\n        string memory apiUri = nftID[tokenId].id.toString();\r\n        return\r\n            (bytes(currentBaseURI).length > 0 &&\r\n                bytes(apiUri).length > 0)\r\n                ? string(abi.encodePacked(currentBaseURI,apiUri))\r\n                : \"\";\r\n    }\r\n\r\n//CANTIDAD MINT ROBOT 0\r\n    function returnRobot0() public view returns(uint256){\r\n        uint256 x = robot0.length;\r\n        return x ;\r\n    }\r\n//CANTIDAD MINT ROBOT 1\r\n    function returnRobot1() public view returns(uint256){\r\n        uint256 x = robot1.length;\r\n        return x ;\r\n    }\r\n//CANTIDAD MINT ROBOT 2\r\n    function returnRobot2() public view returns(uint256){\r\n        uint256 x = robot2.length;\r\n        return x ;\r\n    }\r\n//CANTIDAD MINT ROBOT 3\r\n    function returnRobot3() public view returns(uint256){\r\n        uint256 x = robot3.length;\r\n        return x ;\r\n    } \r\n\r\n//SET DE ROBOT 0\r\n  function setRobot0(uint _robot) public onlyOwner {\r\n         robot0Max = _robot; \r\n    }\r\n\r\n//SET DE ROBOT 1\r\n    function setRobot1(uint _robot) public onlyOwner {\r\n         robot1Max = _robot; \r\n    }\r\n//SET DE ROBOT 2\r\n    function setRobot2(uint _robot) public onlyOwner {\r\n         robot2Max = _robot; \r\n    }\r\n//SET DE ROBOT 3\r\n   function setRobot3(uint _robot) public onlyOwner {\r\n         robot3Max = _robot; \r\n    }  \r\n\r\n//RETURN ROBOT 0\r\n\r\n    function  robot0Supply() public view returns (uint256) {\r\n        return robot0Max;\r\n    }\r\n//RETURN ROBOT 1\r\n    function  robot1Supply() public view returns (uint256) {\r\n        return robot1Max;\r\n    }  \r\n\r\n//RETURN ROBOT 2   \r\n    function  robot2Supply() public view returns (uint256) {\r\n        return robot2Max;\r\n    }\r\n//RETURN ROBOT 3    \r\n    function  robot3Supply() public view returns (uint256) {\r\n        return robot3Max;\r\n    }\r\n\r\n//SET DE PRECIO  \r\n    function setPrice(uint _precio) public onlyOwner {\r\n         PRICE = _precio; \r\n    }\r\n\r\n//SET DE SUPPLY MAXIMO\r\n    function setSupply(uint _supply) public onlyOwner {\r\n         MAX_SUPPLY = _supply; \r\n    }\r\n\r\n//SET DE SUPPLY DE BALANCE\r\n    function setSupplyBalance(uint _supply) public onlyOwner {\r\n         MAX_SUPPLY_BALANCE = _supply; \r\n    }\r\n\r\n//SETO DE NUMERO DE MINT HASH\r\n    function setNumero(uint numero) public onlyOwner {\r\n         maxNumero = numero; \r\n    }\r\n\r\n//RETURN MAXIMO DE MINTEO \r\n    function  maxSupply() public view returns (uint256) {\r\n        return MAX_SUPPLY;\r\n    }\r\n\r\n//RETURN MAXIMO DE NFT POR CUENTA\r\n    function  maxBalance() public view returns (uint256) {\r\n        return MAX_SUPPLY_BALANCE;\r\n    }\r\n\r\n//RETURN NUMERO DE HASH\r\n    function  maxNumeros() public view returns (uint256) {\r\n        return maxNumero;\r\n    }\r\n\r\n//TOTAL SUPPLY PUBLIC \r\n    function totalMint() public view returns (uint256) {\r\n        return _totalSupply();\r\n    }\r\n\r\n//TOTAL SUPPLY INTERNAL \r\n    function _totalSupply() internal view returns (uint) {\r\n        return _tokenIdTracker.current();\r\n    }\r\n\r\n\r\n\r\n//MINT ELEMENT\r\n    function _mintAnElement(address _to) private {\r\n        uint id = _totalSupply();\r\n        _tokenIdTracker.increment();\r\n        _safeMint(_to, id);\r\n    }\r\n\r\n//RETURN BASE URI\r\n    function _baseURI() internal view virtual override returns (string memory) {\r\n        return baseURI;\r\n    }\r\n\r\n//SET BASE URI\r\n    function setBaseURI(string memory _newBaseURI) public onlyOwner {\r\n        baseURI = _newBaseURI;\r\n    }\r\n\r\n//RETIRAR FONDOS\r\n    function withdrawAll() external  onlyOwner {\r\n        uint256 balance = IERC20(tokenReward).balanceOf(address(this));\r\n         IERC20(tokenReward).transferFrom(msg.sender, address(this), balance);\r\n\r\n    }   \r\n    function withdrawAllBNB() external  onlyOwner {\r\n        (bool success, ) = msg.sender.call{value:address(this).balance}(\"\");\r\n        require(success, \"Transfer failed.\");\r\n\r\n    }   \r\n\r\n//PAUSE\r\n\r\n    function pause() external onlyOwner whenNotPaused  override returns (bool) {\r\n        paused = true;\r\n        emit Pause();\r\n        return true;\r\n     }\r\n\r\n//UN PAUSE\r\n    function unpause() external onlyOwner whenPaused override returns (bool) {\r\n        paused = false;\r\n        emit Unpause();\r\n        return true;\r\n  }\r\n\r\n//TRANSFER INTERNO\r\nfunction _transfer(address from, address to, uint256 tokenId ) internal virtual override {\r\n        require(ERC721.ownerOf(tokenId) == from, \"ERC721: transfer from incorrect owner\");\r\n        require(to != address(0), \"ERC721: transfer to the zero address\");\r\n\r\n        _beforeTokenTransfer(from, to, tokenId);\r\n\r\n        // Clear approvals from the previous owner\r\n        _approve(address(0), tokenId);\r\n\r\n        _tokenId[from].remove(tokenId);\r\n        _tokenId[to].add(tokenId);\r\n\r\n        super._transfer(from, to, tokenId);\r\n\r\n        emit Transfer(from, to, tokenId);\r\n    }\r\n\r\n \r\n\r\n}\r\n",
  "sourcePath": "C:\\Users\\Hp Omen\\Desktop\\ERIX-GALAXY\\SMART-CONTRAC-ERISGALAXI\\contracts\\NFTERC721.sol",
  "compiler": {
    "name": "solc",
    "version": "0.8.0+commit.c7dfd78e.Emscripten.clang"
  },
  "schemaVersion": "3.4.3",
  "updatedAt": "2022-04-19T23:39:32.536Z",
  "devdoc": {
    "kind": "dev",
    "methods": {
      "approve(address,uint256)": {
        "details": "See {IERC721-approve}."
      },
      "balanceOf(address)": {
        "details": "See {IERC721-balanceOf}."
      },
      "getApproved(uint256)": {
        "details": "See {IERC721-getApproved}."
      },
      "isApprovedForAll(address,address)": {
        "details": "See {IERC721-isApprovedForAll}."
      },
      "name()": {
        "details": "See {IERC721Metadata-name}."
      },
      "owner()": {
        "details": "Returns the address of the current owner."
      },
      "ownerOf(uint256)": {
        "details": "See {IERC721-ownerOf}."
      },
      "pause()": {
        "details": "called by the owner to pause, triggers stopped state"
      },
      "renounceOwnership()": {
        "details": "Leaves the contract without owner. It will not be possible to call `onlyOwner` functions anymore. Can only be called by the current owner. NOTE: Renouncing ownership will leave the contract without an owner, thereby removing any functionality that is only available to the owner."
      },
      "safeTransferFrom(address,address,uint256)": {
        "details": "See {IERC721-safeTransferFrom}."
      },
      "safeTransferFrom(address,address,uint256,bytes)": {
        "details": "See {IERC721-safeTransferFrom}."
      },
      "setApprovalForAll(address,bool)": {
        "details": "See {IERC721-setApprovalForAll}."
      },
      "supportsInterface(bytes4)": {
        "details": "See {IERC165-supportsInterface}."
      },
      "symbol()": {
        "details": "See {IERC721Metadata-symbol}."
      },
      "tokenURI(uint256)": {
        "details": "See {IERC721Metadata-tokenURI}."
      },
      "transferFrom(address,address,uint256)": {
        "details": "See {IERC721-transferFrom}."
      },
      "transferOwnership(address)": {
        "details": "Transfers ownership of the contract to a new account (`newOwner`). Can only be called by the current owner."
      },
      "unpause()": {
        "details": "called by the owner to unpause, returns to normal state"
      },
      "unpauseStake()": {
        "details": "called by the owner to unpause, returns to normal state"
      }
    },
    "version": 1
  },
  "userdoc": {
    "kind": "user",
    "methods": {},
    "version": 1
  }
}