{
  "contractName": "NFTStake",
  "abi": [
    {
      "inputs": [],
      "stateMutability": "nonpayable",
      "type": "constructor"
    },
    {
      "anonymous": false,
      "inputs": [
        {
          "indexed": false,
          "internalType": "uint256",
          "name": "pid",
          "type": "uint256"
        },
        {
          "indexed": false,
          "internalType": "uint256[]",
          "name": "tokenIds",
          "type": "uint256[]"
        },
        {
          "indexed": false,
          "internalType": "uint256",
          "name": "_total",
          "type": "uint256"
        }
      ],
      "name": "Claimed",
      "type": "event"
    },
    {
      "anonymous": false,
      "inputs": [
        {
          "indexed": true,
          "internalType": "address",
          "name": "previousOwner",
          "type": "address"
        },
        {
          "indexed": true,
          "internalType": "address",
          "name": "newOwner",
          "type": "address"
        }
      ],
      "name": "OwnershipTransferred",
      "type": "event"
    },
    {
      "anonymous": false,
      "inputs": [],
      "name": "Pause",
      "type": "event"
    },
    {
      "anonymous": false,
      "inputs": [
        {
          "indexed": false,
          "internalType": "uint256",
          "name": "pid",
          "type": "uint256"
        },
        {
          "indexed": false,
          "internalType": "address",
          "name": "nftContract",
          "type": "address"
        },
        {
          "indexed": false,
          "internalType": "address",
          "name": "rewardContract",
          "type": "address"
        },
        {
          "indexed": false,
          "internalType": "uint256",
          "name": "rewardSupply",
          "type": "uint256"
        },
        {
          "indexed": false,
          "internalType": "uint256",
          "name": "cycle",
          "type": "uint256"
        },
        {
          "indexed": false,
          "internalType": "uint256",
          "name": "rewardPerCycle",
          "type": "uint256"
        },
        {
          "indexed": false,
          "internalType": "uint256",
          "name": "maxCycles",
          "type": "uint256"
        },
        {
          "indexed": false,
          "internalType": "uint256",
          "name": "endingDate",
          "type": "uint256"
        },
        {
          "indexed": false,
          "internalType": "bool",
          "name": "isActive",
          "type": "bool"
        },
        {
          "indexed": false,
          "internalType": "address",
          "name": "multiplierSigner",
          "type": "address"
        },
        {
          "indexed": false,
          "internalType": "uint256",
          "name": "maxStakePerWallet",
          "type": "uint256"
        }
      ],
      "name": "PoolCreated",
      "type": "event"
    },
    {
      "anonymous": false,
      "inputs": [
        {
          "indexed": false,
          "internalType": "uint256",
          "name": "pid",
          "type": "uint256"
        }
      ],
      "name": "PoolEnded",
      "type": "event"
    },
    {
      "anonymous": false,
      "inputs": [
        {
          "indexed": false,
          "internalType": "uint256",
          "name": "pid",
          "type": "uint256"
        },
        {
          "indexed": false,
          "internalType": "uint256[]",
          "name": "tokenIds",
          "type": "uint256[]"
        }
      ],
      "name": "Staked",
      "type": "event"
    },
    {
      "anonymous": false,
      "inputs": [
        {
          "indexed": false,
          "internalType": "uint256",
          "name": "pid",
          "type": "uint256"
        },
        {
          "indexed": false,
          "internalType": "uint256[]",
          "name": "tokenIds",
          "type": "uint256[]"
        }
      ],
      "name": "UnStaked",
      "type": "event"
    },
    {
      "anonymous": false,
      "inputs": [],
      "name": "Unpause",
      "type": "event"
    },
    {
      "inputs": [
        {
          "internalType": "uint256",
          "name": "",
          "type": "uint256"
        },
        {
          "internalType": "address",
          "name": "",
          "type": "address"
        }
      ],
      "name": "ActiveStakes",
      "outputs": [
        {
          "internalType": "uint256",
          "name": "",
          "type": "uint256"
        }
      ],
      "stateMutability": "view",
      "type": "function",
      "constant": true
    },
    {
      "inputs": [
        {
          "internalType": "uint256",
          "name": "",
          "type": "uint256"
        }
      ],
      "name": "ClaimedPoolRewards",
      "outputs": [
        {
          "internalType": "uint256",
          "name": "",
          "type": "uint256"
        }
      ],
      "stateMutability": "view",
      "type": "function",
      "constant": true
    },
    {
      "inputs": [
        {
          "internalType": "uint256",
          "name": "",
          "type": "uint256"
        }
      ],
      "name": "Pools",
      "outputs": [
        {
          "internalType": "contract IERC721",
          "name": "nftContract",
          "type": "address"
        },
        {
          "internalType": "contract ERC20",
          "name": "rewardContract",
          "type": "address"
        },
        {
          "internalType": "uint256",
          "name": "rewardSupply",
          "type": "uint256"
        },
        {
          "internalType": "uint256",
          "name": "cycle",
          "type": "uint256"
        },
        {
          "internalType": "uint256",
          "name": "rewardPerCycle",
          "type": "uint256"
        },
        {
          "internalType": "uint256",
          "name": "maxCycles",
          "type": "uint256"
        },
        {
          "internalType": "uint256",
          "name": "endingDate",
          "type": "uint256"
        },
        {
          "internalType": "bool",
          "name": "isActive",
          "type": "bool"
        },
        {
          "internalType": "address",
          "name": "multiplierSigner",
          "type": "address"
        },
        {
          "internalType": "uint256",
          "name": "maxStakePerWallet",
          "type": "uint256"
        }
      ],
      "stateMutability": "view",
      "type": "function",
      "constant": true
    },
    {
      "inputs": [
        {
          "internalType": "uint256",
          "name": "",
          "type": "uint256"
        },
        {
          "internalType": "uint256",
          "name": "",
          "type": "uint256"
        }
      ],
      "name": "Stakes",
      "outputs": [
        {
          "internalType": "uint256",
          "name": "poolId",
          "type": "uint256"
        },
        {
          "internalType": "address",
          "name": "beneficiary",
          "type": "address"
        },
        {
          "internalType": "uint256",
          "name": "startTime",
          "type": "uint256"
        },
        {
          "internalType": "contract IERC721",
          "name": "nftContract",
          "type": "address"
        },
        {
          "internalType": "uint256",
          "name": "tokenId",
          "type": "uint256"
        },
        {
          "internalType": "uint256",
          "name": "claimedTokens",
          "type": "uint256"
        },
        {
          "internalType": "uint256",
          "name": "lastCycle",
          "type": "uint256"
        },
        {
          "internalType": "bool",
          "name": "isActive",
          "type": "bool"
        }
      ],
      "stateMutability": "view",
      "type": "function",
      "constant": true
    },
    {
      "inputs": [],
      "name": "currentPoolId",
      "outputs": [
        {
          "internalType": "uint256",
          "name": "",
          "type": "uint256"
        }
      ],
      "stateMutability": "view",
      "type": "function",
      "constant": true
    },
    {
      "inputs": [],
      "name": "nftContract",
      "outputs": [
        {
          "internalType": "contract IERC721",
          "name": "",
          "type": "address"
        }
      ],
      "stateMutability": "view",
      "type": "function",
      "constant": true
    },
    {
      "inputs": [],
      "name": "owner",
      "outputs": [
        {
          "internalType": "address",
          "name": "",
          "type": "address"
        }
      ],
      "stateMutability": "view",
      "type": "function",
      "constant": true
    },
    {
      "inputs": [],
      "name": "paused",
      "outputs": [
        {
          "internalType": "bool",
          "name": "",
          "type": "bool"
        }
      ],
      "stateMutability": "view",
      "type": "function",
      "constant": true
    },
    {
      "inputs": [],
      "name": "renounceOwnership",
      "outputs": [],
      "stateMutability": "nonpayable",
      "type": "function"
    },
    {
      "inputs": [],
      "name": "rewardContract",
      "outputs": [
        {
          "internalType": "contract ERC20",
          "name": "",
          "type": "address"
        }
      ],
      "stateMutability": "view",
      "type": "function",
      "constant": true
    },
    {
      "inputs": [
        {
          "internalType": "bytes4",
          "name": "interfaceId",
          "type": "bytes4"
        }
      ],
      "name": "supportsInterface",
      "outputs": [
        {
          "internalType": "bool",
          "name": "",
          "type": "bool"
        }
      ],
      "stateMutability": "view",
      "type": "function",
      "constant": true
    },
    {
      "inputs": [
        {
          "internalType": "address",
          "name": "newOwner",
          "type": "address"
        }
      ],
      "name": "transferOwnership",
      "outputs": [],
      "stateMutability": "nonpayable",
      "type": "function"
    },
    {
      "inputs": [
        {
          "components": [
            {
              "internalType": "contract IERC721",
              "name": "nftContract",
              "type": "address"
            },
            {
              "internalType": "contract ERC20",
              "name": "rewardContract",
              "type": "address"
            },
            {
              "internalType": "uint256",
              "name": "rewardSupply",
              "type": "uint256"
            },
            {
              "internalType": "uint256",
              "name": "cycle",
              "type": "uint256"
            },
            {
              "internalType": "uint256",
              "name": "rewardPerCycle",
              "type": "uint256"
            },
            {
              "internalType": "uint256",
              "name": "maxCycles",
              "type": "uint256"
            },
            {
              "internalType": "uint256",
              "name": "endingDate",
              "type": "uint256"
            },
            {
              "internalType": "bool",
              "name": "isActive",
              "type": "bool"
            },
            {
              "internalType": "address",
              "name": "multiplierSigner",
              "type": "address"
            },
            {
              "internalType": "uint256",
              "name": "maxStakePerWallet",
              "type": "uint256"
            }
          ],
          "internalType": "struct NFTStake.NFTPool",
          "name": "_pool",
          "type": "tuple"
        }
      ],
      "name": "createPool",
      "outputs": [],
      "stateMutability": "nonpayable",
      "type": "function"
    },
    {
      "inputs": [
        {
          "internalType": "uint256",
          "name": "pid",
          "type": "uint256"
        },
        {
          "internalType": "uint256",
          "name": "endingDate",
          "type": "uint256"
        },
        {
          "internalType": "uint256",
          "name": "maxCycles",
          "type": "uint256"
        },
        {
          "internalType": "uint256",
          "name": "rewardSupply",
          "type": "uint256"
        }
      ],
      "name": "updatePool",
      "outputs": [],
      "stateMutability": "nonpayable",
      "type": "function"
    },
    {
      "inputs": [
        {
          "internalType": "uint256",
          "name": "pid",
          "type": "uint256"
        }
      ],
      "name": "endPool",
      "outputs": [],
      "stateMutability": "nonpayable",
      "type": "function"
    },
    {
      "inputs": [
        {
          "internalType": "uint256",
          "name": "pid",
          "type": "uint256"
        },
        {
          "internalType": "uint256[]",
          "name": "tokenIds",
          "type": "uint256[]"
        }
      ],
      "name": "enterStaking",
      "outputs": [],
      "stateMutability": "nonpayable",
      "type": "function"
    },
    {
      "inputs": [
        {
          "internalType": "uint256",
          "name": "pid",
          "type": "uint256"
        },
        {
          "internalType": "uint256[]",
          "name": "tokenIds",
          "type": "uint256[]"
        }
      ],
      "name": "leaveStaking",
      "outputs": [],
      "stateMutability": "nonpayable",
      "type": "function"
    },
    {
      "inputs": [
        {
          "internalType": "uint256",
          "name": "pid",
          "type": "uint256"
        },
        {
          "internalType": "uint256[]",
          "name": "tokenIds",
          "type": "uint256[]"
        }
      ],
      "name": "unStakeWithoutRewards",
      "outputs": [],
      "stateMutability": "nonpayable",
      "type": "function"
    },
    {
      "inputs": [
        {
          "internalType": "uint256",
          "name": "pid",
          "type": "uint256"
        },
        {
          "internalType": "uint256[]",
          "name": "tokenIds",
          "type": "uint256[]"
        }
      ],
      "name": "claimRewards",
      "outputs": [],
      "stateMutability": "nonpayable",
      "type": "function"
    },
    {
      "inputs": [
        {
          "internalType": "uint256",
          "name": "pid",
          "type": "uint256"
        },
        {
          "internalType": "address",
          "name": "account",
          "type": "address"
        }
      ],
      "name": "activeTokensOf",
      "outputs": [
        {
          "internalType": "uint256[]",
          "name": "",
          "type": "uint256[]"
        }
      ],
      "stateMutability": "view",
      "type": "function",
      "constant": true
    },
    {
      "inputs": [
        {
          "internalType": "uint256",
          "name": "pid",
          "type": "uint256"
        },
        {
          "internalType": "uint256[]",
          "name": "tokenIds",
          "type": "uint256[]"
        }
      ],
      "name": "calculateRewards",
      "outputs": [
        {
          "internalType": "uint256",
          "name": "",
          "type": "uint256"
        }
      ],
      "stateMutability": "view",
      "type": "function",
      "constant": true
    },
    {
      "inputs": [
        {
          "internalType": "uint256",
          "name": "pid",
          "type": "uint256"
        },
        {
          "internalType": "uint256[]",
          "name": "tokenIds",
          "type": "uint256[]"
        }
      ],
      "name": "getStakes",
      "outputs": [
        {
          "components": [
            {
              "internalType": "uint256",
              "name": "poolId",
              "type": "uint256"
            },
            {
              "internalType": "address",
              "name": "beneficiary",
              "type": "address"
            },
            {
              "internalType": "uint256",
              "name": "startTime",
              "type": "uint256"
            },
            {
              "internalType": "contract IERC721",
              "name": "nftContract",
              "type": "address"
            },
            {
              "internalType": "uint256",
              "name": "tokenId",
              "type": "uint256"
            },
            {
              "internalType": "uint256",
              "name": "claimedTokens",
              "type": "uint256"
            },
            {
              "internalType": "uint256",
              "name": "lastCycle",
              "type": "uint256"
            },
            {
              "internalType": "bool",
              "name": "isActive",
              "type": "bool"
            }
          ],
          "internalType": "struct NFTStake.Stake[]",
          "name": "",
          "type": "tuple[]"
        }
      ],
      "stateMutability": "view",
      "type": "function",
      "constant": true
    },
    {
      "inputs": [
        {
          "internalType": "uint256",
          "name": "pid",
          "type": "uint256"
        },
        {
          "internalType": "address",
          "name": "owner",
          "type": "address"
        },
        {
          "internalType": "uint256",
          "name": "idx",
          "type": "uint256"
        }
      ],
      "name": "stakedTokenByIndex",
      "outputs": [
        {
          "internalType": "uint256",
          "name": "",
          "type": "uint256"
        }
      ],
      "stateMutability": "view",
      "type": "function",
      "constant": true
    },
    {
      "inputs": [],
      "name": "pause",
      "outputs": [
        {
          "internalType": "bool",
          "name": "",
          "type": "bool"
        }
      ],
      "stateMutability": "nonpayable",
      "type": "function"
    },
    {
      "inputs": [],
      "name": "unpause",
      "outputs": [
        {
          "internalType": "bool",
          "name": "",
          "type": "bool"
        }
      ],
      "stateMutability": "nonpayable",
      "type": "function"
    },
    {
      "inputs": [],
      "name": "pauseStake",
      "outputs": [
        {
          "internalType": "bool",
          "name": "",
          "type": "bool"
        }
      ],
      "stateMutability": "nonpayable",
      "type": "function"
    },
    {
      "inputs": [],
      "name": "unpauseStake",
      "outputs": [
        {
          "internalType": "bool",
          "name": "",
          "type": "bool"
        }
      ],
      "stateMutability": "nonpayable",
      "type": "function"
    }
  ],
  "bytecode": "0x60806040526002805460ff1916905560006004553480156200002057600080fd5b5060006200002d6200008f565b600080546001600160a01b0319166001600160a01b0383169081178255604051929350917f8be0079c531659141344cd1fd0a4f28419497f9722a3daafe3b4186f6b6457e0908290a35062000089630a85bd0160e11b62000093565b62000128565b3390565b6001600160e01b03198082161415620000c95760405162461bcd60e51b8152600401620000c090620000f1565b60405180910390fd5b6001600160e01b0319166000908152600160208190526040909120805460ff19169091179055565b6020808252601c908201527f4552433136353a20696e76616c696420696e7465726661636520696400000000604082015260600190565b612f6a80620001386000396000f3fe608060405234801561001057600080fd5b50600436106101a95760003560e01c80636ea69d62116100f9578063b57c621d11610097578063dfd3c9d911610071578063dfd3c9d914610359578063ebc5163b1461036c578063edfbf77414610374578063f2fde38b14610394576101a9565b8063b57c621d1461032b578063c964ee9f1461033e578063d56d229d14610351576101a9565b80638456cb59116100d35780638456cb59146102815780638da5cb5b146102fd57806398012fd214610305578063b0ee5e2814610318576101a9565b80636ea69d62146102b7578063715018a6146102cc57806373dfccca146102d4576101a9565b806338f6b2e1116101665780634638cb17116101405780634638cb17146102895780634c524dcf146102795780635c975abb1461029c5780635d526e7e146102a4576101a9565b806338f6b2e1146102525780633f4ba83a146102795780634281096714610281576101a9565b806301ffc9a7146101ae57806302ce7a81146101d75780631084dc4d146101f757806327acce411461020a5780632a2c28861461021f5780632dc90e1714610232575b600080fd5b6101c16101bc3660046125d5565b6103a7565b6040516101ce91906129b9565b60405180910390f35b6101ea6101e53660046126b8565b6103de565b6040516101ce9190612d42565b6101ea6102053660046126e7565b6103fb565b61021d6102183660046127f2565b61042f565b005b61021d61022d3660046125fd565b61049a565b61024561024036600461271e565b610703565b6040516101ce9190612909565b6102656102603660046127d1565b61087e565b6040516101ce989796959493929190612da6565b6101c16108da565b6101c1610963565b61021d61029736600461271e565b6109f0565b6101c1610ff9565b61021d6102b236600461271e565b611002565b6102bf611598565b6040516101ce9190612896565b61021d6115ac565b6102e76102e23660046126a0565b611635565b6040516101ce9a999897969594939291906129c4565b6102bf611699565b6101ea61031336600461271e565b6116a8565b61021d61032636600461271e565b6117a1565b6101ea6103393660046126a0565b611b79565b61021d61034c3660046126a0565b611b8b565b6102bf611d33565b61021d61036736600461271e565b611d42565b6101ea611fb7565b6103876103823660046126b8565b611fbd565b6040516101ce91906129a6565b61021d6103a236600461259d565b6120b0565b60006103b282612170565b806103d657506001600160e01b0319821660009081526001602052604090205460ff165b90505b919050565b600860209081526000928352604080842090915290825290205481565b60008381526009602090815260408083206001600160a01b038616845290915281206104279083612189565b949350505050565b61043761219c565b6001600160a01b0316610448611699565b6001600160a01b0316146104775760405162461bcd60e51b815260040161046e90612c19565b60405180910390fd5b600093845260056020819052604090942060068101939093559282015560020155565b6104a261219c565b6001600160a01b03166104b3611699565b6001600160a01b0316146104d95760405162461bcd60e51b815260040161046e90612c19565b60006004549050816005600083815260200190815260200160002060008201518160000160006101000a8154816001600160a01b0302191690836001600160a01b0316021790555060208201518160010160006101000a8154816001600160a01b0302191690836001600160a01b0316021790555060408201518160020155606082015181600301556080820151816004015560a0820151816005015560c0820151816006015560e08201518160070160006101000a81548160ff0219169083151502179055506101008201518160070160016101000a8154816001600160a01b0302191690836001600160a01b0316021790555061012082015181600801559050507f172fcb41a8c4f9426b1f4c8a8c759428b6729dae66a7fb4cb415746359caa55a600454836000015184602001518560400151866060015187608001518860a001518960c001518a60e001518b61010001518c610120015160405161064b9b9a99989796959493929190612d4b565b60405180910390a16001600460008282546106669190612e59565b9091555050602082015160408084015190516323b872dd60e01b81526001600160a01b03909216916323b872dd916106a491339130916004016128aa565b602060405180830381600087803b1580156106be57600080fd5b505af11580156106d2573d6000803e3d6000fd5b505050506040513d601f19601f820116820180604052508101906106f691906125b9565b6106ff57600080fd5b5050565b60606000825167ffffffffffffffff81111561072f57634e487b7160e01b600052604160045260246000fd5b60405190808252806020026020018201604052801561076857816020015b61075561252e565b81526020019060019003908161074d5790505b50905060005b8351811015610874576007600086815260200190815260200160002060008583815181106107ac57634e487b7160e01b600052603260045260246000fd5b60209081029190910181015182528181019290925260409081016000208151610100810183528154815260018201546001600160a01b03908116948201949094526002820154928101929092526003810154909216606082015260048201546080820152600582015460a0820152600682015460c082015260079091015460ff16151560e0820152825183908390811061085657634e487b7160e01b600052603260045260246000fd5b6020026020010181905250808061086c90612ec7565b91505061076e565b5090505b92915050565b600760208181526000938452604080852090915291835291208054600182015460028301546003840154600485015460058601546006870154969097015494966001600160a01b03948516969395949092169390929060ff1688565b60006108e461219c565b6001600160a01b03166108f5611699565b6001600160a01b03161461091b5760405162461bcd60e51b815260040161046e90612c19565b60025460ff1661092a57600080fd5b6002805460ff191690556040517f7805862f689e2f13df9f062ff482ad3ad112aca9e0847911ed832e158c525b3390600090a150600190565b600061096d61219c565b6001600160a01b031661097e611699565b6001600160a01b0316146109a45760405162461bcd60e51b815260040161046e90612c19565b60025460ff16156109b457600080fd5b6002805460ff191660011790556040517f6985a02210a168e66602d3235cb6db0e70f92b3ba4d376a33c0f3d9434bff62590600090a150600190565b60025460ff1615610a0057600080fd5b60008281526005602081905260408220015490805b8351811015610c965760008581526007602052604081208551339290879085908110610a5157634e487b7160e01b600052603260045260246000fd5b6020908102919091018101518252810191909152604001600020600101546001600160a01b031614610a955760405162461bcd60e51b815260040161046e90612c97565b600760008681526020019081526020016000206000858381518110610aca57634e487b7160e01b600052603260045260246000fd5b60209081029190910181015182528101919091526040016000206007015460ff16610b075760405162461bcd60e51b815260040161046e90612a1e565b60008581526007602052604081208551859290879085908110610b3a57634e487b7160e01b600052603260045260246000fd5b60200260200101518152602001908152602001600020600601541015610bd457600080610b8e87878581518110610b8157634e487b7160e01b600052603260045260246000fd5b60200260200101516121a0565b91509150610bc587878581518110610bb657634e487b7160e01b600052603260045260246000fd5b60200260200101518484612255565b610bcf8285612e59565b935050505b600085815260076020526040812085518290879085908110610c0657634e487b7160e01b600052603260045260246000fd5b6020026020010151815260200190815260200160002060070160006101000a81548160ff021916908315150217905550610c83848281518110610c5957634e487b7160e01b600052603260045260246000fd5b60209081029190910181015160008881526009835260408082203383529093529190912090612347565b5080610c8e81612ec7565b915050610a15565b508015610deb576000848152600560205260409081902060010154905163095ea7b360e01b81526001600160a01b039091169063095ea7b390610ce69030906001600160801b03906004016128ce565b602060405180830381600087803b158015610d0057600080fd5b505af1158015610d14573d6000803e3d6000fd5b505050506040513d601f19601f82011682018060405250810190610d3891906125b9565b50600084815260056020526040908190206001015490516323b872dd60e01b81526001600160a01b03909116906323b872dd90610d7d903090339086906004016128aa565b602060405180830381600087803b158015610d9757600080fd5b505af1158015610dab573d6000803e3d6000fd5b505050506040513d601f19601f82011682018060405250810190610dcf91906125b9565b610deb5760405162461bcd60e51b815260040161046e90612a42565b7f86be73c55681d833b88bcaa73da987ed79aae98e57c1d561ffe315804c308070848483604051610e1e93929190612e06565b60405180910390a160005b8351811015610fb95760008581526007602052604081208551339290879085908110610e6557634e487b7160e01b600052603260045260246000fd5b6020908102919091018101518252810191909152604001600020600101546001600160a01b031614610ea95760405162461bcd60e51b815260040161046e90612c97565b60008581526005602052604081205485516001600160a01b03909116906323b872dd9030903390899087908110610ef057634e487b7160e01b600052603260045260246000fd5b6020026020010151604051602401610f0a939291906128aa565b6040516020818303038152906040529060e01b6020820180516001600160e01b038381831617835250505050604051610f43919061285d565b6000604051808303816000865af19150503d8060008114610f80576040519150601f19603f3d011682016040523d82523d6000602084013e610f85565b606091505b5050905080610fa65760405162461bcd60e51b815260040161046e90612c4e565b5080610fb181612ec7565b915050610e29565b507f834307f20c36ba680fadd2e942b216a28449a4dca0e176afe84766ae405da9c98484604051610feb929190612ded565b60405180910390a150505050565b60025460ff1681565b60025460ff161561101257600080fd5b6000828152600660209081526040808320546005909252909120600201541080159061104e575060008281526005602052604090206006015442105b61106a5760405162461bcd60e51b815260040161046e90612b5e565b60008281526005602090815260408083206008908101549083528184203385529092529091205411156110af5760405162461bcd60e51b815260040161046e90612a6f565b600082815260056020526040902060080154815111156110e15760405162461bcd60e51b815260040161046e90612cc4565b600082815260056020819052604082200154905b8251811015611559576000848152600760205260408120845184929086908590811061113157634e487b7160e01b600052603260045260246000fd5b6020026020010151815260200190815260200160002060060154106111685760405162461bcd60e51b815260040161046e90612ba8565b60076000858152602001908152602001600020600084838151811061119d57634e487b7160e01b600052603260045260246000fd5b60209081029190910181015182528101919091526040016000206007015460ff16156111db5760405162461bcd60e51b815260040161046e90612abe565b604080516101008101825285815233602080830191909152428284015260008781526005909152918220546001600160a01b031660608201528451608082019086908590811061123b57634e487b7160e01b600052603260045260246000fd5b6020026020010151815260200160076000888152602001908152602001600020600087868151811061127d57634e487b7160e01b600052603260045260246000fd5b602002602001015181526020019081526020016000206005015481526020016007600088815260200190815260200160002060008786815181106112d157634e487b7160e01b600052603260045260246000fd5b602002602001015181526020019081526020016000206006015481526020016001151581525090508060076000878152602001908152602001600020600086858151811061132f57634e487b7160e01b600052603260045260246000fd5b602090810291909101810151825281810192909252604090810160009081208451815584840151600180830180546001600160a01b039384166001600160a01b0319918216179091558786015160028501556060880151600385018054919094169116179091556080860151600483015560a0860151600583015560c0860151600683015560e0909501516007909101805491151560ff1990921691909117905588815260088352818120338252909252812080549091906113f2908490612e59565b9250508190555061144684838151811061141c57634e487b7160e01b600052603260045260246000fd5b60209081029190910181015160008881526009835260408082203383529093529190912090612353565b5060008581526005602052604081205485516001600160a01b03909116906323b872dd903390309089908890811061148e57634e487b7160e01b600052603260045260246000fd5b60200260200101516040516024016114a8939291906128aa565b6040516020818303038152906040529060e01b6020820180516001600160e01b0383818316178352505050506040516114e1919061285d565b6000604051808303816000865af19150503d806000811461151e576040519150601f19603f3d011682016040523d82523d6000602084013e611523565b606091505b50509050806115445760405162461bcd60e51b815260040161046e90612d15565b5050808061155190612ec7565b9150506110f5565b507f4215e3521a48cecd7cfb7f907e759f1ad6533f657a8b730f7a608369f0b6dbb2838360405161158b929190612ded565b60405180910390a1505050565b60025461010090046001600160a01b031681565b6115b461219c565b6001600160a01b03166115c5611699565b6001600160a01b0316146115eb5760405162461bcd60e51b815260040161046e90612c19565b600080546040516001600160a01b03909116907f8be0079c531659141344cd1fd0a4f28419497f9722a3daafe3b4186f6b6457e0908390a3600080546001600160a01b0319169055565b60056020819052600091825260409091208054600182015460028301546003840154600485015495850154600686015460078701546008909701546001600160a01b03968716989587169794969395949293919260ff81169261010090910416908a565b6000546001600160a01b031690565b6000828152600560208190526040822001548190815b845181101561179757611c206000878152600560205260408120600301546116e69083612e71565b9050838111156116f35750825b6000611756600760008b815260200190815260200160002060008a878151811061172d57634e487b7160e01b600052603260045260246000fd5b60200260200101518152602001908152602001600020600601548361235f90919063ffffffff16565b60008a815260056020526040902060040154909150611780906117799083612e91565b879061236b565b95505050508061178f81612ec7565b9150506116be565b5090949350505050565b60008281526005602081905260408220015490805b83518110156119f157600085815260076020526040812085513392908790859081106117f257634e487b7160e01b600052603260045260246000fd5b6020908102919091018101518252810191909152604001600020600101546001600160a01b0316146118365760405162461bcd60e51b815260040161046e90612c97565b60076000868152602001908152602001600020600085838151811061186b57634e487b7160e01b600052603260045260246000fd5b60209081029190910181015182528101919091526040016000206007015460ff166118a85760405162461bcd60e51b815260040161046e90612a1e565b600085815260076020526040812085518592908790859081106118db57634e487b7160e01b600052603260045260246000fd5b602002602001015181526020019081526020016000206006015410156119595760008061192287878581518110610b8157634e487b7160e01b600052603260045260246000fd5b9150915061194a87878581518110610bb657634e487b7160e01b600052603260045260246000fd5b6119548285612e59565b935050505b60008581526007602052604081208551829087908590811061198b57634e487b7160e01b600052603260045260246000fd5b6020026020010151815260200190815260200160002060070160006101000a81548160ff0219169083151502179055506119de848281518110610c5957634e487b7160e01b600052603260045260246000fd5b50806119e981612ec7565b9150506117b6565b508015611b46576000848152600560205260409081902060010154905163095ea7b360e01b81526001600160a01b039091169063095ea7b390611a419030906001600160801b03906004016128ce565b602060405180830381600087803b158015611a5b57600080fd5b505af1158015611a6f573d6000803e3d6000fd5b505050506040513d601f19601f82011682018060405250810190611a9391906125b9565b50600084815260056020526040908190206001015490516323b872dd60e01b81526001600160a01b03909116906323b872dd90611ad8903090339086906004016128aa565b602060405180830381600087803b158015611af257600080fd5b505af1158015611b06573d6000803e3d6000fd5b505050506040513d601f19601f82011682018060405250810190611b2a91906125b9565b611b465760405162461bcd60e51b815260040161046e90612a42565b7f86be73c55681d833b88bcaa73da987ed79aae98e57c1d561ffe315804c308070848483604051610feb93929190612e06565b60066020526000908152604090205481565b611b9361219c565b6001600160a01b0316611ba4611699565b6001600160a01b031614611bca5760405162461bcd60e51b815260040161046e90612c19565b600081815260056020526040902060060154421180611c05575060008181526006602090815260408083205460059092529091206002015410155b611c215760405162461bcd60e51b815260040161046e90612aee565b6000818152600660209081526040808320546005909252822060020154611c489190612eb0565b600083815260056020526040902060078101805460ff19169055600101549091506001600160a01b031663a9059cbb611c7f611699565b836040518363ffffffff1660e01b8152600401611c9d9291906128f0565b602060405180830381600087803b158015611cb757600080fd5b505af1158015611ccb573d6000803e3d6000fd5b505050506040513d601f19601f82011682018060405250810190611cef91906125b9565b611cf857600080fd5b7f7ec14564eed3e841911f7412fd555aa022b64c2b1ae4b3da14fcacc8c0c4bf7182604051611d279190612d42565b60405180910390a15050565b6003546001600160a01b031681565b60005b8151811015611f855760008381526007602052604081208351339290859085908110611d8157634e487b7160e01b600052603260045260246000fd5b6020908102919091018101518252810191909152604001600020600101546001600160a01b031614611dc55760405162461bcd60e51b815260040161046e90612c97565b600083815260076020526040812083518290859085908110611df757634e487b7160e01b600052603260045260246000fd5b6020026020010151815260200190815260200160002060070160006101000a81548160ff021916908315150217905550611e74828281518110611e4a57634e487b7160e01b600052603260045260246000fd5b60209081029190910181015160008681526009835260408082203383529093529190912090612347565b5060008381526005602052604081205483516001600160a01b03909116906323b872dd9030903390879087908110611ebc57634e487b7160e01b600052603260045260246000fd5b6020026020010151604051602401611ed6939291906128aa565b6040516020818303038152906040529060e01b6020820180516001600160e01b038381831617835250505050604051611f0f919061285d565b6000604051808303816000865af19150503d8060008114611f4c576040519150601f19603f3d011682016040523d82523d6000602084013e611f51565b606091505b5050905080611f725760405162461bcd60e51b815260040161046e90612c4e565b5080611f7d81612ec7565b915050611d45565b507f834307f20c36ba680fadd2e942b216a28449a4dca0e176afe84766ae405da9c98282604051611d27929190612ded565b60045481565b60008281526008602090815260408083206001600160a01b038516845290915290205460609080611ffe575050604080516000815260208101909152610878565b60008167ffffffffffffffff81111561202757634e487b7160e01b600052604160045260246000fd5b604051908082528060200260200182016040528015612050578160200160208202803683370190505b50905060005b828110156120a6576120698686836103fb565b82828151811061208957634e487b7160e01b600052603260045260246000fd5b60209081029190910101528061209e81612ec7565b915050612056565b5091506108789050565b6120b861219c565b6001600160a01b03166120c9611699565b6001600160a01b0316146120ef5760405162461bcd60e51b815260040161046e90612c19565b6001600160a01b0381166121155760405162461bcd60e51b815260040161046e90612b18565b600080546040516001600160a01b03808516939216917f8be0079c531659141344cd1fd0a4f28419497f9722a3daafe3b4186f6b6457e091a3600080546001600160a01b0319166001600160a01b0392909216919091179055565b6001600160e01b031981166301ffc9a760e01b14919050565b60006121958383612377565b9392505050565b3390565b60008281526005602081905260408220908101546003909101548291829182906121cd9062015180612e71565b90508181106121d95750805b60008781526007602090815260408083208984529091528120600601546122009083612eb0565b9050828111156122225760405162461bcd60e51b815260040161046e90612bd5565b60008881526005602052604090206004015461223e9082612e91565b6122489085612e59565b9890975095505050505050565b600084815260076020908152604080832086845290915281206005018054849290612281908490612e59565b909155505060008481526007602090815260408083208684529091529020600601546122ae908290612e59565b6000858152600760209081526040808320878452825280832060069081019490945587835292905290812080548492906122e9908490612e59565b909155505060008481526008602090815260408083203384529091528120805460019290612318908490612eb0565b9091555050600084815260096020908152604080832033845290915290206123409084612353565b5050505050565b600061219583836123af565b600061219583836124cc565b60006121958284612eb0565b60006121958284612e59565b600082600001828154811061239c57634e487b7160e01b600052603260045260246000fd5b9060005260206000200154905092915050565b600081815260018301602052604081205480156124c25760006123d3600183612eb0565b85549091506000906123e790600190612eb0565b905081811461246857600086600001828154811061241557634e487b7160e01b600052603260045260246000fd5b906000526020600020015490508087600001848154811061244657634e487b7160e01b600052603260045260246000fd5b6000918252602080832090910192909255918252600188019052604090208390555b855486908061248757634e487b7160e01b600052603160045260246000fd5b600190038181906000526020600020016000905590558560010160008681526020019081526020016000206000905560019350505050610878565b6000915050610878565b60006124d88383612516565b61250e57508154600181810184556000848152602080822090930184905584548482528286019093526040902091909155610878565b506000610878565b60009081526001919091016020526040902054151590565b6040518061010001604052806000815260200160006001600160a01b031681526020016000815260200160006001600160a01b031681526020016000815260200160008152602001600081526020016000151581525090565b80356103d981612f0e565b80356103d981612f26565b6000602082840312156125ae578081fd5b813561219581612f0e565b6000602082840312156125ca578081fd5b815161219581612f26565b6000602082840312156125e6578081fd5b81356001600160e01b031981168114612195578182fd5b6000610140808385031215612610578182fd5b61261981612e2f565b905061262483612587565b815261263260208401612587565b602082015260408301356040820152606083013560608201526080830135608082015260a083013560a082015260c083013560c082015261267560e08401612592565b60e0820152610100612688818501612587565b90820152610120928301359281019290925250919050565b6000602082840312156126b1578081fd5b5035919050565b600080604083850312156126ca578081fd5b8235915060208301356126dc81612f0e565b809150509250929050565b6000806000606084860312156126fb578081fd5b83359250602084013561270d81612f0e565b929592945050506040919091013590565b60008060408385031215612730578182fd5b8235915060208084013567ffffffffffffffff8082111561274f578384fd5b818601915086601f830112612762578384fd5b81358181111561277457612774612ef8565b8381029150612784848301612e2f565b8181528481019084860184860187018b101561279e578788fd5b8795505b838610156127c05780358352600195909501949186019186016127a2565b508096505050505050509250929050565b600080604083850312156127e3578182fd5b50508035926020909101359150565b60008060008060808587031215612807578081fd5b5050823594602084013594506040840135936060013592509050565b6000815180845260208085019450808401835b8381101561285257815187529582019590820190600101612836565b509495945050505050565b60008251815b8181101561287d5760208186018101518583015201612863565b8181111561288b5782828501525b509190910192915050565b6001600160a01b0391909116815260200190565b6001600160a01b039384168152919092166020820152604081019190915260600190565b6001600160a01b039290921682526001600160801b0316602082015260400190565b6001600160a01b03929092168252602082015260400190565b602080825282518282018190526000919060409081850190868401855b8281101561299957815180518552868101516001600160a01b03908116888701528682015187870152606080830151909116908601526080808201519086015260a0808201519086015260c0808201519086015260e0908101511515908501526101009093019290850190600101612926565b5091979650505050505050565b6000602082526121956020830184612823565b901515815260200190565b6001600160a01b039a8b168152988a1660208a015260408901979097526060880195909552608087019390935260a086019190915260c0850152151560e08401529092166101008201526101208101919091526101400190565b6020808252600a9082015269139bdd081cdd185ad95960b21b604082015260600190565b60208082526013908201527243414e4e4f542047495645205245574152442160681b604082015260600190565b6020808252602f908201527f59412041505545535441204d41582e2043414e5449444144204445204e46542060408201526e454e20455354412050495343494e4160881b606082015260800190565b6020808252601690820152754e46542079612061706f737461646f2e203f213f213f60501b604082015260600190565b60208082526010908201526f21a0a72727aa1022a722102827a7a61760811b604082015260600190565b60208082526026908201527f4f776e61626c653a206e6577206f776e657220697320746865207a65726f206160408201526564647265737360d01b606082015260800190565b6020808252602a908201527f706f6f6c2074656e67612064696e65726f2061756e21212121212071206e6f206040820152696573746120766163696f60b01b606082015260800190565b6020808252601390820152722cb090373790383ab2b2379030b837b9ba30b960691b604082015260600190565b60208082526024908201527f594f552043414e4e4f5420434c41494d2054484953205354414b4520414e594d6040820152634f52452160e01b606082015260800190565b6020808252818101527f4f776e61626c653a2063616c6c6572206973206e6f7420746865206f776e6572604082015260600190565b60208082526029908201527f43414e4e4f5420524546554e44204e46543f20534f4d455448494e472049532060408201526857524f4e472121212160b81b606082015260800190565b6020808252601390820152722737ba103a34329039ba30b5b29037bbb732b960691b604082015260600190565b60208082526031908201527f59412041505545535441204d41582e2043414e5449444144204445204e46542060408201527022a71022a9aa20902824a9a1a4a720971760791b606082015260800190565b60208082526013908201527210d0539393d5081514905394d1915488139195606a1b604082015260600190565b90815260200190565b9a8b526001600160a01b03998a1660208c015297891660408b015260608a0196909652608089019490945260a088019290925260c087015260e086015215156101008501529091166101208301526101408201526101600190565b9788526001600160a01b0396871660208901526040880195909552929094166060860152608085015260a084019290925260c0830191909152151560e08201526101000190565b6000838252604060208301526104276040830184612823565b600084825260606020830152612e1f6060830185612823565b9050826040830152949350505050565b60405181810167ffffffffffffffff81118282101715612e5157612e51612ef8565b604052919050565b60008219821115612e6c57612e6c612ee2565b500190565b600082612e8c57634e487b7160e01b81526012600452602481fd5b500490565b6000816000190483118215151615612eab57612eab612ee2565b500290565b600082821015612ec257612ec2612ee2565b500390565b6000600019821415612edb57612edb612ee2565b5060010190565b634e487b7160e01b600052601160045260246000fd5b634e487b7160e01b600052604160045260246000fd5b6001600160a01b0381168114612f2357600080fd5b50565b8015158114612f2357600080fdfea2646970667358221220b63a561721dcde30ca7bd14a9dacf39f180cd767efa6dce59904a818a539f9ab64736f6c63430008000033",
  "immutableReferences": {},
  "source": "// SPDX-License-Identifier: UNLICENSED\n\n\nimport \"../lib/@openzeppelin/contracts/token/ERC721/ERC721.sol\";\nimport \"../lib/@openzeppelin/contracts/access/Ownable.sol\";\nimport \"../lib/@openzeppelin/contracts/token/ERC20/ERC20.sol\";\nimport \"../lib/@openzeppelin/contracts/token/ERC721/IERC721.sol\";\nimport \"../lib/@openzeppelin/contracts/token/ERC721/IERC721Receiver.sol\";\nimport \"../lib/@openzeppelin/contracts/utils/introspection/ERC165Storage.sol\";\nimport \"../lib/@openzeppelin/contracts/utils/Strings.sol\";\nimport \"../lib/@openzeppelin/contracts/utils/EnumerableSet.sol\";\nimport \"../lib/@openzeppelin/contracts/utils/math/SafeMath.sol\";\nimport \"../lib/@openzeppelin/contracts/access/Pausable.sol\";\n\n\npragma solidity ^0.8.0;\n// NFT Staking pools\n\n\n/*\nESTE CONTRATO CREA PISCINAS DE ACUERDO NFT CON RECOMPENSAS FIJAS. LAS RECOMPENSAS SE BASAN EN CICLOS Y SE PUEDEN IMPLEMENTAR MULTIPLICADORES.\n-CREAR PISCINA REQUIERE CONTRATO NFT Y CONTRATO TOKEN ERC20 COMO ARGUMENTOS\n-EL CONTRATO NFT DEBE SER ERC721\n-CADA PISCINA TIENE CICLO Y CICLO MXIMO. POR EJEMPLO, UNA PISCINA PUEDE RECOMPENSAR 20 TOKENS CADA 8 HORAS Y MXIMO 5 VECES.\n-EL USUARIO PUEDE RECLAMAR UNO POR UNO O MLTIPLES NFTS A LA VEZ, SE GUARDARN LOS RECLAMOS RESANINADOS.\n-NO SE PUEDE RETIRAR UN NFT DE NUEVO SI SE RECLAMA LA CANTIDAD MXIMA DEL CICLO, POR EJEMPLO, SI RECLAMAS TU RECOMPENSA DE 10 CICLOS Y EL PISCINA TIENE EL LMITE DE 10 CICLOS, NO PUEDES RECIBIR ESE NFT MS.\n-Puede crearse una cantidad infinita de parejas.\n-MULTIPLICADOR DE RECOMPENSAS POR PARTE DEL FIRMADOR DE LA PISCINA\n\n\nimplentar multiplicador \n*/\n\n contract NFTStake is Ownable, ERC165Storage,Pausable {\n    using Strings for uint256;\n    using EnumerableSet for EnumerableSet.UintSet;\n    using SafeMath for uint256;\n\n    ERC20 public rewardContract;\n    IERC721 public nftContract;\n \n\n\n    constructor(){\n        _registerInterface(IERC721Receiver.onERC721Received.selector);\n\n    }\n\n    \n\n\n    uint256 public currentPoolId = 0;\n \n    // pool id => pool\n    mapping(uint256 => NFTPool) public Pools;\n\n    // recompensas restantes del grupo\n    mapping(uint256 => uint256) public ClaimedPoolRewards;\n\n    // pool id => tokenId => stake\n    mapping(uint256 => mapping(uint256 => Stake)) public Stakes;\n\n    // mapping of active staking count by wallet.\n    //poolid => address =>  active stake count. will be used with pool parameter: maxStakePerWallet\n    //poolid => address =>  active staked tokenids count.\n    mapping(uint256 => mapping(address => uint256)) public ActiveStakes;\n    mapping(uint256 => mapping(address => EnumerableSet.UintSet)) private CurrentStakedTokens;\n\n    event PoolCreated(\n        uint256 pid, \n        address nftContract,\n        address rewardContract,\n        uint256 rewardSupply,\n        uint256 cycle,\n        uint256 rewardPerCycle,\n        uint256 maxCycles,\n        uint256 endingDate,\n        bool isActive,\n        address multiplierSigner,\n        uint256 maxStakePerWallet);\n\n    event PoolEnded(uint256 pid);\n\n    event Staked(uint256 pid,\n        uint256[] tokenIds);\n\n    event UnStaked(uint256 pid,\n        uint256[] tokenIds);\n\n    event Claimed(uint256 pid,\n        uint256[] tokenIds,\n        uint256 _total);\n\n    struct NFTPool {\n        IERC721 nftContract;\n        ERC20 rewardContract;\n        uint256 rewardSupply;\n        uint256 cycle;\n        uint256 rewardPerCycle;\n        uint256 maxCycles;\n        uint256 endingDate;\n        bool isActive;\n        address multiplierSigner;\n        uint256 maxStakePerWallet;\n    }\n\n    struct Stake {\n        uint256 poolId;\n        address beneficiary;\n        uint256 startTime;\n        IERC721 nftContract;\n        uint256 tokenId;\n        uint256 claimedTokens;\n        uint256 lastCycle;\n        bool isActive;\n    }\n\n\n   \n\n    function createPool(NFTPool memory _pool) external onlyOwner {\n        uint256 currentId = currentPoolId;\n        Pools[currentId] = _pool;\n\n        emit PoolCreated(currentPoolId,\n            address(_pool.nftContract),\n            address(_pool.rewardContract),\n            _pool.rewardSupply,\n            _pool.cycle,\n            _pool.rewardPerCycle,\n            _pool.maxCycles,\n            _pool.endingDate,\n            _pool.isActive,\n            _pool.multiplierSigner,\n            _pool.maxStakePerWallet);\n        currentPoolId += 1;\n        \n\n        require(_pool.rewardContract.transferFrom(msg.sender, address(this), _pool.rewardSupply));\n    }\n\n    function updatePool(uint256 pid, uint256 endingDate, uint256 maxCycles, uint256 rewardSupply) external onlyOwner {\n        Pools[pid].endingDate = endingDate;\n        Pools[pid].maxCycles = maxCycles;\n        Pools[pid].rewardSupply = rewardSupply;\n    }\n\n    function endPool(uint256 pid) external onlyOwner {\n        // transfer remaining funds to owner\n        require(Pools[pid].endingDate < block.timestamp || Pools[pid].rewardSupply >= ClaimedPoolRewards[pid], \"CANNOT END POOL.\");\n        uint256 remainingTokens = Pools[pid].rewardSupply - ClaimedPoolRewards[pid];\n        Pools[pid].isActive = false;\n        require(Pools[pid].rewardContract.transfer(owner(), remainingTokens));\n        emit PoolEnded(pid);\n    }\n\n    function enterStaking(uint256 pid, uint256[] memory tokenIds) external whenNotPaused {\n        require(Pools[pid].rewardSupply >= ClaimedPoolRewards[pid] && Pools[pid].endingDate > block.timestamp, \"pool tenga dinero aun!!!!! q no esta vacio\");\n        require(ActiveStakes[pid][msg.sender] <= Pools[pid].maxStakePerWallet, \"YA APUESTA MAX. CANTIDAD DE NFT EN ESTA PISCINA\");\n        require(tokenIds.length <= Pools[pid].maxStakePerWallet, \"YA APUESTA MAX. CANTIDAD DE NFT EN ESTA PISCINA..\");\n        // transfer NFTs to contract\n        uint256 poolMaxCycle = Pools[pid].maxCycles;\n        for (uint256 i = 0; i < tokenIds.length; i++) {\n            // comprobar si el token se aplic antes\n            require(Stakes[pid][tokenIds[i]].lastCycle < poolMaxCycle, \"Ya no puedo apostar\");\n            require(Stakes[pid][tokenIds[i]].isActive == false, \"NFT ya apostado. ?!?!?\");\n         \n\n            Stake memory newStake = Stake(\n                pid,\n                msg.sender,\n                block.timestamp,\n                Pools[pid].nftContract,\n                tokenIds[i],\n                Stakes[pid][tokenIds[i]].claimedTokens,\n                Stakes[pid][tokenIds[i]].lastCycle,\n                true\n            );\n\n            Stakes[pid][tokenIds[i]] = newStake;\n            ActiveStakes[pid][msg.sender] += 1;\n            CurrentStakedTokens[pid][msg.sender].add(tokenIds[i]);\n            // bytes32 method = keccak256(\"transferFrom\");\n            // bytes4(keccak256(bytes('transferFrom(address,address,uint256)')));\n            (bool success,) = address(Pools[pid].nftContract).call(abi.encodeWithSelector(0x23b872dd, msg.sender, address(this), tokenIds[i]));\n            require(success, \"CANNOT TRANSFER NFT\");\n            // create stakes for each booltranfer=buscarerc721\n            // pool id => tokenId => stake\n\n        }\n\n        emit Staked(pid, tokenIds);\n    }\n    // @param multiplierParams is array of uint256s, first param is multiplier, second one is timestamp, rest is token ids to claim.\n    // @param multiplierParams hash must be signed by pool signer.\n    function leaveStaking(uint256 pid, uint256[] memory tokenIds) external whenNotPausedStake {\n       uint256 poolMaxCycle = Pools[pid].maxCycles;\n        uint256 _total = 0;\n        for (uint256 i = 0; i < tokenIds.length; i++) {\n            require(Stakes[pid][tokenIds[i]].beneficiary == msg.sender, \"Not the stake owner\");\n            require(Stakes[pid][tokenIds[i]].isActive, \"Not staked\");\n            if (Stakes[pid][tokenIds[i]].lastCycle < poolMaxCycle) {\n                (uint256 toBeClaimed, uint256 currentCycleCount) = _claimCalculate(pid, tokenIds[i]);\n                _claim(pid, tokenIds[i], toBeClaimed, currentCycleCount);\n                _total += toBeClaimed;\n            }\n\n            Stakes[pid][tokenIds[i]].isActive = false;\n            CurrentStakedTokens[pid][msg.sender].remove(tokenIds[i]);\n        }\n        if (_total > 0) {\n            Pools[pid].rewardContract.approve(address(this),type(uint128).max);\n            require(Pools[pid].rewardContract.transferFrom(address(this), msg.sender, _total), \"CANNOT GIVE REWARD!\");\n        }\n        emit Claimed(pid, tokenIds, _total);\n        \n        for (uint256 i = 0; i < tokenIds.length; i++) {\n            require(Stakes[pid][tokenIds[i]].beneficiary == msg.sender, \"Not the stake owner\");\n            // transferFrom(address,address,uint256) = 0x23b872dd\n            (bool success,) = address(Pools[pid].nftContract).call(abi.encodeWithSelector(0x23b872dd, address(this), msg.sender, tokenIds[i]));\n            require(success, \"CANNOT REFUND NFT? SOMETHING IS WRONG!!!!\");\n        }\n        emit UnStaked(pid, tokenIds);\n    }\n\n    // rescata tus tokens, para casos de emergencia. no te preocupes por las recompensas, reinicia el temporizador de recompensas.\n    function unStakeWithoutRewards(uint256 pid, uint256[] memory tokenIds) external {\n        for (uint256 i = 0; i < tokenIds.length; i++) {\n            require(Stakes[pid][tokenIds[i]].beneficiary == msg.sender, \"Not the stake owner\");\n            Stakes[pid][tokenIds[i]].isActive = false; \n            CurrentStakedTokens[pid][msg.sender].remove(tokenIds[i]);\n           \n            (bool success,) = address(Pools[pid].nftContract).call(abi.encodeWithSelector(0x23b872dd, address(this), msg.sender, tokenIds[i]));\n            require(success, \"CANNOT REFUND NFT? SOMETHING IS WRONG!!!!\");\n      \n        }\n        emit UnStaked(pid, tokenIds);\n    }\n\n\n    function claimRewards(uint256 pid, uint256[] memory tokenIds) external {\n        //        require(block.timestamp < Pools[pid].endingDate, \"Pool is expired\");\n        uint256 poolMaxCycle = Pools[pid].maxCycles;\n        uint256 _total = 0;\n        for (uint256 i = 0; i < tokenIds.length; i++) {\n            require(Stakes[pid][tokenIds[i]].beneficiary == msg.sender, \"Not the stake owner\");\n            require(Stakes[pid][tokenIds[i]].isActive, \"Not staked\");\n            if (Stakes[pid][tokenIds[i]].lastCycle < poolMaxCycle) {\n                (uint256 toBeClaimed, uint256 currentCycleCount) = _claimCalculate(pid, tokenIds[i]);\n                _claim(pid, tokenIds[i], toBeClaimed, currentCycleCount);\n                _total += toBeClaimed;\n            }\n\n            Stakes[pid][tokenIds[i]].isActive = false;\n            CurrentStakedTokens[pid][msg.sender].remove(tokenIds[i]);\n        }\n        if (_total > 0) {\n            Pools[pid].rewardContract.approve(address(this),type(uint128).max);\n            require(Pools[pid].rewardContract.transferFrom(address(this), msg.sender, _total), \"CANNOT GIVE REWARD!\");\n        }\n        emit Claimed(pid, tokenIds, _total);\n    }\n\n  \n\n    \n\n    function _claimCalculate(uint256 pid, uint256 tokenId) internal view returns (uint256, uint256){\n        uint256 toBeClaimed = 0;\n        uint256 poolMaxClaim = Pools[pid].maxCycles;\n        uint256 cyclesSinceStart = (1 days / Pools[pid].cycle);\n        if (cyclesSinceStart >= poolMaxClaim) {\n            cyclesSinceStart = poolMaxClaim;\n        }\n        uint256 currentCycleCount = cyclesSinceStart - Stakes[pid][tokenId].lastCycle;\n        require(currentCycleCount <= poolMaxClaim, \"YOU CANNOT CLAIM THIS STAKE ANYMORE!\");\n        toBeClaimed += currentCycleCount * Pools[pid].rewardPerCycle;\n        return (toBeClaimed, currentCycleCount);\n    }\n\n    function _claim(uint256 pid, uint256 tokenId, uint256 toBeClaimed, uint256 currentCycleCount) internal {\n        // increase amount and cycle count for that nft, prevent someone else buying it and staking again\n        Stakes[pid][tokenId].claimedTokens += toBeClaimed;\n        Stakes[pid][tokenId].lastCycle = Stakes[pid][tokenId].lastCycle + currentCycleCount;\n        ClaimedPoolRewards[pid] += toBeClaimed;\n        ActiveStakes[pid][msg.sender] -= 1;\n        CurrentStakedTokens[pid][msg.sender].add(tokenId);\n    }\n\n\n    function activeTokensOf(uint256 pid, address account) external view returns (uint256[] memory){\n        uint256 tokenCount = ActiveStakes[pid][account];\n        if (tokenCount == 0) {\n            // Return an empty array\n            return new uint256[](0);\n        } else {\n            uint256[] memory result = new uint256[](tokenCount);\n            uint256 index;\n            for (index = 0; index < tokenCount; index++) {\n                result[index] = stakedTokenByIndex(pid, account, index);\n            }\n            return result;\n        }\n    }\n\n  \n\n    function calculateRewards(uint256 pid, uint256[] memory tokenIds) public view returns (uint256) {\n        uint256 totalClaimable = 0;\n        uint256 poolMaxClaim = Pools[pid].maxCycles;\n\n        for (uint256 i = 0; i < tokenIds.length; i++) {\n            uint256 timePassed = 2 hours; \n            if (timePassed > 0) {\n                uint256 cyclesSinceStart = (timePassed / Pools[pid].cycle);\n                if (cyclesSinceStart > poolMaxClaim) {\n                    cyclesSinceStart = poolMaxClaim;\n                }\n                uint256 currentCycleCount = cyclesSinceStart.sub(Stakes[pid][tokenIds[i]].lastCycle);\n                totalClaimable = totalClaimable.add(currentCycleCount * Pools[pid].rewardPerCycle);\n            }\n        }\n        return totalClaimable;\n    }\n\n    function getStakes(uint256 pid, uint256[] memory tokenIds) external view returns (Stake[] memory) {\n        Stake[] memory stakes = new Stake[](tokenIds.length);\n        for (uint256 i = 0; i < tokenIds.length; i++) {\n            stakes[i] = Stakes[pid][tokenIds[i]];\n        }\n        return stakes;\n    }\n\n    function stakedTokenByIndex(uint256 pid, address owner, uint256 idx) public view virtual returns (uint256) {\n        return CurrentStakedTokens[pid][owner].at(idx);\n    }\n\n\n\n\n    function pause() external onlyOwner whenNotPaused virtual override returns (bool) {\n    paused = true;\n    emit Pause();\n    return true;\n  }\n\n  /**\n   * @dev called by the owner to unpause, returns to normal state\n   */\n  function unpause() external onlyOwner whenPaused virtual override returns (bool) {\n    paused = false;\n    emit Unpause();\n    return true;\n  }\n\n    function pauseStake() external onlyOwner whenNotPausedStake override virtual returns (bool) {\n    paused = true;\n    emit Pause();\n    return true;\n  }\n\n  /**\n   * @dev called by the owner to unpause, returns to normal state\n   */\n  function unpauseStake() external onlyOwner whenPausedStake virtual override returns (bool) {\n    paused = false;\n    emit Unpause();\n    return true;\n  }\n\n\n\n\n\n\n    \n}",
  "sourcePath": "C:\\Users\\Hp Omen\\Desktop\\ERIX-GALAXY\\SMART-CONTRAC-ERISGALAXI\\contracts\\NFTStake.sol",
  "compiler": {
    "name": "solc",
    "version": "0.8.0+commit.c7dfd78e.Emscripten.clang"
  },
  "schemaVersion": "3.4.3",
  "updatedAt": "2022-03-31T18:52:47.830Z",
  "networkType": "ethereum",
  "devdoc": {
    "kind": "dev",
    "methods": {
      "owner()": {
        "details": "Returns the address of the current owner."
      },
      "pause()": {
        "details": "called by the owner to pause, triggers stopped state"
      },
      "renounceOwnership()": {
        "details": "Leaves the contract without owner. It will not be possible to call `onlyOwner` functions anymore. Can only be called by the current owner. NOTE: Renouncing ownership will leave the contract without an owner, thereby removing any functionality that is only available to the owner."
      },
      "supportsInterface(bytes4)": {
        "details": "See {IERC165-supportsInterface}."
      },
      "transferOwnership(address)": {
        "details": "Transfers ownership of the contract to a new account (`newOwner`). Can only be called by the current owner."
      },
      "unpause()": {
        "details": "called by the owner to unpause, returns to normal state"
      },
      "unpauseStake()": {
        "details": "called by the owner to unpause, returns to normal state"
      }
    },
    "version": 1
  },
  "userdoc": {
    "kind": "user",
    "methods": {},
    "version": 1
  }
}