{
  "contractName": "TestERC20",
  "abi": [
    {
      "inputs": [],
      "stateMutability": "nonpayable",
      "type": "constructor"
    },
    {
      "anonymous": false,
      "inputs": [
        {
          "indexed": true,
          "internalType": "address",
          "name": "owner",
          "type": "address"
        },
        {
          "indexed": true,
          "internalType": "address",
          "name": "spender",
          "type": "address"
        },
        {
          "indexed": false,
          "internalType": "uint256",
          "name": "value",
          "type": "uint256"
        }
      ],
      "name": "Approval",
      "type": "event"
    },
    {
      "anonymous": false,
      "inputs": [
        {
          "indexed": true,
          "internalType": "address",
          "name": "previousOwner",
          "type": "address"
        },
        {
          "indexed": true,
          "internalType": "address",
          "name": "newOwner",
          "type": "address"
        }
      ],
      "name": "OwnershipTransferred",
      "type": "event"
    },
    {
      "anonymous": false,
      "inputs": [
        {
          "indexed": false,
          "internalType": "uint256",
          "name": "amount",
          "type": "uint256"
        }
      ],
      "name": "RewardsDistributed",
      "type": "event"
    },
    {
      "anonymous": false,
      "inputs": [
        {
          "indexed": true,
          "internalType": "address",
          "name": "from",
          "type": "address"
        },
        {
          "indexed": true,
          "internalType": "address",
          "name": "to",
          "type": "address"
        },
        {
          "indexed": false,
          "internalType": "uint256",
          "name": "value",
          "type": "uint256"
        }
      ],
      "name": "Transfer",
      "type": "event"
    },
    {
      "anonymous": false,
      "inputs": [
        {
          "indexed": false,
          "internalType": "uint16",
          "name": "tradeCooldown",
          "type": "uint16"
        }
      ],
      "name": "changeCooldown",
      "type": "event"
    },
    {
      "inputs": [
        {
          "internalType": "address",
          "name": "account",
          "type": "address"
        },
        {
          "internalType": "bool",
          "name": "",
          "type": "bool"
        }
      ],
      "name": "ExcludedFromFee",
      "outputs": [],
      "stateMutability": "nonpayable",
      "type": "function"
    },
    {
      "inputs": [
        {
          "internalType": "address",
          "name": "account",
          "type": "address"
        },
        {
          "internalType": "bool",
          "name": "",
          "type": "bool"
        }
      ],
      "name": "IncludeFromFee",
      "outputs": [],
      "stateMutability": "nonpayable",
      "type": "function"
    },
    {
      "inputs": [
        {
          "internalType": "address payable",
          "name": "recipient",
          "type": "address"
        },
        {
          "internalType": "uint256",
          "name": "amount",
          "type": "uint256"
        }
      ],
      "name": "TransferETH",
      "outputs": [],
      "stateMutability": "nonpayable",
      "type": "function"
    },
    {
      "inputs": [
        {
          "internalType": "address",
          "name": "account",
          "type": "address"
        },
        {
          "internalType": "uint256",
          "name": "amount",
          "type": "uint256"
        }
      ],
      "name": "_burn",
      "outputs": [],
      "stateMutability": "nonpayable",
      "type": "function"
    },
    {
      "inputs": [],
      "name": "_burnFee",
      "outputs": [
        {
          "internalType": "uint256",
          "name": "",
          "type": "uint256"
        }
      ],
      "stateMutability": "view",
      "type": "function"
    },
    {
      "inputs": [],
      "name": "_burnFeeTotal",
      "outputs": [
        {
          "internalType": "uint256",
          "name": "",
          "type": "uint256"
        }
      ],
      "stateMutability": "view",
      "type": "function"
    },
    {
      "inputs": [],
      "name": "_devFee",
      "outputs": [
        {
          "internalType": "uint256",
          "name": "",
          "type": "uint256"
        }
      ],
      "stateMutability": "view",
      "type": "function"
    },
    {
      "inputs": [],
      "name": "_devFeeTotal",
      "outputs": [
        {
          "internalType": "uint256",
          "name": "",
          "type": "uint256"
        }
      ],
      "stateMutability": "view",
      "type": "function"
    },
    {
      "inputs": [
        {
          "internalType": "address",
          "name": "owner",
          "type": "address"
        },
        {
          "internalType": "address",
          "name": "spender",
          "type": "address"
        }
      ],
      "name": "allowance",
      "outputs": [
        {
          "internalType": "uint256",
          "name": "",
          "type": "uint256"
        }
      ],
      "stateMutability": "view",
      "type": "function"
    },
    {
      "inputs": [
        {
          "internalType": "address",
          "name": "spender",
          "type": "address"
        },
        {
          "internalType": "uint256",
          "name": "amount",
          "type": "uint256"
        }
      ],
      "name": "approve",
      "outputs": [
        {
          "internalType": "bool",
          "name": "",
          "type": "bool"
        }
      ],
      "stateMutability": "nonpayable",
      "type": "function"
    },
    {
      "inputs": [
        {
          "internalType": "address",
          "name": "account",
          "type": "address"
        }
      ],
      "name": "balanceOf",
      "outputs": [
        {
          "internalType": "uint256",
          "name": "",
          "type": "uint256"
        }
      ],
      "stateMutability": "view",
      "type": "function"
    },
    {
      "inputs": [],
      "name": "burnAddress",
      "outputs": [
        {
          "internalType": "address",
          "name": "",
          "type": "address"
        }
      ],
      "stateMutability": "view",
      "type": "function"
    },
    {
      "inputs": [],
      "name": "decimals",
      "outputs": [
        {
          "internalType": "uint8",
          "name": "",
          "type": "uint8"
        }
      ],
      "stateMutability": "view",
      "type": "function"
    },
    {
      "inputs": [
        {
          "internalType": "address",
          "name": "spender",
          "type": "address"
        },
        {
          "internalType": "uint256",
          "name": "subtractedValue",
          "type": "uint256"
        }
      ],
      "name": "decreaseAllowance",
      "outputs": [
        {
          "internalType": "bool",
          "name": "",
          "type": "bool"
        }
      ],
      "stateMutability": "nonpayable",
      "type": "function"
    },
    {
      "inputs": [],
      "name": "devAddress",
      "outputs": [
        {
          "internalType": "address",
          "name": "",
          "type": "address"
        }
      ],
      "stateMutability": "view",
      "type": "function"
    },
    {
      "inputs": [
        {
          "internalType": "address",
          "name": "account",
          "type": "address"
        }
      ],
      "name": "excludeAccount",
      "outputs": [],
      "stateMutability": "nonpayable",
      "type": "function"
    },
    {
      "inputs": [
        {
          "internalType": "address",
          "name": "account",
          "type": "address"
        }
      ],
      "name": "includeAccount",
      "outputs": [],
      "stateMutability": "nonpayable",
      "type": "function"
    },
    {
      "inputs": [
        {
          "internalType": "address",
          "name": "spender",
          "type": "address"
        },
        {
          "internalType": "uint256",
          "name": "addedValue",
          "type": "uint256"
        }
      ],
      "name": "increaseAllowance",
      "outputs": [
        {
          "internalType": "bool",
          "name": "",
          "type": "bool"
        }
      ],
      "stateMutability": "nonpayable",
      "type": "function"
    },
    {
      "inputs": [
        {
          "internalType": "address",
          "name": "account",
          "type": "address"
        }
      ],
      "name": "isExcluded",
      "outputs": [
        {
          "internalType": "bool",
          "name": "",
          "type": "bool"
        }
      ],
      "stateMutability": "view",
      "type": "function"
    },
    {
      "inputs": [],
      "name": "name",
      "outputs": [
        {
          "internalType": "string",
          "name": "",
          "type": "string"
        }
      ],
      "stateMutability": "view",
      "type": "function"
    },
    {
      "inputs": [],
      "name": "owner",
      "outputs": [
        {
          "internalType": "address",
          "name": "",
          "type": "address"
        }
      ],
      "stateMutability": "view",
      "type": "function"
    },
    {
      "inputs": [],
      "name": "renounceOwnership",
      "outputs": [],
      "stateMutability": "nonpayable",
      "type": "function"
    },
    {
      "inputs": [
        {
          "internalType": "uint184",
          "name": "fee",
          "type": "uint184"
        }
      ],
      "name": "set4thFee",
      "outputs": [],
      "stateMutability": "nonpayable",
      "type": "function"
    },
    {
      "inputs": [
        {
          "internalType": "uint16",
          "name": "_tradeCooldown",
          "type": "uint16"
        }
      ],
      "name": "setCooldownForTrades",
      "outputs": [],
      "stateMutability": "nonpayable",
      "type": "function"
    },
    {
      "inputs": [
        {
          "internalType": "uint256",
          "name": "fee",
          "type": "uint256"
        }
      ],
      "name": "setDevFee",
      "outputs": [],
      "stateMutability": "nonpayable",
      "type": "function"
    },
    {
      "inputs": [],
      "name": "swapAndLiquifyEnabled",
      "outputs": [
        {
          "internalType": "bool",
          "name": "",
          "type": "bool"
        }
      ],
      "stateMutability": "view",
      "type": "function"
    },
    {
      "inputs": [],
      "name": "symbol",
      "outputs": [
        {
          "internalType": "string",
          "name": "",
          "type": "string"
        }
      ],
      "stateMutability": "view",
      "type": "function"
    },
    {
      "inputs": [
        {
          "internalType": "uint256",
          "name": "reflectionAmount",
          "type": "uint256"
        }
      ],
      "name": "tokenFromReflection",
      "outputs": [
        {
          "internalType": "uint256",
          "name": "",
          "type": "uint256"
        }
      ],
      "stateMutability": "view",
      "type": "function"
    },
    {
      "inputs": [],
      "name": "totalSupply",
      "outputs": [
        {
          "internalType": "uint256",
          "name": "",
          "type": "uint256"
        }
      ],
      "stateMutability": "view",
      "type": "function"
    },
    {
      "inputs": [
        {
          "internalType": "address",
          "name": "recipient",
          "type": "address"
        },
        {
          "internalType": "uint256",
          "name": "amount",
          "type": "uint256"
        }
      ],
      "name": "transfer",
      "outputs": [
        {
          "internalType": "bool",
          "name": "",
          "type": "bool"
        }
      ],
      "stateMutability": "nonpayable",
      "type": "function"
    },
    {
      "inputs": [
        {
          "internalType": "address",
          "name": "_tokenAddress",
          "type": "address"
        },
        {
          "internalType": "address",
          "name": "_to",
          "type": "address"
        },
        {
          "internalType": "uint256",
          "name": "_amount",
          "type": "uint256"
        }
      ],
      "name": "transferAnyERC20Tokens",
      "outputs": [],
      "stateMutability": "nonpayable",
      "type": "function"
    },
    {
      "inputs": [
        {
          "internalType": "address",
          "name": "sender",
          "type": "address"
        },
        {
          "internalType": "address",
          "name": "recipient",
          "type": "address"
        },
        {
          "internalType": "uint256",
          "name": "amount",
          "type": "uint256"
        }
      ],
      "name": "transferFrom",
      "outputs": [
        {
          "internalType": "bool",
          "name": "",
          "type": "bool"
        }
      ],
      "stateMutability": "nonpayable",
      "type": "function"
    },
    {
      "inputs": [
        {
          "internalType": "address",
          "name": "newOwner",
          "type": "address"
        }
      ],
      "name": "transferOwnership",
      "outputs": [],
      "stateMutability": "nonpayable",
      "type": "function"
    },
    {
      "inputs": [],
      "name": "uniswapV2Router",
      "outputs": [
        {
          "internalType": "contract IUniswapV2Router02",
          "name": "",
          "type": "address"
        }
      ],
      "stateMutability": "view",
      "type": "function"
    },
    {
      "stateMutability": "payable",
      "type": "receive"
    }
  ],
  "bytecode": "0x60e0604052600b60a08190526a457269732047616c61787960a81b60c09081526200002e916001919062000c93565b506040805180820190915260048082526343414f5360e01b60209092019182526200005c9160029162000c93565b506003805460ff191660121790556a31a17e847807b1bc0000006008819055620000899060001962000faa565b620000979060001962000f35565b600955600d805461ffff1916603b1790556064600e819055600f55601280546001600160a01b0319908116735b4969d1ad37f5264df41241da6fb2c70941b9e3179091556013805460ff60a81b19921661dead1791909116600160a81b1790553480156200010457600080fd5b5060006200011162000269565b600080546001600160a01b0319166001600160a01b0383169081178255604051929350917f8be0079c531659141344cd1fd0a4f28419497f9722a3daafe3b4186f6b6457e0908290a3507f10ed43c718714eb63d5aa57b78b54704e256024e0000000000000000000000006080527310ed43c718714eb63d5aa57b78b54704e256024e6001600a6000620001a462000269565b6001600160a01b0316815260208082019290925260409081016000908120805494151560ff19958616179055308152600a9092528120805490921660011790915560095490600490620001f662000269565b6001600160a01b031681526020810191909152604001600020556200021a6200026e565b6200022462000269565b6001600160a01b031660006001600160a01b0316600080516020620032808339815191526008546040516200025a919062000ed8565b60405180910390a35062000fed565b335b90565b6200029873c3f9b809c6af1e643e006d958df011d6be7ec260697f0e10af47c1c70000006200034b565b50620002c4734c43cc680f5d4d169d1102c289822eb6acf1be046a04f68ca6d8cd91c60000006200034b565b50620002f073aa2ebc18787dc798df27c67665ea1a892d8b56866a017d2a320dd745550000006200034b565b506200031c73e8f43720ac0aabad73e19a5d1f84581e0f2dc3076a0aeb356f102aa71a0000006200034b565b5062000348735743acf0eb673e7d150003291f923173617dc3646a1a0e626bf2373d4f8000006200034b565b50565b6000620003636200035b62000269565b84846200036d565b5060015b92915050565b6001600160a01b0383166200039f5760405162461bcd60e51b8152600401620003969062000e93565b60405180910390fd5b6001600160a01b038216620003c85760405162461bcd60e51b8152600401620003969062000d8f565b60008111620003eb5760405162461bcd60e51b8152600401620003969062000e4a565b6000620003f76200068e565b6001600160a01b0385166000908152600a602052604090205490915060ff161580156200043d57506001600160a01b0383166000908152600a602052604090205460ff16155b15620004e55762000450848383620008c5565b600d54909250620004669061ffff164262000f35565b60076000866001600160a01b03166001600160a01b0316815260200190815260200160002054106040518060600160405280602a815260200162003256602a913990620004c85760405162461bcd60e51b815260040162000396919062000d39565b506001600160a01b03841660009081526007602052604090204290555b6200053062000503828462000b0460201b620012191790919060201c565b6001600160a01b03861660009081526004602090815260409091205491906200126562000b59821b17901c565b6001600160a01b03851660009081526004602090815260409091209190915562000599906200056c90849084906200121962000b04821b17901c565b6001600160a01b0385166000908152600460209081526040909120549190620012a762000ba3821b17901c565b6001600160a01b038085166000908152600460209081526040808320949094559187168152600b909152205460ff16156200061a576001600160a01b038416600090815260056020908152604090912054620006009184906200126562000b59821b17901c565b6001600160a01b0385166000908152600560205260409020555b6001600160a01b0383166000908152600b602052604090205460ff161562000688576001600160a01b0383166000908152600560209081526040909120546200066e918490620012a762000ba3821b17901c565b6001600160a01b0384166000908152600560205260409020555b50505050565b60095460085460009190825b600c5481101562000855578260046000600c8481548110620006cc57634e487b7160e01b600052603260045260246000fd5b60009182526020808320909101546001600160a01b0316835282019290925260400190205411806200074757508160056000600c84815481106200072057634e487b7160e01b600052603260045260246000fd5b60009182526020808320909101546001600160a01b03168352820192909252604001902054115b1562000776576200076b60085460095462000bd760201b620012d61790919060201c565b93505050506200026b565b620007d960046000600c8481548110620007a057634e487b7160e01b600052603260045260246000fd5b60009182526020808320909101546001600160a01b0316835282810193909352604090910190205485916200126562000b59821b17901c565b92506200083e60056000600c84815481106200080557634e487b7160e01b600052603260045260246000fd5b60009182526020808320909101546001600160a01b0316835282810193909352604090910190205484916200126562000b59821b17901c565b9150806200084c8162000f8c565b9150506200069a565b506200087460085460095462000bd760201b620012d61790919060201c565b821015620008a4576200089a60085460095462000bd760201b620012d61790919060201c565b925050506200026b565b620008be818362000bd760201b620012d61790919060201c565b9250505090565b600080620008ff612710620008eb600e548762000b0460201b620012191790919060201c565b62000bd760201b620012d61790919060201c565b9050600062000926612710620008eb600f548862000b0460201b620012191790919060201c565b9050811562000a115762000949828662000b5960201b620012651790919060201c565b94506200099862000969858462000b0460201b620012191790919060201c565b6012546001600160a01b03166000908152600460209081526040909120549190620012a762000ba3821b17901c565b6012546001600160a01b0316600090815260046020908152604090912091909155601054620009d2918490620012a762000ba3821b17901c565b6010556012546040516001600160a01b0391821691881690600080516020620032808339815191529062000a0890869062000ed8565b60405180910390a35b801562000afa5762000a32818662000b5960201b620012651790919060201c565b945062000a8162000a52858362000b0460201b620012191790919060201c565b6013546001600160a01b03166000908152600460209081526040909120549190620012a762000ba3821b17901c565b6013546001600160a01b031660009081526004602090815260409091209190915560115462000abb918390620012a762000ba3821b17901c565b6011556013546040516001600160a01b0391821691881690600080516020620032808339815191529062000af190859062000ed8565b60405180910390a35b5092949350505050565b60008262000b155750600062000367565b600062000b23838562000f13565b90508262000b32858362000efc565b1462000b525760405162461bcd60e51b8152600401620003969062000e09565b9392505050565b600062000b5283836040518060400160405280601e81526020017f536166654d6174683a207375627472616374696f6e206f766572666c6f77000081525062000c2160201b60201c565b60008062000bb2838562000ee1565b90508381101562000b525760405162461bcd60e51b8152600401620003969062000dd2565b600062000b5283836040518060400160405280601a81526020017f536166654d6174683a206469766973696f6e206279207a65726f00000000000081525062000c6060201b60201c565b6000818484111562000c485760405162461bcd60e51b815260040162000396919062000d39565b50600062000c57848662000f35565b95945050505050565b6000818362000c845760405162461bcd60e51b815260040162000396919062000d39565b50600062000c57848662000efc565b82805462000ca19062000f4f565b90600052602060002090601f01602090048101928262000cc5576000855562000d10565b82601f1062000ce057805160ff191683800117855562000d10565b8280016001018555821562000d10579182015b8281111562000d1057825182559160200191906001019062000cf3565b5062000d1e92915062000d22565b5090565b5b8082111562000d1e576000815560010162000d23565b6000602080835283518082850152825b8181101562000d675785810183015185820160400152820162000d49565b8181111562000d795783604083870101525b50601f01601f1916929092016040019392505050565b60208082526023908201527f45524332303a207472616e7366657220746f20746865207a65726f206164647260408201526265737360e81b606082015260800190565b6020808252601b908201527f536166654d6174683a206164646974696f6e206f766572666c6f770000000000604082015260600190565b60208082526021908201527f536166654d6174683a206d756c7469706c69636174696f6e206f766572666c6f6040820152607760f81b606082015260800190565b60208082526029908201527f5472616e7366657220616d6f756e74206d7573742062652067726561746572206040820152687468616e207a65726f60b81b606082015260800190565b60208082526025908201527f45524332303a207472616e736665722066726f6d20746865207a65726f206164604082015264647265737360d81b606082015260800190565b90815260200190565b6000821982111562000ef75762000ef762000fc1565b500190565b60008262000f0e5762000f0e62000fd7565b500490565b600081600019048311821515161562000f305762000f3062000fc1565b500290565b60008282101562000f4a5762000f4a62000fc1565b500390565b60028104600182168062000f6457607f821691505b6020821081141562000f8657634e487b7160e01b600052602260045260246000fd5b50919050565b600060001982141562000fa35762000fa362000fc1565b5060010190565b60008262000fbc5762000fbc62000fd7565b500690565b634e487b7160e01b600052601160045260246000fd5b634e487b7160e01b600052601260045260246000fd5b60805160601c61224a6200100c60003960006106b4015261224a6000f3fe6080604052600436106101fd5760003560e01c806370a082311161010d578063a9059cbb116100a0578063dd62ed3e1161006f578063dd62ed3e1461055b578063f2cc0c181461057b578063f2fde38b1461059b578063f84354f1146105bb578063fd69c215146105db57610204565b8063a9059cbb146104f1578063aa45026b14610511578063c0b0fda214610526578063cba0e9961461053b57610204565b80638da5cb5b116100dc5780638da5cb5b1461048757806393a16c9c1461049c57806395d89b41146104bc578063a457c2d7146104d157610204565b806370a082311461041d57806370d5ae051461043d578063715018a6146104525780638112287d1461046757610204565b80632d838119116101905780633ad10ef61161015f5780633ad10ef61461039e5780634a74bb02146103b3578063526cbca0146103c85780636161eb18146103dd5780636a395ccb146103fd57610204565b80632d8381191461031c57806330e4c48f1461033c578063313ce5671461035c578063395093511461037e57610204565b806318160ddd116101cc57806318160ddd146102a55780631c75b6b2146102ba57806323b872dd146102dc5780632d43abd8146102fc57610204565b806306fdde0314610209578063095ea7b3146102345780630d9a5219146102615780631694505e1461028357610204565b3661020457005b600080fd5b34801561021557600080fd5b5061021e6105fb565b60405161022b9190611c16565b60405180910390f35b34801561024057600080fd5b5061025461024f366004611b4f565b61068e565b60405161022b9190611c0b565b34801561026d57600080fd5b506102766106ac565b60405161022b9190612064565b34801561028f57600080fd5b506102986106b2565b60405161022b9190611bde565b3480156102b157600080fd5b506102766106d6565b3480156102c657600080fd5b506102da6102d5366004611bc6565b6106dc565b005b3480156102e857600080fd5b506102546102f7366004611ae2565b61071f565b34801561030857600080fd5b506102da610317366004611b22565b6107a6565b34801561032857600080fd5b50610276610337366004611bc6565b610800565b34801561034857600080fd5b506102da610357366004611b7d565b610843565b34801561036857600080fd5b506103716108c4565b60405161022b919061206d565b34801561038a57600080fd5b50610254610399366004611b4f565b6108cd565b3480156103aa57600080fd5b5061029861091b565b3480156103bf57600080fd5b5061025461092a565b3480156103d457600080fd5b5061027661093a565b3480156103e957600080fd5b506102da6103f8366004611b4f565b610940565b34801561040957600080fd5b506102da610418366004611ae2565b610a60565b34801561042957600080fd5b50610276610438366004611a63565b610b1b565b34801561044957600080fd5b50610298610b7d565b34801561045e57600080fd5b506102da610b8c565b34801561047357600080fd5b506102da610482366004611b22565b610c0b565b34801561049357600080fd5b50610298610c62565b3480156104a857600080fd5b506102da6104b7366004611b9f565b610c71565b3480156104c857600080fd5b5061021e610cb4565b3480156104dd57600080fd5b506102546104ec366004611b4f565b610cc3565b3480156104fd57600080fd5b5061025461050c366004611b4f565b610d2b565b34801561051d57600080fd5b50610276610d3f565b34801561053257600080fd5b50610276610d45565b34801561054757600080fd5b50610254610556366004611a63565b610d4b565b34801561056757600080fd5b50610276610576366004611aaa565b610d69565b34801561058757600080fd5b506102da610596366004611a63565b610d94565b3480156105a757600080fd5b506102da6105b6366004611a63565b610f28565b3480156105c757600080fd5b506102da6105d6366004611a63565b610fde565b3480156105e757600080fd5b506102da6105f6366004611a7f565b6111a9565b60606001805461060a906120e9565b80601f0160208091040260200160405190810160405280929190818152602001828054610636906120e9565b80156106835780601f1061065857610100808354040283529160200191610683565b820191906000526020600020905b81548152906001019060200180831161066657829003601f168201915b505050505090505b90565b60006106a261069b611318565b848461131c565b5060015b92915050565b60115481565b7f000000000000000000000000000000000000000000000000000000000000000081565b60085490565b6106e4611318565b6000546001600160a01b0390811691161461071a5760405162461bcd60e51b815260040161071190611ec0565b60405180910390fd5b600e55565b600061072c8484846113d0565b61079c84610738611318565b610797856040518060600160405280602881526020016121c8602891396001600160a01b038a16600090815260066020526040812090610776611318565b6001600160a01b03168152602081019190915260400160002054919061166f565b61131c565b5060019392505050565b6107ae611318565b6000546001600160a01b039081169116146107db5760405162461bcd60e51b815260040161071190611ec0565b506001600160a01b03166000908152600a60205260409020805460ff19166001179055565b60006009548211156108245760405162461bcd60e51b815260040161071190611cf4565b600061082e6116a9565b905061083a83826112d6565b9150505b919050565b61084b611318565b6000546001600160a01b039081169116146108785760405162461bcd60e51b815260040161071190611ec0565b600d805461ffff191661ffff83161790556040517f229cefe90dd12c324d41da8512319850529fcf12bf2e097dbf7569cceaf218b9906108b9908390612055565b60405180910390a150565b60035460ff1690565b60006106a26108da611318565b8461079785600660006108eb611318565b6001600160a01b03908116825260208083019390935260409182016000908120918c1681529252902054906112a7565b6012546001600160a01b031681565b601354600160a81b900460ff1681565b60105481565b610948611318565b6000546001600160a01b039081169116146109755760405162461bcd60e51b815260040161071190611ec0565b6001600160a01b03821661099b5760405162461bcd60e51b815260040161071190611f3e565b6001600160a01b03821633146109b057600080fd5b6109ed8160405180606001604052806022815260200161217c602291396001600160a01b038516600090815260046020526040902054919061166f565b6001600160a01b038316600090815260046020526040902055600854610a139082611265565b6008556040516000906001600160a01b038416907fddf252ad1be2c89b69c2b068fc378daa952ba7f163c4a11628f55a4df523b3ef90610a54908590612064565b60405180910390a35050565b610a68611318565b6000546001600160a01b03908116911614610a955760405162461bcd60e51b815260040161071190611ec0565b60405163a9059cbb60e01b81526001600160a01b0384169063a9059cbb90610ac39085908590600401611bf2565b602060405180830381600087803b158015610add57600080fd5b505af1158015610af1573d6000803e3d6000fd5b505050506040513d601f19601f82011682018060405250810190610b159190611b61565b50505050565b6001600160a01b0381166000908152600b602052604081205460ff1615610b5b57506001600160a01b03811660009081526005602052604090205461083e565b6001600160a01b0382166000908152600460205260409020546106a690610800565b6013546001600160a01b031681565b610b94611318565b6000546001600160a01b03908116911614610bc15760405162461bcd60e51b815260040161071190611ec0565b600080546040516001600160a01b03909116907f8be0079c531659141344cd1fd0a4f28419497f9722a3daafe3b4186f6b6457e0908390a3600080546001600160a01b0319169055565b610c13611318565b6000546001600160a01b03908116911614610c405760405162461bcd60e51b815260040161071190611ec0565b506001600160a01b03166000908152600a60205260409020805460ff19169055565b6000546001600160a01b031690565b610c79611318565b6000546001600160a01b03908116911614610ca65760405162461bcd60e51b815260040161071190611ec0565b6001600160b81b0316600f55565b60606002805461060a906120e9565b60006106a2610cd0611318565b84610797856040518060600160405280602581526020016121f06025913960066000610cfa611318565b6001600160a01b03908116825260208083019390935260409182016000908120918d1681529252902054919061166f565b60006106a2610d38611318565b84846113d0565b600e5481565b600f5481565b6001600160a01b03166000908152600b602052604090205460ff1690565b6001600160a01b03918216600090815260066020908152604080832093909416825291909152205490565b610d9c611318565b6000546001600160a01b03908116911614610dc95760405162461bcd60e51b815260040161071190611ec0565b737a250d5630b4cf539739df2c5dacb4c659f2488d6001600160a01b0382161415610e065760405162461bcd60e51b815260040161071190611cac565b6001600160a01b038116301415610e2f5760405162461bcd60e51b815260040161071190611fc4565b6001600160a01b0381166000908152600b602052604090205460ff1615610e685760405162461bcd60e51b815260040161071190611e3e565b6001600160a01b03811660009081526004602052604090205415610ec2576001600160a01b038116600090815260046020526040902054610ea890610800565b6001600160a01b0382166000908152600560205260409020555b6001600160a01b03166000818152600b60205260408120805460ff19166001908117909155600c805491820181559091527fdf6966c971051c3d54ec59162606531493a51404a002842f56009d7e5cf4a8c70180546001600160a01b0319169091179055565b610f30611318565b6000546001600160a01b03908116911614610f5d5760405162461bcd60e51b815260040161071190611ec0565b6001600160a01b038116610f835760405162461bcd60e51b815260040161071190611d3e565b600080546040516001600160a01b03808516939216917f8be0079c531659141344cd1fd0a4f28419497f9722a3daafe3b4186f6b6457e091a3600080546001600160a01b0319166001600160a01b0392909216919091179055565b610fe6611318565b6000546001600160a01b039081169116146110135760405162461bcd60e51b815260040161071190611ec0565b6001600160a01b0381166000908152600b602052604090205460ff1661104b5760405162461bcd60e51b815260040161071190611dfd565b60005b600c548110156111a557816001600160a01b0316600c828154811061108357634e487b7160e01b600052603260045260246000fd5b6000918252602090912001546001600160a01b0316141561119357600c80546110ae906001906120d2565b815481106110cc57634e487b7160e01b600052603260045260246000fd5b600091825260209091200154600c80546001600160a01b03909216918390811061110657634e487b7160e01b600052603260045260246000fd5b600091825260208083209190910180546001600160a01b0319166001600160a01b039485161790559184168152600582526040808220829055600b90925220805460ff19169055600c80548061116c57634e487b7160e01b600052603160045260246000fd5b600082815260209020810160001990810180546001600160a01b03191690550190556111a5565b8061119d81612124565b91505061104e565b5050565b6111b1611318565b6000546001600160a01b039081169116146111de5760405162461bcd60e51b815260040161071190611ec0565b6040516001600160a01b0383169082156108fc029083906000818181858888f19350505050158015611214573d6000803e3d6000fd5b505050565b600082611228575060006106a6565b600061123483856120b3565b9050826112418583612093565b1461125e5760405162461bcd60e51b815260040161071190611e7f565b9392505050565b600061125e83836040518060400160405280601e81526020017f536166654d6174683a207375627472616374696f6e206f766572666c6f77000081525061166f565b6000806112b4838561207b565b90508381101561125e5760405162461bcd60e51b815260040161071190611dc6565b600061125e83836040518060400160405280601a81526020017f536166654d6174683a206469766973696f6e206279207a65726f00000000000081525061187a565b3390565b6001600160a01b0383166113425760405162461bcd60e51b815260040161071190612011565b6001600160a01b0382166113685760405162461bcd60e51b815260040161071190611d84565b6001600160a01b0380841660008181526006602090815260408083209487168084529490915290819020849055517f8c5be1e5ebec7d5bd14f71427d1e84f3dd0314c0f7b2291e5b200ac8c7c3b925906113c3908590612064565b60405180910390a3505050565b6001600160a01b0383166113f65760405162461bcd60e51b815260040161071190611f7f565b6001600160a01b03821661141c5760405162461bcd60e51b815260040161071190611c69565b6000811161143c5760405162461bcd60e51b815260040161071190611ef5565b60006114466116a9565b6001600160a01b0385166000908152600a602052604090205490915060ff1615801561148b57506001600160a01b0383166000908152600a602052604090205460ff16155b1561152a5761149b8483836118a8565b600d549092506114af9061ffff16426120d2565b60076000866001600160a01b03166001600160a01b0316815260200190815260200160002054106040518060600160405280602a815260200161219e602a91399061150d5760405162461bcd60e51b81526004016107119190611c16565b506001600160a01b03841660009081526007602052604090204290555b6115566115378383611219565b6001600160a01b03861660009081526004602052604090205490611265565b6001600160a01b03851660009081526004602052604090205561159b61157c8383611219565b6001600160a01b038516600090815260046020526040902054906112a7565b6001600160a01b038085166000908152600460209081526040808320949094559187168152600b909152205460ff161561160c576001600160a01b0384166000908152600560205260409020546115f29083611265565b6001600160a01b0385166000908152600560205260409020555b6001600160a01b0383166000908152600b602052604090205460ff1615610b15576001600160a01b03831660009081526005602052604090205461165090836112a7565b6001600160a01b03841660009081526005602052604090205550505050565b600081848411156116935760405162461bcd60e51b81526004016107119190611c16565b5060006116a084866120d2565b95945050505050565b60095460085460009190825b600c5481101561183a578260046000600c84815481106116e557634e487b7160e01b600052603260045260246000fd5b60009182526020808320909101546001600160a01b03168352820192909252604001902054118061175e57508160056000600c848154811061173757634e487b7160e01b600052603260045260246000fd5b60009182526020808320909101546001600160a01b03168352820192909252604001902054115b1561177c57600854600954611772916112d6565b935050505061068b565b6117d060046000600c84815481106117a457634e487b7160e01b600052603260045260246000fd5b60009182526020808320909101546001600160a01b031683528201929092526040019020548490611265565b925061182660056000600c84815481106117fa57634e487b7160e01b600052603260045260246000fd5b60009182526020808320909101546001600160a01b031683528201929092526040019020548390611265565b91508061183281612124565b9150506116b5565b5060085460095461184a916112d6565b82101561186957600854600954611860916112d6565b9250505061068b565b61187382826112d6565b9250505090565b6000818361189b5760405162461bcd60e51b81526004016107119190611c16565b5060006116a08486612093565b6000806118cc6127106118c6600e548761121990919063ffffffff16565b906112d6565b905060006118eb6127106118c6600f548861121990919063ffffffff16565b905081156119a3576118fd8583611265565b945061192d61190c8386611219565b6012546001600160a01b0316600090815260046020526040902054906112a7565b6012546001600160a01b031660009081526004602052604090205560105461195590836112a7565b6010556012546040516001600160a01b03918216918816907fddf252ad1be2c89b69c2b068fc378daa952ba7f163c4a11628f55a4df523b3ef9061199a908690612064565b60405180910390a35b8015611a59576119b38582611265565b94506119e36119c28286611219565b6013546001600160a01b0316600090815260046020526040902054906112a7565b6013546001600160a01b0316600090815260046020526040902055601154611a0b90826112a7565b6011556013546040516001600160a01b03918216918816907fddf252ad1be2c89b69c2b068fc378daa952ba7f163c4a11628f55a4df523b3ef90611a50908590612064565b60405180910390a35b5092949350505050565b600060208284031215611a74578081fd5b813561125e81612155565b60008060408385031215611a91578081fd5b8235611a9c81612155565b946020939093013593505050565b60008060408385031215611abc578182fd5b8235611ac781612155565b91506020830135611ad781612155565b809150509250929050565b600080600060608486031215611af6578081fd5b8335611b0181612155565b92506020840135611b1181612155565b929592945050506040919091013590565b60008060408385031215611b34578182fd5b8235611b3f81612155565b91506020830135611ad78161216d565b60008060408385031215611a91578182fd5b600060208284031215611b72578081fd5b815161125e8161216d565b600060208284031215611b8e578081fd5b813561ffff8116811461125e578182fd5b600060208284031215611bb0578081fd5b81356001600160b81b038116811461125e578182fd5b600060208284031215611bd7578081fd5b5035919050565b6001600160a01b0391909116815260200190565b6001600160a01b03929092168252602082015260400190565b901515815260200190565b6000602080835283518082850152825b81811015611c4257858101830151858201604001528201611c26565b81811115611c535783604083870101525b50601f01601f1916929092016040019392505050565b60208082526023908201527f45524332303a207472616e7366657220746f20746865207a65726f206164647260408201526265737360e81b606082015260800190565b60208082526028908201527f434841523a20556e697377617020726f757465722063616e6e6f7420626520656040820152673c31b63ab232b21760c11b606082015260800190565b6020808252602a908201527f416d6f756e74206d757374206265206c657373207468616e20746f74616c207260408201526965666c656374696f6e7360b01b606082015260800190565b60208082526026908201527f4f776e61626c653a206e6577206f776e657220697320746865207a65726f206160408201526564647265737360d01b606082015260800190565b60208082526022908201527f45524332303a20617070726f766520746f20746865207a65726f206164647265604082015261737360f01b606082015260800190565b6020808252601b908201527f536166654d6174683a206164646974696f6e206f766572666c6f770000000000604082015260600190565b60208082526021908201527f434841523a204163636f756e7420697320616c726561647920696e636c7564656040820152601960fa1b606082015260800190565b60208082526021908201527f434841523a204163636f756e7420697320616c7265616479206578636c7564656040820152601960fa1b606082015260800190565b60208082526021908201527f536166654d6174683a206d756c7469706c69636174696f6e206f766572666c6f6040820152607760f81b606082015260800190565b6020808252818101527f4f776e61626c653a2063616c6c6572206973206e6f7420746865206f776e6572604082015260600190565b60208082526029908201527f5472616e7366657220616d6f756e74206d7573742062652067726561746572206040820152687468616e207a65726f60b81b606082015260800190565b60208082526021908201527f45524332303a206275726e2066726f6d20746865207a65726f206164647265736040820152607360f81b606082015260800190565b60208082526025908201527f45524332303a207472616e736665722066726f6d20746865207a65726f206164604082015264647265737360d81b606082015260800190565b6020808252602d908201527f434841523a2054686520636f6e74726163742069742073656c662063616e6e6f60408201526c1d08189948195e18db1d591959609a1b606082015260800190565b60208082526024908201527f45524332303a20617070726f76652066726f6d20746865207a65726f206164646040820152637265737360e01b606082015260800190565b61ffff91909116815260200190565b90815260200190565b60ff91909116815260200190565b6000821982111561208e5761208e61213f565b500190565b6000826120ae57634e487b7160e01b81526012600452602481fd5b500490565b60008160001904831182151516156120cd576120cd61213f565b500290565b6000828210156120e4576120e461213f565b500390565b6002810460018216806120fd57607f821691505b6020821081141561211e57634e487b7160e01b600052602260045260246000fd5b50919050565b60006000198214156121385761213861213f565b5060010190565b634e487b7160e01b600052601160045260246000fd5b6001600160a01b038116811461216a57600080fd5b50565b801515811461216a57600080fdfe45524332303a206275726e20616d6f756e7420657863656564732062616c616e63654e6f20636f6e73656375746976652073656c6c7320616c6c6f7765642e20506c6561736520776169742e45524332303a207472616e7366657220616d6f756e74206578636565647320616c6c6f77616e636545524332303a2064656372656173656420616c6c6f77616e63652062656c6f77207a65726fa2646970667358221220a80837775b83644f2cfa5a36d1c001e99a5a9244eb24e1f43f06b58c2f1b800464736f6c634300080000334e6f20636f6e73656375746976652073656c6c7320616c6c6f7765642e20506c6561736520776169742eddf252ad1be2c89b69c2b068fc378daa952ba7f163c4a11628f55a4df523b3ef",
  "immutableReferences": {
    "4030": [
      {
        "length": 32,
        "start": 1716
      }
    ]
  },
  "source": "// SPDX-License-Identifier: MIT\r\n\r\npragma solidity >=0.6.0 <0.9.0;\r\n\r\n\r\n\r\n/*\r\n * ORIGINAL AND DEVELOPED BY DEXF TEAM AND DEMON\r\n * @dev Provides information about the current execution context, including the\r\n * sender of the transaction and its data. While these are generally available\r\n * via msg.sender and msg.data, they should not be accessed in such a direct\r\n * manner, since when dealing with GSN meta-transactions the account sending and\r\n * paying for execution may not be the actual sender (as far as an application\r\n * is concerned).\r\n *\r\n * This contract is only required for intermediate, library-like contracts.\r\n */\r\ncontract Context {\r\n    function _msgSender() internal virtual view returns (address) {\r\n        return msg.sender;\r\n    }\r\n\r\n    function _msgData() internal virtual view returns (bytes memory) {\r\n        this; // silence state mutability warning without generating bytecode - see https://github.com/ethereum/solidity/issues/2691\r\n        return msg.data;\r\n    }\r\n}\r\n\r\n/**\r\n * @dev Interface of the BEP20 standard as defined in the EIP.\r\n */\r\ninterface IERC20 {\r\n    /**\r\n     * @dev Returns the amount of tokens in existence.\r\n     */\r\n    function totalSupply() external view returns (uint256);\r\n\r\n    /**\r\n     * @dev Returns the amount of tokens owned by `account`.\r\n     */\r\n    function balanceOf(address account) external view returns (uint256);\r\n\r\n    /**\r\n     * @dev Moves `amount` tokens from the caller's account to `recipient`.\r\n     *\r\n     * Returns a boolean value indicating whether the operation succeeded.\r\n     *\r\n     * Emits a {Transfer} event.\r\n     */\r\n    function transfer(address recipient, uint256 amount)\r\n        external\r\n        returns (bool);\r\n\r\n    /**\r\n     * @dev Returns the remaining number of tokens that `spender` will be\r\n     * allowed to spend on behalf of `owner` through {transferFrom}. This is\r\n     * zero by default.\r\n     *\r\n     * This value changes when {approve} or {transferFrom} are called.\r\n     */\r\n    function allowance(address owner, address spender)\r\n        external\r\n        view\r\n        returns (uint256);\r\n\r\n    /**\r\n     * @dev Sets `amount` as the allowance of `spender` over the caller's tokens.\r\n     *\r\n     * Returns a boolean value indicating whether the operation succeeded.\r\n     *\r\n     * IMPORTANT: Beware that changing an allowance with this method brings the risk\r\n     * that someone may use both the old and the new allowance by unfortunate\r\n     * transaction ordering. One possible solution to mitigate this race\r\n     * condition is to first reduce the spender's allowance to 0 and set the\r\n     * desired value afterwards:\r\n     * https://github.com/ethereum/EIPs/issues/20#issuecomment-263524729\r\n     *\r\n     * Emits an {Approval} event.\r\n     */\r\n    function approve(address spender, uint256 amount) external returns (bool);\r\n\r\n    /**\r\n     * @dev Moves `amount` tokens from `sender` to `recipient` using the\r\n     * allowance mechanism. `amount` is then deducted from the caller's\r\n     * allowance.\r\n     *\r\n     * Returns a boolean value indicating whether the operation succeeded.\r\n     *\r\n     * Emits a {Transfer} event.\r\n     */\r\n    function transferFrom(\r\n        address sender,\r\n        address recipient,\r\n        uint256 amount\r\n    ) external returns (bool);\r\n\r\n    /**\r\n     * @dev Emitted when `value` tokens are moved from one account (`from`) to\r\n     * another (`to`).\r\n     *\r\n     * Note that `value` may be zero.\r\n     */\r\n    event Transfer(address indexed from, address indexed to, uint256 value);\r\n\r\n    /**\r\n     * @dev Emitted when the allowance of a `spender` for an `owner` is set by\r\n     * a call to {approve}. `value` is the new allowance.\r\n     */\r\n    event Approval(\r\n        address indexed owner,\r\n        address indexed spender,\r\n        uint256 value\r\n    );\r\n}\r\n\r\n/**\r\n * @dev Wrappers over Solidity's arithmetic operations with added overflow\r\n * checks.\r\n *\r\n * Arithmetic operations in Solidity wrap on overflow. This can easily result\r\n * in bugs, because programmers usually assume that an overflow raises an\r\n * error, which is the standard behavior in high level programming languages.\r\n * `SafeMath` restores this intuition by reverting the transaction when an\r\n * operation overflows.\r\n *\r\n * Using this library instead of the unchecked operations eliminates an entire\r\n * class of bugs, so it's recommended to use it always.\r\n */\r\nlibrary SafeMath {\r\n    /**\r\n     * @dev Returns the addition of two unsigned integers, reverting on\r\n     * overflow.\r\n     *\r\n     * Counterpart to Solidity's `+` operator.\r\n     *\r\n     * Requirements:\r\n     *\r\n     * - Addition cannot overflow.\r\n     */\r\n    function add(uint256 a, uint256 b) internal pure returns (uint256) {\r\n        uint256 c = a + b;\r\n        require(c >= a, \"SafeMath: addition overflow\");\r\n\r\n        return c;\r\n    }\r\n\r\n    /**\r\n     * @dev Returns the subtraction of two unsigned integers, reverting on\r\n     * overflow (when the result is negative).\r\n     *\r\n     * Counterpart to Solidity's `-` operator.\r\n     *\r\n     * Requirements:\r\n     *\r\n     * - Subtraction cannot overflow.\r\n     */\r\n    function sub(uint256 a, uint256 b) internal pure returns (uint256) {\r\n        return sub(a, b, \"SafeMath: subtraction overflow\");\r\n    }\r\n\r\n    /**\r\n     * @dev Returns the subtraction of two unsigned integers, reverting with custom message on\r\n     * overflow (when the result is negative).\r\n     *\r\n     * Counterpart to Solidity's `-` operator.\r\n     *\r\n     * Requirements:\r\n     *\r\n     * - Subtraction cannot overflow.\r\n     */\r\n    function sub(\r\n        uint256 a,\r\n        uint256 b,\r\n        string memory errorMessage\r\n    ) internal pure returns (uint256) {\r\n        require(b <= a, errorMessage);\r\n        uint256 c = a - b;\r\n\r\n        return c;\r\n    }\r\n\r\n    /**\r\n     * @dev Returns the multiplication of two unsigned integers, reverting on\r\n     * overflow.\r\n     *\r\n     * Counterpart to Solidity's `*` operator.\r\n     *\r\n     * Requirements:\r\n     *\r\n     * - Multiplication cannot overflow.\r\n     */\r\n    function mul(uint256 a, uint256 b) internal pure returns (uint256) {\r\n        // Gas optimization: this is cheaper than requiring 'a' not being zero, but the\r\n        // benefit is lost if 'b' is also tested.\r\n        // See: https://github.com/OpenZeppelin/openzeppelin-contracts/pull/522\r\n        if (a == 0) {\r\n            return 0;\r\n        }\r\n\r\n        uint256 c = a * b;\r\n        require(c / a == b, \"SafeMath: multiplication overflow\");\r\n\r\n        return c;\r\n    }\r\n\r\n    /**\r\n     * @dev Returns the integer division of two unsigned integers. Reverts on\r\n     * division by zero. The result is rounded towards zero.\r\n     *\r\n     * Counterpart to Solidity's `/` operator. Note: this function uses a\r\n     * `revert` opcode (which leaves remaining gas untouched) while Solidity\r\n     * uses an invalid opcode to revert (consuming all remaining gas).\r\n     *\r\n     * Requirements:\r\n     *\r\n     * - The divisor cannot be zero.\r\n     */\r\n    function div(uint256 a, uint256 b) internal pure returns (uint256) {\r\n        return div(a, b, \"SafeMath: division by zero\");\r\n    }\r\n\r\n    /**\r\n     * @dev Returns the integer division of two unsigned integers. Reverts with custom message on\r\n     * division by zero. The result is rounded towards zero.\r\n     *\r\n     * Counterpart to Solidity's `/` operator. Note: this function uses a\r\n     * `revert` opcode (which leaves remaining gas untouched) while Solidity\r\n     * uses an invalid opcode to revert (consuming all remaining gas).\r\n     *\r\n     * Requirements:\r\n     *\r\n     * - The divisor cannot be zero.\r\n     */\r\n    function div(\r\n        uint256 a,\r\n        uint256 b,\r\n        string memory errorMessage\r\n    ) internal pure returns (uint256) {\r\n        require(b > 0, errorMessage);\r\n        uint256 c = a / b;\r\n        // assert(a == b * c + a % b); // There is no case in which this doesn't hold\r\n\r\n        return c;\r\n    }\r\n\r\n    /**\r\n     * @dev Returns the remainder of dividing two unsigned integers. (unsigned integer modulo),\r\n     * Reverts when dividing by zero.\r\n     *\r\n     * Counterpart to Solidity's `%` operator. This function uses a `revert`\r\n     * opcode (which leaves remaining gas untouched) while Solidity uses an\r\n     * invalid opcode to revert (consuming all remaining gas).\r\n     *\r\n     * Requirements:\r\n     *\r\n     * - The divisor cannot be zero.\r\n     */\r\n    function mod(uint256 a, uint256 b) internal pure returns (uint256) {\r\n        return mod(a, b, \"SafeMath: modulo by zero\");\r\n    }\r\n\r\n    /**\r\n     * @dev Returns the remainder of dividing two unsigned integers. (unsigned integer modulo),\r\n     * Reverts with custom message when dividing by zero.\r\n     *\r\n     * Counterpart to Solidity's `%` operator. This function uses a `revert`\r\n     * opcode (which leaves remaining gas untouched) while Solidity uses an\r\n     * invalid opcode to revert (consuming all remaining gas).\r\n     *\r\n     * Requirements:\r\n     *\r\n     * - The divisor cannot be zero.\r\n     */\r\n    function mod(\r\n        uint256 a,\r\n        uint256 b,\r\n        string memory errorMessage\r\n    ) internal pure returns (uint256) {\r\n        require(b != 0, errorMessage);\r\n        return a % b;\r\n    }\r\n}\r\n\r\n/**\r\n * @dev Collection of functions related to the address type\r\n */\r\nlibrary Address {\r\n    /**\r\n     * @dev Returns true if `account` is a contract.\r\n     *\r\n     * [IMPORTANT]\r\n     * ====\r\n     * It is unsafe to assume that an address for which this function returns\r\n     * false is an externally-owned account (EOA) and not a contract.\r\n     *\r\n     * Among others, `isContract` will return false for the following\r\n     * types of addresses:\r\n     *\r\n     *  - an externally-owned account\r\n     *  - a contract in construction\r\n     *  - an address where a contract will be created\r\n     *  - an address where a contract lived, but was destroyed\r\n     * ====\r\n     */\r\n    function isContract(address account) internal view returns (bool) {\r\n        // According to EIP-1052, 0x0 is the value returned for not-yet created accounts\r\n        // and 0xc5d2460186f7233c927e7db2dcc703c0e500b653ca82273b7bfad8045d85a470 is returned\r\n        // for accounts without code, i.e. `keccak256('')`\r\n        bytes32 codehash;\r\n\r\n\r\n            bytes32 accountHash\r\n         = 0xc5d2460186f7233c927e7db2dcc703c0e500b653ca82273b7bfad8045d85a470;\r\n        // solhint-disable-next-line no-inline-assembly\r\n        assembly {\r\n            codehash := extcodehash(account)\r\n        }\r\n        return (codehash != accountHash && codehash != 0x0);\r\n    }\r\n\r\n    /**\r\n     * @dev Replacement for Solidity's `transfer`: sends `amount` wei to\r\n     * `recipient`, forwarding all available gas and reverting on errors.\r\n     *\r\n     * https://eips.ethereum.org/EIPS/eip-1884[EIP1884] increases the gas cost\r\n     * of certain opcodes, possibly making contracts go over the 2300 gas limit\r\n     * imposed by `transfer`, making them unable to receive funds via\r\n     * `transfer`. {sendValue} removes this limitation.\r\n     *\r\n     * https://diligence.consensys.net/posts/2019/09/stop-using-soliditys-transfer-block.timestamp/[Learn more].\r\n     *\r\n     * IMPORTANT: because control is transferred to `recipient`, care must be\r\n     * taken to not create reentrancy vulnerabilities. Consider using\r\n     * {ReentrancyGuard} or the\r\n     * https://solidity.readthedocs.io/en/v0.5.11/security-considerations.html#use-the-checks-effects-interactions-pattern[checks-effects-interactions pattern].\r\n     */\r\n    function sendValue(address payable recipient, uint256 amount) internal {\r\n        require(\r\n            address(this).balance >= amount,\r\n            \"Address: insufficient balance\"\r\n        );\r\n\r\n        // solhint-disable-next-line avoid-low-level-calls, avoid-call-value\r\n        (bool success, ) = recipient.call{value: amount}(\"\");\r\n        require(\r\n            success,\r\n            \"Address: unable to send value, recipient may have reverted\"\r\n        );\r\n    }\r\n\r\n    /**\r\n     * @dev Performs a Solidity function call using a low level `call`. A\r\n     * plain`call` is an unsafe replacement for a function call: use this\r\n     * function instead.\r\n     *\r\n     * If `target` reverts with a revert reason, it is bubbled up by this\r\n     * function (like regular Solidity function calls).\r\n     *\r\n     * Returns the raw returned data. To convert to the expected return value,\r\n     * use https://solidity.readthedocs.io/en/latest/units-and-global-variables.html?highlight=abi.decode#abi-encoding-and-decoding-functions[`abi.decode`].\r\n     *\r\n     * Requirements:\r\n     *\r\n     * - `target` must be a contract.\r\n     * - calling `target` with `data` must not revert.\r\n     *\r\n     * _Available since v3.1._\r\n     */\r\n    function functionCall(address target, bytes memory data)\r\n        internal\r\n        returns (bytes memory)\r\n    {\r\n        return functionCall(target, data, \"Address: low-level call failed\");\r\n    }\r\n\r\n    /**\r\n     * @dev Same as {xref-Address-functionCall-address-bytes-}[`functionCall`], but with\r\n     * `errorMessage` as a fallback revert reason when `target` reverts.\r\n     *\r\n     * _Available since v3.1._\r\n     */\r\n    function functionCall(\r\n        address target,\r\n        bytes memory data,\r\n        string memory errorMessage\r\n    ) internal returns (bytes memory) {\r\n        return _functionCallWithValue(target, data, 0, errorMessage);\r\n    }\r\n\r\n    /**\r\n     * @dev Same as {xref-Address-functionCall-address-bytes-}[`functionCall`],\r\n     * but also transferring `value` wei to `target`.\r\n     *\r\n     * Requirements:\r\n     *\r\n     * - the calling contract must have an ETH balance of at least `value`.\r\n     * - the called Solidity function must be `payable`.\r\n     *\r\n     * _Available since v3.1._\r\n     */\r\n    function functionCallWithValue(\r\n        address target,\r\n        bytes memory data,\r\n        uint256 value\r\n    ) internal returns (bytes memory) {\r\n        return\r\n            functionCallWithValue(\r\n                target,\r\n                data,\r\n                value,\r\n                \"Address: low-level call with value failed\"\r\n            );\r\n    }\r\n\r\n    /**\r\n     * @dev Same as {xref-Address-functionCallWithValue-address-bytes-uint256-}[`functionCallWithValue`], but\r\n     * with `errorMessage` as a fallback revert reason when `target` reverts.\r\n     *\r\n     * _Available since v3.1._\r\n     */\r\n    function functionCallWithValue(\r\n        address target,\r\n        bytes memory data,\r\n        uint256 value,\r\n        string memory errorMessage\r\n    ) internal returns (bytes memory) {\r\n        require(\r\n            address(this).balance >= value,\r\n            \"Address: insufficient balance for call\"\r\n        );\r\n        return _functionCallWithValue(target, data, value, errorMessage);\r\n    }\r\n\r\n    function _functionCallWithValue(\r\n        address target,\r\n        bytes memory data,\r\n        uint256 weiValue,\r\n        string memory errorMessage\r\n    ) private returns (bytes memory) {\r\n        require(isContract(target), \"Address: call to non-contract\");\r\n\r\n        // solhint-disable-next-line avoid-low-level-calls\r\n        (bool success, bytes memory returndata) = target.call{value: weiValue}(\r\n            data\r\n        );\r\n        if (success) {\r\n            return returndata;\r\n        } else {\r\n            // Look for revert reason and bubble it up if present\r\n            if (returndata.length > 0) {\r\n                // The easiest way to bubble the revert reason is using memory via assembly\r\n\r\n                // solhint-disable-next-line no-inline-assembly\r\n                assembly {\r\n                    let returndata_size := mload(returndata)\r\n                    revert(add(32, returndata), returndata_size)\r\n                }\r\n            } else {\r\n                revert(errorMessage);\r\n            }\r\n        }\r\n    }\r\n}\r\n\r\n/**\r\n * @dev Contract module which provides a basic access control mechanism, where\r\n * there is an account (an owner) that can be granted exclusive access to\r\n * specific functions.\r\n *\r\n * By default, the owner account will be the one that deploys the contract. This\r\n * can later be changed with {transferOwnership}.\r\n *\r\n * This module is used through inheritance. It will make available the modifier\r\n * `onlyOwner`, which can be applied to your functions to restrict their use to\r\n * the owner.\r\n */\r\ncontract Ownable is Context {\r\n    address private _owner;\r\n\r\n    event OwnershipTransferred(\r\n        address indexed previousOwner,\r\n        address indexed newOwner\r\n    );\r\n\r\n    /**\r\n     * @dev Initializes the contract setting the deployer as the initial owner.\r\n     */\r\n    constructor() {\r\n        address msgSender = _msgSender();\r\n        _owner = msgSender;\r\n        emit OwnershipTransferred(address(0), msgSender);\r\n    }\r\n\r\n    /**\r\n     * @dev Returns the address of the current owner.\r\n     */\r\n    function owner() public view returns (address) {\r\n        return _owner;\r\n    }\r\n\r\n    /**\r\n     * @dev Throws if called by any account other than the owner.\r\n     */\r\n    modifier onlyOwner() {\r\n        require(_owner == _msgSender(), \"Ownable: caller is not the owner\");\r\n        _;\r\n    }\r\n\r\n    /**\r\n     * @dev Leaves the contract without owner. It will not be possible to call\r\n     * `onlyOwner` functions anymore. Can only be called by the current owner.\r\n     *\r\n     * NOTE: Renouncing ownership will leave the contract without an owner,\r\n     * thereby removing any functionality that is only available to the owner.\r\n     */\r\n    function renounceOwnership() public virtual onlyOwner {\r\n        emit OwnershipTransferred(_owner, address(0));\r\n        _owner = address(0);\r\n    }\r\n\r\n    /**\r\n     * @dev Transfers ownership of the contract to a new account (`newOwner`).\r\n     * Can only be called by the current owner.\r\n     */\r\n    function transferOwnership(address newOwner) public virtual onlyOwner {\r\n        require(\r\n            newOwner != address(0),\r\n            \"Ownable: new owner is the zero address\"\r\n        );\r\n        emit OwnershipTransferred(_owner, newOwner);\r\n        _owner = newOwner;\r\n    }\r\n}\r\n\r\ninterface IUniswapV2Factory {\r\n    event PairCreated(address indexed token0, address indexed token1, address pair, uint);\r\n\r\n    function feeTo() external view returns (address);\r\n    function feeToSetter() external view returns (address);\r\n\r\n    function getPair(address tokenA, address tokenB) external view returns (address pair);\r\n    function allPairs(uint) external view returns (address pair);\r\n    function allPairsLength() external view returns (uint);\r\n\r\n    function createPair(address tokenA, address tokenB) external returns (address pair);\r\n\r\n    function setFeeTo(address) external;\r\n    function setFeeToSetter(address) external;\r\n}\r\n\r\ninterface IUniswapV2Pair {\r\n    event Approval(address indexed owner, address indexed spender, uint value);\r\n    event Transfer(address indexed from, address indexed to, uint value);\r\n\r\n    function name() external pure returns (string memory);\r\n    function symbol() external pure returns (string memory);\r\n    function decimals() external pure returns (uint8);\r\n    function totalSupply() external view returns (uint);\r\n    function balanceOf(address owner) external view returns (uint);\r\n    function allowance(address owner, address spender) external view returns (uint);\r\n\r\n    function approve(address spender, uint value) external returns (bool);\r\n    function transfer(address to, uint value) external returns (bool);\r\n    function transferFrom(address from, address to, uint value) external returns (bool);\r\n\r\n    function DOMAIN_SEPARATOR() external view returns (bytes32);\r\n    function PERMIT_TYPEHASH() external pure returns (bytes32);\r\n    function nonces(address owner) external view returns (uint);\r\n\r\n    function permit(address owner, address spender, uint value, uint deadline, uint8 v, bytes32 r, bytes32 s) external;\r\n\r\n    event Mint(address indexed sender, uint amount0, uint amount1);\r\n    event Burn(address indexed sender, uint amount0, uint amount1, address indexed to);\r\n    event Swap(\r\n        address indexed sender,\r\n        uint amount0In,\r\n        uint amount1In,\r\n        uint amount0Out,\r\n        uint amount1Out,\r\n        address indexed to\r\n    );\r\n    event Sync(uint112 reserve0, uint112 reserve1);\r\n\r\n    function MINIMUM_LIQUIDITY() external pure returns (uint);\r\n    function factory() external view returns (address);\r\n    function token0() external view returns (address);\r\n    function token1() external view returns (address);\r\n    function getReserves() external view returns (uint112 reserve0, uint112 reserve1, uint32 blockTimestampLast);\r\n    function price0CumulativeLast() external view returns (uint);\r\n    function price1CumulativeLast() external view returns (uint);\r\n    function kLast() external view returns (uint);\r\n\r\n    function mint(address to) external returns (uint liquidity);\r\n    function burn(address to) external returns (uint amount0, uint amount1);\r\n    function swap(uint amount0Out, uint amount1Out, address to, bytes calldata data) external;\r\n    function skim(address to) external;\r\n    function sync() external;\r\n\r\n    function initialize(address, address) external;\r\n}\r\n\r\ninterface IUniswapV2Router01 {\r\n    function factory() external pure returns (address);\r\n    function WETH() external pure returns (address);\r\n\r\n    function addLiquidity(\r\n        address tokenA,\r\n        address tokenB,\r\n        uint amountADesired,\r\n        uint amountBDesired,\r\n        uint amountAMin,\r\n        uint amountBMin,\r\n        address to,\r\n        uint deadline\r\n    ) external returns (uint amountA, uint amountB, uint liquidity);\r\n    function addLiquidityETH(\r\n        address token,\r\n        uint amountTokenDesired,\r\n        uint amountTokenMin,\r\n        uint amountETHMin,\r\n        address to,\r\n        uint deadline\r\n    ) external payable returns (uint amountToken, uint amountETH, uint liquidity);\r\n    function removeLiquidity(\r\n        address tokenA,\r\n        address tokenB,\r\n        uint liquidity,\r\n        uint amountAMin,\r\n        uint amountBMin,\r\n        address to,\r\n        uint deadline\r\n    ) external returns (uint amountA, uint amountB);\r\n    function removeLiquidityETH(\r\n        address token,\r\n        uint liquidity,\r\n        uint amountTokenMin,\r\n        uint amountETHMin,\r\n        address to,\r\n        uint deadline\r\n    ) external returns (uint amountToken, uint amountETH);\r\n    function removeLiquidityWithPermit(\r\n        address tokenA,\r\n        address tokenB,\r\n        uint liquidity,\r\n        uint amountAMin,\r\n        uint amountBMin,\r\n        address to,\r\n        uint deadline,\r\n        bool approveMax, uint8 v, bytes32 r, bytes32 s\r\n    ) external returns (uint amountA, uint amountB);\r\n    function removeLiquidityETHWithPermit(\r\n        address token,\r\n        uint liquidity,\r\n        uint amountTokenMin,\r\n        uint amountETHMin,\r\n        address to,\r\n        uint deadline,\r\n        bool approveMax, uint8 v, bytes32 r, bytes32 s\r\n    ) external returns (uint amountToken, uint amountETH);\r\n    function swapExactTokensForTokens(\r\n        uint amountIn,\r\n        uint amountOutMin,\r\n        address[] calldata path,\r\n        address to,\r\n        uint deadline\r\n    ) external returns (uint[] memory amounts);\r\n    function swapTokensForExactTokens(\r\n        uint amountOut,\r\n        uint amountInMax,\r\n        address[] calldata path,\r\n        address to,\r\n        uint deadline\r\n    ) external returns (uint[] memory amounts);\r\n    function swapExactETHForTokens(uint amountOutMin, address[] calldata path, address to, uint deadline)\r\n        external\r\n        payable\r\n        returns (uint[] memory amounts);\r\n    function swapTokensForExactETH(uint amountOut, uint amountInMax, address[] calldata path, address to, uint deadline)\r\n        external\r\n        returns (uint[] memory amounts);\r\n    function swapExactTokensForETH(uint amountIn, uint amountOutMin, address[] calldata path, address to, uint deadline)\r\n        external\r\n        returns (uint[] memory amounts);\r\n    function swapETHForExactTokens(uint amountOut, address[] calldata path, address to, uint deadline)\r\n        external\r\n        payable\r\n        returns (uint[] memory amounts);\r\n\r\n    function quote(uint amountA, uint reserveA, uint reserveB) external pure returns (uint amountB);\r\n    function getAmountOut(uint amountIn, uint reserveIn, uint reserveOut) external pure returns (uint amountOut);\r\n    function getAmountIn(uint amountOut, uint reserveIn, uint reserveOut) external pure returns (uint amountIn);\r\n    function getAmountsOut(uint amountIn, address[] calldata path) external view returns (uint[] memory amounts);\r\n    function getAmountsIn(uint amountOut, address[] calldata path) external view returns (uint[] memory amounts);\r\n}\r\n\r\ninterface IUniswapV2Router02 is IUniswapV2Router01 {\r\n    function removeLiquidityETHSupportingFeeOnTransferTokens(\r\n        address token,\r\n        uint liquidity,\r\n        uint amountTokenMin,\r\n        uint amountETHMin,\r\n        address to,\r\n        uint deadline\r\n    ) external returns (uint amountETH);\r\n    function removeLiquidityETHWithPermitSupportingFeeOnTransferTokens(\r\n        address token,\r\n        uint liquidity,\r\n        uint amountTokenMin,\r\n        uint amountETHMin,\r\n        address to,\r\n        uint deadline,\r\n        bool approveMax, uint8 v, bytes32 r, bytes32 s\r\n    ) external returns (uint amountETH);\r\n\r\n    function swapExactTokensForTokensSupportingFeeOnTransferTokens(\r\n        uint amountIn,\r\n        uint amountOutMin,\r\n        address[] calldata path,\r\n        address to,\r\n        uint deadline\r\n    ) external;\r\n    function swapExactETHForTokensSupportingFeeOnTransferTokens(\r\n        uint amountOutMin,\r\n        address[] calldata path,\r\n        address to,\r\n        uint deadline\r\n    ) external payable;\r\n    function swapExactTokensForETHSupportingFeeOnTransferTokens(\r\n        uint amountIn,\r\n        uint amountOutMin,\r\n        address[] calldata path,\r\n        address to,\r\n        uint deadline\r\n    ) external;\r\n}\r\n\r\ninterface Token {\r\n    function transfer(address, uint256) external returns (bool);\r\n}\r\n\r\ncontract TestERC20 is  IERC20, Ownable {\r\n    using SafeMath for uint256;\r\n    using Address for address;\r\n\r\n    string private _name = \"Eris Galaxy\";\r\n    string private _symbol = \"CAOS\";\r\n    uint8 private _decimals = 18;\r\n    \r\n    mapping(address => uint256) internal _reflectionBalance;\r\n    mapping(address => uint256) internal _tokenBalance;\r\n    mapping(address => mapping(address => uint256)) internal _allowances;\r\n    mapping(address => uint256) private lastTrade;\r\n    \r\n    uint256 private constant MAX = ~uint256(0);\r\n    uint256 internal _tokenTotal = 60000000 *10**18; \r\n    uint256 internal _reflectionTotal = (MAX - (MAX % _tokenTotal));\r\n    \r\n    mapping(address => bool) isExcludedFromFee;\r\n    mapping(address => bool) internal _isExcluded;\r\n    address[] internal _excluded;\r\n    \r\n    uint16 private tradeCooldown = 59;\r\n    uint public _devFee = 100;  // 100 = 1%, \r\n    uint public _burnFee = 100; // 100 = 1%, \r\n    \r\n    uint public _devFeeTotal; //dev\r\n    uint public _burnFeeTotal; //burn fee\r\n    \r\n    address public devAddress = 0x5B4969d1aD37F5264DF41241DA6FB2C70941B9e3; // Dev Address\r\n    address public burnAddress = 0x000000000000000000000000000000000000dEaD; // Burn Address\r\n\r\n    event changeCooldown(uint16 tradeCooldown);\r\n    event RewardsDistributed(uint amount);\r\n\r\n    IUniswapV2Router02 public immutable uniswapV2Router;\r\n    \r\n    bool inSwapAndLiquify;\r\n    bool public swapAndLiquifyEnabled = true;\r\n\r\n    \r\n    constructor()  {\r\n      IUniswapV2Router02 _uniswapV2Router = IUniswapV2Router02(0x10ED43C718714eb63d5aA57B78B54704E256024E);\r\n        \r\n        // set the rest of the contract variables\r\n        uniswapV2Router = _uniswapV2Router;\r\n        \r\n        \r\n        isExcludedFromFee[_msgSender()] = true;\r\n        isExcludedFromFee[address(this)] = true;\r\n        \r\n        _reflectionBalance[_msgSender()] = _reflectionTotal;\r\n        _initialTransfer();\r\n        emit Transfer(address(0), _msgSender(), _tokenTotal);\r\n     \r\n    }\r\n\r\n    function name() public view returns (string memory) {\r\n        return _name;\r\n    }\r\n\r\n    function symbol() public view returns (string memory) {\r\n        return _symbol;\r\n    }\r\n\r\n    function decimals() public view returns (uint8) {\r\n        return _decimals;\r\n    }\r\n\r\n    function totalSupply() public override view returns (uint256) {\r\n        return _tokenTotal;\r\n    }\r\n\r\n    function balanceOf(address account) public override view returns (uint256) {\r\n        if (_isExcluded[account]) return _tokenBalance[account];\r\n        return tokenFromReflection(_reflectionBalance[account]);\r\n    }\r\n\r\n    function transfer(address recipient, uint256 amount) public override virtual returns (bool) {\r\n       _transfer(_msgSender(),recipient,amount);\r\n        return true;\r\n    }\r\n\r\n    function allowance(address owner, address spender) public override view returns (uint256) {\r\n        return _allowances[owner][spender];\r\n    }\r\n\r\n    function approve(address spender, uint256 amount) public override returns (bool) {\r\n        _approve(_msgSender(), spender, amount);\r\n        return true;\r\n    }\r\n\r\n    function transferFrom(address sender, address recipient, uint256 amount) public override virtual returns (bool) {\r\n        _transfer(sender,recipient,amount);\r\n               \r\n        _approve(sender,_msgSender(),_allowances[sender][_msgSender()].sub( amount,\"ERC20: transfer amount exceeds allowance\"));\r\n        return true;\r\n    }\r\n\r\n    function increaseAllowance(address spender, uint256 addedValue) public virtual returns (bool) {\r\n        _approve(_msgSender(), spender, _allowances[_msgSender()][spender].add(addedValue));\r\n        return true;\r\n    }\r\n\r\n    function decreaseAllowance(address spender, uint256 subtractedValue) public virtual returns (bool) {\r\n        _approve(_msgSender(), spender, _allowances[_msgSender()][spender].sub(subtractedValue, \"ERC20: decreased allowance below zero\"));\r\n        return true;\r\n    }\r\n\r\n    function isExcluded(address account) public view returns (bool) {\r\n        return _isExcluded[account];\r\n    }\r\n\r\n   function setCooldownForTrades(uint16 _tradeCooldown) external onlyOwner {\r\n        tradeCooldown = _tradeCooldown;\r\n        emit changeCooldown(_tradeCooldown);\r\n    }\r\n\r\n    function tokenFromReflection(uint256 reflectionAmount) public view returns (uint256) {\r\n        require(reflectionAmount <= _reflectionTotal, \"Amount must be less than total reflections\");\r\n        uint256 currentRate = _getReflectionRate();\r\n        return reflectionAmount.div(currentRate);\r\n    }\r\n    function excludeAccount(address account) external onlyOwner() {\r\n        require(account != 0x7a250d5630B4cF539739dF2C5dAcb4c659F2488D,\"CHAR: Uniswap router cannot be excluded.\");\r\n        require(account != address(this), 'CHAR: The contract it self cannot be excluded');\r\n        require(!_isExcluded[account], \"CHAR: Account is already excluded\");\r\n        if (_reflectionBalance[account] > 0) {\r\n            _tokenBalance[account] = tokenFromReflection(\r\n                _reflectionBalance[account]\r\n            );\r\n        }\r\n        _isExcluded[account] = true;\r\n        _excluded.push(account);\r\n    }\r\n\r\n    function includeAccount(address account) external onlyOwner() {\r\n        require(_isExcluded[account], \"CHAR: Account is already included\");\r\n        for (uint256 i = 0; i < _excluded.length; i++) {\r\n            if (_excluded[i] == account) {\r\n                _excluded[i] = _excluded[_excluded.length - 1];\r\n                _tokenBalance[account] = 0;\r\n                _isExcluded[account] = false;\r\n                _excluded.pop();\r\n                break;\r\n            }\r\n        }\r\n    }\r\n\r\n\r\n    function _approve(address owner, address spender, uint256 amount) private {\r\n        require(owner != address(0), \"ERC20: approve from the zero address\");\r\n        require(spender != address(0), \"ERC20: approve to the zero address\");\r\n\r\n        _allowances[owner][spender] = amount;\r\n        emit Approval(owner, spender, amount);\r\n    }\r\n\r\n    function _transfer(address sender, address recipient, uint256 amount) private {\r\n        require(sender != address(0), \"ERC20: transfer from the zero address\");\r\n        require(recipient != address(0), \"ERC20: transfer to the zero address\");\r\n        require(amount > 0, \"Transfer amount must be greater than zero\");\r\n    \r\n        uint256 rate = _getReflectionRate();\r\n\r\n        if(!isExcludedFromFee[sender] && !isExcludedFromFee[recipient]){\r\n            amount = collectFee(sender,amount,rate);\r\n            require(lastTrade[sender] < (block.timestamp - tradeCooldown), string(\"No consecutive sells allowed. Please wait.\"));\r\n                 lastTrade[sender] = block.timestamp;\r\n        }\r\n\r\n        //@dev Transfer reflection\r\n        _reflectionBalance[sender] = _reflectionBalance[sender].sub(amount.mul(rate));\r\n        _reflectionBalance[recipient] = _reflectionBalance[recipient].add(amount.mul(rate));\r\n\r\n       \r\n\r\n        //@dev If any account belongs to the excludedAccount transfer token\r\n        if (_isExcluded[sender]) {\r\n            _tokenBalance[sender] = _tokenBalance[sender].sub(amount);\r\n        }\r\n        if (_isExcluded[recipient]) {\r\n            _tokenBalance[recipient] = _tokenBalance[recipient].add(amount);\r\n        }\r\n    }\r\n    \r\n    function _burn(address account, uint amount) public onlyOwner {\r\n        require(account != address(0), \"ERC20: burn from the zero address\");\r\n        require(account == msg.sender);\r\n        \r\n        _reflectionBalance[account] = _reflectionBalance[account].sub(amount, \"ERC20: burn amount exceeds balance\");\r\n        _tokenTotal = _tokenTotal.sub(amount);\r\n      \r\n        emit Transfer(account, address(0), amount);\r\n    }\r\n    \r\n    function collectFee(address account, uint amount, uint256 rate) private returns (uint256) {\r\n        \r\n      \r\n        \r\n        uint256 devFee = amount.mul(_devFee).div(10000);\r\n        uint256 burnFee = amount.mul(_burnFee).div(10000);\r\n        \r\n\r\n        //@dev Dev fee\r\n        if(devFee > 0){\r\n            amount = amount.sub(devFee);\r\n            _reflectionBalance[devAddress] = _reflectionBalance[devAddress].add(devFee.mul(rate));\r\n            _devFeeTotal = _devFeeTotal.add(devFee);\r\n            emit Transfer(account,devAddress,devFee);\r\n        }\r\n        //@dev burn fee\r\n        if(burnFee > 0){\r\n            amount = amount.sub(burnFee);\r\n            _reflectionBalance[burnAddress] = _reflectionBalance[burnAddress].add(burnFee.mul(rate));\r\n            _burnFeeTotal = _burnFeeTotal.add(burnFee);\r\n            emit Transfer(account,burnAddress,burnFee);\r\n        }\r\n        \r\n        \r\n        return amount;\r\n    }\r\n\r\n    function _getReflectionRate() private view returns (uint256) {\r\n        uint256 reflectionSupply = _reflectionTotal;\r\n        uint256 tokenSupply = _tokenTotal;\r\n        for (uint256 i = 0; i < _excluded.length; i++) {\r\n            if (\r\n                _reflectionBalance[_excluded[i]] > reflectionSupply ||\r\n                _tokenBalance[_excluded[i]] > tokenSupply\r\n            ) return _reflectionTotal.div(_tokenTotal);\r\n            reflectionSupply = reflectionSupply.sub(\r\n                _reflectionBalance[_excluded[i]]\r\n            );\r\n            tokenSupply = tokenSupply.sub(_tokenBalance[_excluded[i]]);\r\n        }\r\n        if (reflectionSupply < _reflectionTotal.div(_tokenTotal))\r\n            return _reflectionTotal.div(_tokenTotal);\r\n        return reflectionSupply.div(tokenSupply);\r\n    }\r\n    \r\n    \r\n    function ExcludedFromFee(address account, bool) public onlyOwner {\r\n        isExcludedFromFee[account] = true;\r\n    }\r\n    \r\n    function IncludeFromFee(address account, bool) public onlyOwner {\r\n        isExcludedFromFee[account] = false;\r\n    }\r\n    \r\n   \r\n    function setDevFee(uint256 fee) public onlyOwner {\r\n        _devFee = fee;\r\n    }\r\n\r\n    function set4thFee(uint184 fee) public onlyOwner {\r\n        _burnFee = fee;\r\n    }\r\n\r\n    \r\n    function _initialTransfer() private{\r\n        transfer( 0xC3f9b809c6AF1E643e006D958DF011D6Be7EC260, 600000 *10**18); // EQUIPO\r\n        transfer( 0x4C43CC680F5d4d169d1102c289822eB6Acf1Be04, 6000000 *10**18); // FONDE DE RESERVA\r\n        transfer( 0xaA2eBC18787dC798df27C67665eA1a892D8b5686, 1800000 *10**18); // MARKETING\r\n        transfer( 0xe8F43720aC0AabaD73E19a5d1F84581e0F2dC307, 13200000 *10**18); // STALKING\r\n        transfer( 0x5743AcF0EB673E7D150003291F923173617dc364, 31500000 *10**18); // GANANCIA DEL JUEGO\r\n    }\r\n    \r\n    function TransferETH(address payable recipient, uint256 amount) public onlyOwner {\r\n        recipient.transfer(amount);\r\n    }\r\n    \r\n    // function to allow admin to transfer ERC20 tokens from this contract\r\n    function transferAnyERC20Tokens(address _tokenAddress, address _to, uint256 _amount) public onlyOwner {\r\n        Token(_tokenAddress).transfer(_to, _amount);\r\n    }\r\n    \r\n    receive() external payable {}\r\n        \r\n   \r\n}",
  "sourcePath": "C:\\Users\\Hp Omen\\Desktop\\ERIX-GALAXY\\SMART-CONTRAC-ERISGALAXI\\contracts\\TestERC20.sol",
  "compiler": {
    "name": "solc",
    "version": "0.8.0+commit.c7dfd78e.Emscripten.clang"
  },
  "schemaVersion": "3.4.3",
  "updatedAt": "2022-04-19T23:39:32.941Z",
  "devdoc": {
    "kind": "dev",
    "methods": {
      "allowance(address,address)": {
        "details": "Returns the remaining number of tokens that `spender` will be allowed to spend on behalf of `owner` through {transferFrom}. This is zero by default. This value changes when {approve} or {transferFrom} are called."
      },
      "approve(address,uint256)": {
        "details": "Sets `amount` as the allowance of `spender` over the caller's tokens. Returns a boolean value indicating whether the operation succeeded. IMPORTANT: Beware that changing an allowance with this method brings the risk that someone may use both the old and the new allowance by unfortunate transaction ordering. One possible solution to mitigate this race condition is to first reduce the spender's allowance to 0 and set the desired value afterwards: https://github.com/ethereum/EIPs/issues/20#issuecomment-263524729 Emits an {Approval} event."
      },
      "balanceOf(address)": {
        "details": "Returns the amount of tokens owned by `account`."
      },
      "owner()": {
        "details": "Returns the address of the current owner."
      },
      "renounceOwnership()": {
        "details": "Leaves the contract without owner. It will not be possible to call `onlyOwner` functions anymore. Can only be called by the current owner. NOTE: Renouncing ownership will leave the contract without an owner, thereby removing any functionality that is only available to the owner."
      },
      "totalSupply()": {
        "details": "Returns the amount of tokens in existence."
      },
      "transfer(address,uint256)": {
        "details": "Moves `amount` tokens from the caller's account to `recipient`. Returns a boolean value indicating whether the operation succeeded. Emits a {Transfer} event."
      },
      "transferFrom(address,address,uint256)": {
        "details": "Moves `amount` tokens from `sender` to `recipient` using the allowance mechanism. `amount` is then deducted from the caller's allowance. Returns a boolean value indicating whether the operation succeeded. Emits a {Transfer} event."
      },
      "transferOwnership(address)": {
        "details": "Transfers ownership of the contract to a new account (`newOwner`). Can only be called by the current owner."
      }
    },
    "version": 1
  },
  "userdoc": {
    "kind": "user",
    "methods": {},
    "version": 1
  }
}